:4000000000800020110000005D0201005D02010080B500AF10F056F980B500AF374B12221A6011F0AFFA364B180013F069FA012011F0B8FA302010F0CFFE324B324A1A60FB
:40004000324B8022D2051A60314B314A126802210A431A602F4B304A1A60304B00221A602F4B2F4A126808218A431A60FA23DB00180010F0A3FF2B4B180011F0FBF82A4BAA
:40008000CC2292011A60294B294A1A60294B2A4A1A60264B294A1A60294B2A4A1A60234B294A1A60294BE82252011A601F4B284A1A60284B802212061A60274B8022D20237
:4000C0001A60264B41221A60254B43221A60254B43221A60244B43221A60244B43221A60234B42221A60234B40221A60074B8022D2051A60C046BD4680BDC0463000104057
:40010000001BB70004010B40060000800C020B4078002E407C002E405555000064F02E406CF02E40DC050000040301400000014041FF00800C030140007FBB0043FF008042
:400140000803014000F3010042FF00800003014040FF008008010B4000010B402C0101402801014024010140200101401C010140080101400401014080B586B000AF72B60B
:40018000764B00221A60764B01221A701723FB1800221A7025E01723FB181A7813005B009B185B006F4A9B183B613B691A78597809020A43997809040A43DB781B0613437F
:4001C00018003B691A795B791B0213439BB219000FF0CEFF1723FB181A781723FB1801321A701723FB181B78022BD4D91723FB1800221A7036E01723FB181A7813009B00F8
:400200009B185B00584A9B18FB60FB681A78597809020A43997809040A43DB781B061343BB60FB681A79597909020A43997909040A43DB791B0613437B60BA1CFB68197A94
:400240005B7A1B020B431380BB1C1A887968BB6818000FF09DFF1723FB181A781723FB1801321A701723FB181B78002BC3D03F4A3F4B110018000FF09BFF3E4B80225200A2
:400280001A803D4B01221A703C4B3D4A1A603D4BC02292031A603C4B09221A603B4B992212041A603A4B992212041A60394B992212041A60384B394A1A60394B8022920496
:4002C0001A60384B8022D2041A60374B18221A60364B18221A60364A354B1B78DBB23C218B43DBB214210B43DBB21370314A314B1B78DBB216210B43DBB213702E4B3222C0
:400300001A602E4B2E4A1A602E4B02221A602E4B31221A602D4B2E4A1A602E4BF02212011A602D4B06221A602C4B2D4A1A602D4B3C221A602C4B20221A602C4B2C4A1A608D
:400340002C4B01221A602C4B02221A60FFF764FE0FF070FFC046BD4606B080BD6CF02E401C700F4060C3020074C30200A0C3020080C3020000600F4002600F400000024043
:400380009000EEEE000302400005024000500F4010500F4020500F4030500F400400990034500F4038500F402000104000800F4001700F4000700F400000044008000440D4
:4003C000B04DDA00180004400001044008010440C12001000C0104400002044008020440901218000C02044000030440080304400110DB00080504400C05044010B5064C26
:400400002378002B07D1054B002B02D0044800E000BF0123237010BDE01C002000000000A8B50200084B10B5002B03D00749084800E000BF07480368002B00D110BD064BBE
:40044000002BFBD09847F9E700000000E41C0020A8B50200000C00200000000090B583B000AF002010F08AFF584B180010F076FF10F014FF564B1900002010F0AFFF11F080
:40048000EBFC544B180011F0F9FC12F09BFE524B180012F0A9FE0FF0B3FF11F0BBF912F0FBFC4E4B180012F06DFD62B6BC1D0E200EF050FC030023707C1D10200EF04AFC27
:4004C0000300237002F0A4FC002011F053F912F02FFC434B180012F03DFC0EF0A1FC0FF0C5F90EF049FB0EF0CDF8FB1D00221A701AE03C4B1B78002B06D1002300220221BA
:4005000000200EF02FFE05E000230022002100200EF028FE0EF00AFE322010F085FEFB1D1A78FB1D01321A70FB1D1B78632BE0D900F050FB11F0D0FA2B4B180011F02AFCDA
:40054000002004F0B7F9294B1B78DBB2102BFAD89A00274BD3181B689F4604F0C1F933E004F0F8F930E004F0F5F92DE0002007F019FC29E0012007F015FC25E0002007F098
:40058000F9FD21E0012007F0F5FD1DE008F0E4FC1AE008F093FE17E00AF020FB14E00BF099FC11E00CF070F80EE00CF0C5F90BE00AF006F808E009F047FB05E00CF0AEFBC5
:4005C00002E00CF0C1FDC046BDE7C046FF7F0000350800000D07000089070000F505000005080000301D00201D060000E8310020B8B5020080B582B000AF074B01221A70FC
:4006000012F0A8FC03007B607B68180012F0ACFCC046BD4602B080BDEA31002090B583B000AF002012F038FB12F00AFB304B1B78002B05D02E4B00221A702E4B00221A7083
:400640002C4B1B785A1CD1B22A4A11701C0011F043FB0300DAB2284B1A55002012F02EFC12F01AFC254B1B78DBB2002B0ED0234B00221A701F4B00221A70214B01221A7070
:40068000FA235B00180010F0CFFD26E0194B1B78022B22D9184B5B78062B03D0102B09D0032B13D1134B1B78072B13D9144B01221A700FE00F4B1B781A000F4B9B7909339E
:4006C0009A4209DB0E4B01221A7005E0094B00221A7002E0C04600E0C0460A4B1B687B60094B7A681A60C046BD4603B090BDC046EA310020111D0020F0310020EC31002008
:40070000121D0020CC0F2540C00F254090B583B000AFFC1D10F0EEFF03002370BC1D10F0DBFF03002370FB1D1B78012B07D1124B01221A70114B00221A7012F0BFFCFB1D54
:400740001B78022B07D10E4B01221A700B4B00221A7012F0B3FCBB1D1B78032B02D1074B01221A70074B00221A7012F069FAC046BD4603B090BDC046E83700208434002034
:40078000AF340020EC31002090B583B000AFFC1D12F09CFD03002370BC1D12F089FD03002370FB1D1B78012B07D1124B01221A70114B00221A7012F081FCFB1D1B78022B79
:4007C00007D10E4B01221A700B4B00221A7012F075FCBB1D1B78032B02D1074B01221A70074B00221A7012F02BFAC046BD4603B090BDC046AA340020983400206135002067
:40080000EC31002090B583B000AFFC1D10F072FF03002370BC1D10F05FFF0300237003F0BBFF034B01221A70C046BD4603B090BD6035002080B500AF184B1B685A1C174B5F
:400840001A60174B1B685A1C154B1A60144B1A68F423FF339A4209D9114B00221A60114B1B7801225340DAB20E4B1A700E4B1B685A1C0D4B1A600C4B1A68F423FF339A42B3
:4008800009D9094B00221A60084B1B7801225340DAB2064B1A70C046BD4680BDFC1C0020041D0020301D0020081D0020311D002090B585B000AF040008001100FB1D221CE8
:4008C0001A70BB1D021C1A703B1D0A1C1A800E23FA183B1D1B88DB1813801F4BFA1D12781A701D4BBA1D12785A700E23FB181B88DAB2194B9A700E23FB181B8805339AB29E
:400900000C23FC18144B1100180000F0E7F8030023800E23FB181B8803330C22BA181288120A92B2D1B20C4AD1540E23FB181B8804330C22BA181288D1B2074AD1540E2380
:40094000FB181B8805339BB2180000F085F8C046BD4605B090BDC046B8320020B0B584B000AF05000C0010001900FB1D2A1C1A70BB1D221C1A703B1D021C1A80BB1C0A1C85
:400980001A80334BFA1D12781A70314BBA1D12785A703B1D1B881B0A9BB2DAB22C4B9A703B1D1B88DAB22A4BDA70294B00221A71BB1C1B88DAB2264B5A710C23FC18244B78
:4009C0000821180000F08AF8030023800C23FB181B881B0A9BB2DAB21D4B9A710C23FB181B88DAB21A4BDA71012010F0C3FE0F23FB1800221A700EE00F23FB181B78144A30
:400A0000D35C180011F0A8F80F23FB181A780F23FB1801321A700F23FB181B78072BEBD9C04611F0AFF801000A4B1A6880231B02134001D0012300E00023CB18002BF0D1C7
:400A4000002010F097FEC046BD4604B0B0BDC046B83200200802254080B584B000AF0200BB1D1A80012010F085FE0A2010F0DCFB0E23FB1800221A800EE00E23FB181B8812
:400A8000144AD35C180011F067F80E23FB181A880E23FB1801321A800E23FA18BB1D12881B889A42E9D3C04611F06CF801000A4B1A6880231B02134001D0012300E00023FC
:400AC000CB18002BF0D1002010F054FEC046BD4604B080BDB83200200802254080B586B000AF78600A00BB1C1A801623FB18012252421A800A23FB1800221A800823FB18FE
:400B000000221A800023FB6000233B6134E03B697A68D3181B7899B21623FB181622BA1812884A401A800823FB601FE01623FB181B88012213400FD01623FB181622BA1826
:400B4000128852081A801623FB181622BA1812881F494A401A8006E01623FB181622BA18128852081A80FB68013BFB60FB68002BDCD13B6901333B61BB1C1B889A1E3B6922
:400B80009A42C4DC1623FB181B881A020A23FB181A800823FB181622BA181288120A1A800A23FB180A22B9180822BA18098812880A431A801623FB180A22BA1812881A8073
:400BC0001623FB181B881800BD4606B080BDC04601A0FFFF80B590B000AF012012F06AFC642010F021FB0FF013F803001A00B24B1A70B14B1A78B14B1A700FF039F8030011
:400C00001A00AF4B1A80AF4B18000FF0A3FAAD4B1B78FF2B07D1AB4AAB4B1000190014231A0017F07CF90FF0DFF803001A00A74B1A700DF0ADFE03001A00A54B1A700FF03D
:400C40006DF80200A34B1A6011F0FAFF12F00AF8A04B1B68180003F0A9FD11F0F1FF9E4B00229A709C4BDC22DA709B4B7A2200219954994B7B22DC2199549849984B0A2268
:400C8000180017F025FE2023FB18964A03CA03C312781A70944BBB63944B0C220021180017F046F9002000F069FB0300082B31D0002000F0B7F900200CF086FD864B2E2261
:400CC0009B5C1B061900844B2F229B5C1B040B43814A3021525C120213437F4A3121525C1A43834B5A60834B0C220021180017F01FF9814A7F4B1100180003F0ADFD7D4BE6
:400D0000180017F0CAFD02007A49784B180017F0CBFD0EE0754B180017F0BFFD03001A00724BD218754B1000190002231A0017F0F6F8664B1B78002B4BD0012000F01EFB40
:400D40000300082B45D0012000F06CF901200CF03BFD614BA6229B5C1B0619005E4BA7229B5C1B040B435C4AA821525C12021343594AA921525C1A435D4BDA645D4B0C2227
:400D80000021180017F0D4F8584B180017F085FD03001A00554BD218594B1000190002231A0017F0BCF8534B0C220021180017F0BFF8544A4F4B1100180003F04DFD4D4B7C
:400DC000180017F06AFD02004A49484B180017F06BFD4D4B18000FF033F84B4B1B78012B02D9494B00221A70474BDB78012B02D9454B0022DA70444B9B79012B02D9424B55
:400E000000229A71404B5B7A012B02D93E4B01225A723D4B5B78012B02D93B4B00225A70394B1B79012B02D9374B00221A71364BDB79012B02D9344B0022DA71324B9B7A2A
:400E4000012B02D9304B00229A722F4B9B78012B02D92D4B01229A702B4B5B79012B02D9294B01225A71284B1B7A012B02D9264B01221A72244BDB7A012B02D9224B01224C
:400E8000DA72F0200DF040FD0CF030FE1F4A204B110018000FF076F81E4B18000DF0E6FE0FF0E6F803000133DAB21B4B1A703F23FB1800221A7051E0A33400205435002024
:400EC000AC340020C0330020FCB50200141D00204835002024380020F836002010B602001838002030B6020056341200381D0020B8340020441D00202A3700201CB6020061
:400F000020B60200A237002094380020B83300209C34002088340020B0340020384B1B781A003F23FB181B78D3180A21180014F0B7F90B00D8B23F23FB181A7813009B00B5
:400F40009B18DB002F4A9B1819000FF0D1F83F23FB181A783F23FB1801321A703F23FB181B78092BDAD93B001E220021180016F0DFFF3B00244A03CA03C3244B180017F04C
:400F80008CFC020021493B00180017F08DFC3B00180011F01FFA2023FB181A000821062011F0CCFD1A4B0C220021180016F0C0FF1849194B0622180017F08AFC144B1A00C8
:400FC0000821062011F0BAFD144B1A000A21042011F0B4FD114B1A000A21052011F0AEFD0C4B1A000C21022011F0A8FD0C4B1A000421032011F0A2FDC046BD4610B080BD39
:40100000B03400206835002024B60200381D0020441D002038370020461D002010B602002CB60200F0B583B000AF0200FB1D1A70FB1D1A78FB1D1978CD482E240B001B0153
:401040005B1ADB00C3181B191B781B061D00FB1D1978C7482F240B001B015B1ADB00C3181B191B781B04E818FB1D1978C04C30250B001B015B1ADB00E3185B191B781B025D
:40108000C018FB1D1978BA4C31250B001B015B1ADB00E3185B191B78C118B6481300DB009B18DB00C31804331960FB1D1A78FB1D1978AF484A240B001B015B1ADB00C318F2
:4010C0001B191B789BB21B0298B2FB1D1978A84C4B250B001B015B1ADB00E3185B191B789BB2C31898B2A3491300DB009B18DB00CB181E33021C1A80FB1D1A78FB1D1978D6
:401100009B484E240B001B015B1ADB00C3181B191B789BB21B0298B2FB1D1978944C4F250B001B015B1ADB00E3185B191B789BB2C31898B28F491300DB009B18DB00CB186E
:401140002833021C1A80FB1D1A78FB1D1978884852240B001B015B1ADB00C3181B191B789BB21B0298B2FB1D1978814C53250B001B015B1ADB00E3185B191B789BB2C31867
:4011800098B27C491300DB009B18DB00CB183433021C1A80FB1D1A78FB1D197874484D240B001B015B1ADB00C3181B191C78714926201300DB009B18DB00CB181B18221C38
:4011C0001A70FB1D1A78FB1D1978694851240B001B015B1ADB00C3181B191C78654932201300DB009B18DB00CB181B18221C1A70FB1D1A78FB1D19785D4855240B001B01E0
:401200005B1ADB00C3181B191C785A493E201300DB009B18DB00CB181B18221C1A70FB1D1C78FB1D1A7853491300DB009B18DB00CB1804331B68180016F000FD05000E0027
:40124000FB1D1A784B491300DB009B18DB00CB181E331B88180016F0AFFC0022464B15F063FA02000B002800310015F081FE02000B001000190016F06DFD011C3D4A2300A8
:40128000DB001B19DB00D31820331960FB1D1C78FB1D1A7837491300DB009B18DB00CB1804331B68180016F0C9FC05000E00FB1D1A7830491300DB009B18DB00CB182833CB
:4012C0001B88180016F078FC00222B4B15F02CFA02000B002800310015F04AFE02000B001000190016F036FD011C224A2300DB001B19DB00D3182C331960FB1D1C78FB1DB7
:401300001A781C491300DB009B18DB00CB1804331B68180016F092FC05000E00FB1D1A7814491300DB009B18DB00CB1834331B88180016F041FC00220F4B15F0F5F90200A2
:401340000B002800310015F013FE02000B001000190016F0FFFC011C064A2300DB001B19DB00D31838331960C046BD4603B0F0BDF8360020B83400200088C340B0B586B08A
:4013800000AF0200FB1D1A70FB1D1A78B14913001B019B1ADB00CB18093300221A70FB1D1B7818000DF07CF861200CF083FF03007B617B69002B28D0FB1D1A78A5491300E8
:4013C0001B019B1ADB00CB18093308221A70FB1D1B78A14A0821D154FB1D1B789F4A0021D15468200CF066FF03007B617B69002B01D00DF085F80022FB1D1B78111C18007C
:401400000EF04AFB08237B611FE1FB1D1A78914913001B019B1ADB00CB18093300221A70FB1D1A788B4913001B019B1ADB00CB1804331A781023FB18DA70FB1D1A78854963
:4014400013001B019B1ADB00CB1805331A781023FB189A70FB1D1A787E4913001B019B1ADB00CB1806331A781023FB185A70FB1D1A78784913001B019B1ADB00CB1807337B
:401480001A781023FB181A701023F9180823FB180422180016F043FDFB1D1A7813001B019B1ADB001A1D6B4BD3181A00742100200CF0B6FFFB1D1A78FB1D197865482E24B1
:4014C0000B001B015B1ADB00C3181B191B781B061D00FB1D19785F482F240B001B015B1ADB00C3181B191B781B0428001843FB1D1978584C30250B001B015B1ADB00E31823
:401500005B191B781B021843FB1D1978514C31250B001B015B1ADB00E3185B191B78010019434F481300DB009B18DB00C31804331960FB1D1A78474913001B019B1ADB0023
:40154000CB1809331B78402B08D18122D205FB1D1B78111C18000EF09FFA3EE0FB1D1A783C4913001B019B1ADB00CB1809331B78202B08D18022D205FB1D1B78111C180029
:401580000EF08AFA29E0FB1D1A78324913001B019B1ADB00CB1809331B78022B07D10022FB1D1B78111C18000EF076FA15E0BC68FB1D1A782A491300DB009B18DB00CB18F0
:4015C00004331B68180014F045FD011C0022FB1D18780B1C211C0EF037FAFB1D1B78002B02D1BA681F4B1A60BB68181C14F0C8FC03001AB21C4B1A801C491D4B04221800B0
:4016000016F08DFCFB1D1B78134AD35C082B1CD1FB1D1B78114AD25C0132D1B20F4AD154FB1D1B780D4AD35C142B0ED9FB1D1B780A4A0021D154FB1D1B78074A0021D1547E
:40164000FB1D1B7818000CF0C3FD7B691800BD4606B0B0BDF8360020501D0020541D0020B83400204C350020BC3300201A370020A434002090B583B000AF040008001100F4
:40168000FB1D221C1A70BB1D021C1A703B1D0A1C1A80FB1D1B7818000CF002FF3B1D1A88BB1D1B78190061200CF07EFEC046BD4603B090BD90B583B000AF0400080011002E
:4016C000FB1D221C1A70BB1D021C1A703B1D0A1C1A80FB1D1B7818000CF0E2FE3B1D1A88BB1D1B78190061200CF05EFEC046BD4603B090BDF0B591B004AFB24B1A78B24B4E
:401700001B789A4208D0AF4B1B78FE2B04D0AF4B00221A7001F043FBAC4B1B78023BA94AD35C9BB21B0299B2A84B1B78013BA54AD35C9AB21C2308208446BC4463448A18BF
:401740001A80A24B1B789AB21A2308217918CC189C4B11001800FFF7C1F9030023801A230822BA18D2181C2308218C46BC44634412881B889A4204D0944B00221A7001F055
:401780000EFB192308229446BC4463448D4A52781A708C4B1B78FE2B33D1192308229446BC4463441B78032B26D1864BDA78162308218C46BC4463441A80824B5A79142369
:4017C00008218C46BC4463441A80814B0022DA707D4B1A787E4B1A71142308229446BC4463441A88192308218C46BC4463441B781900FE20FFF75CF8744B00221A7001F0F5
:40180000CEFA704BDB781322082179188C186421180013F0D5FB030023706A4BDB786421180013F053FC0B00DAB2162308218C46BC4463441A80192308229446BC4463444F
:401840001B78032B01D000F0D8FC604B00221A705C4B5A79142308218C46BC4463441A80252308229446BC44634403221A70242308229446BC446344142208218C46BC4409
:40188000624412881A700C2308229446BC446344504A12681A60082308229446BC4463444D4A12681A604D4B1B78002B13D14C4B5B7A082B07D1232308229446BC446344F3
:4018C00000221A701BE0232308229446BC44634401221A7013E0424B81229B5C082B07D1232308229446BC44634401221A7006E0232308229446BC44634402221A70394BD7
:401900001B78002B0AD1374B5B78002B06D1122308229446BC44634400221A70314B1B78042B03D02F4B5B78042B06D1122308229446BC44634404221A702A4B1B78012B03
:4019400003D0284B5B78012B06D1122308229446BC44634401221A70224B1B78022B03D0204B5B78022B06D1122308229446BC44634402221A701B4B1B78032B03D0194B90
:401980005B78032B06D1122308229446BC44634403221A70132308229446BC4463441B78002B00D0C5E3162308229446BC4463441B880E2B00D9AAE39A000B4BD3181B6825
:4019C0009F46C046F0310020A3340020111D0020B83200209C340020B8330020141D0020F83600206435002094B60200252308229446BC4463441B78252208218C46BC4405
:401A00006244591C11701A00FA4B00219954252308229446BC4463441B78252208218C46BC446244591C11701A00F34BD978F14B9954242308229446BC4463442422082106
:401A40008C46BC4462441278013A1A70242308229446BC4463441B78002B00D13CE3252308229446BC4463441B78252208218C46BC446244591C11701A00DE4B002199544A
:401A8000252308229446BC4463441B78252208218C46BC446244591C11701900D54B232208208446BC44624412785A54242308229446BC446344242208218C46BC4462449B
:401AC0001278013A1A70242308229446BC4463441B78002B00D101E3252308229446BC4463441B78252208218C46BC446244591C11701A00BF4B0021995425230822944650
:401B0000BC4463441B78252208218C46BC446244591C11701A00B94B1978B64B9954242308229446BC446344242208218C46BC4462441278013A1A70242308229446BC447D
:401B400063441B78002B00D1CAE2252308229446BC4463441B78252208218C46BC446244591C11701A00A64B1B681B0AD9B2A14B9954252308229446BC4463441B7825223B
:401B800008218C46BC446244591C11701A009C4B1B68D9B2974B9954242308229446BC446344242208218C46BC4462441278013A1A70242308229446BC4463441B78002BD8
:401BC00000D18FE2252308229446BC4463441B78252208218C46BC446244591C11701A00844B00219954252308229446BC4463441B78252208218C46BC446244591C1170E4
:401C00001A007C4B00219954242308229446BC446344242208218C46BC4462441278013A1A70242308229446BC4463441B78002B00D159E2252308229446BC4463441B784B
:401C4000252208218C46BC446244591C11701A000C2308218C46BC446344D978654B9954252308229446BC4463441B78252208218C46BC446244591C11701A000C230821D7
:401C80008C46BC44634499785A4B9954242308229446BC446344242208218C46BC4462441278013A1A70242308229446BC4463441B78002B00D119E2252308229446BC4418
:401CC00063441B78252208218C46BC446244591C11701A000C2308218C46BC4463445978444B9954252308229446BC4463441B78252208218C46BC446244591C11701A0016
:401D00000C2308218C46BC4463441978394B9954242308229446BC446344242208218C46BC4462441278013A1A70242308229446BC4463441B78002B00D1D9E125230822FB
:401D40009446BC4463441B78252208218C46BC446244591C11701A00082308218C46BC446344D978234B9954252308229446BC4463441B78252208218C46BC446244591CFB
:401D800011701A00082308218C46BC4463449978184B9954242308229446BC446344242208218C46BC4462441278013A1A70242308229446BC4463441B78002B00D199E137
:401DC000252308229446BC4463441B78252208218C46BC446244591C11701A00082308218C46BC4463445978024B99542523082208E0C046B8320020F8360020A3340020DE
:401E0000243800209446BC4463441B78252208218C46BC446244591C11701A00082308218C46BC4463441978C64B9954242308229446BC446344242208218C46BC446244E5
:401E40001278013A1A70242308229446BC4463441B78002B00D14FE1252308229446BC4463441B78252208218C46BC446244591C11701A00B34B002199542523082294468C
:401E8000BC4463441B78252208218C46BC446244591C11701A00AC4B1978AA4B9954242308229446BC446344242208218C46BC4462441278013A1A70242308229446BC4413
:401EC00063441B78002B00D118E1252308229446BC4463441B78252208218C46BC446244591C11701A00974B00219954252308229446BC4463441B78252208218C46BC447D
:401F00006244591C11701A00904B59798D4B9954242308229446BC446344242208218C46BC4462441278013A1A70242308229446BC4463441B78002B00D1E1E0252308229D
:401F40009446BC4463441B78252208218C46BC446244591C11701A007A4B00219954252308229446BC4463441B78252208218C46BC446244591C11701A00744B1979714BF7
:401F80009954242308229446BC446344242208218C46BC4462441278013A1A70242308229446BC4463441B78002B00D1AAE0252308229446BC4463441B78252208218C4639
:401FC000BC446244591C11701A005E4B00219954252308229446BC4463441B78252208218C46BC446244591C11701A00574B9979544B9954242308229446BC44634424227E
:4020000008218C46BC4462441278013A1A70242308229446BC4463441B78002B00D173E0252308229446BC4463441B78252208218C46BC446244591C11701A00414B0021B1
:402040009954252308229446BC4463441B78252208218C46BC446244591C11701A003B4B9978384B9954242308229446BC446344242208218C46BC4462441278013A1A70C6
:40208000242308229446BC4463441B78002B3DD0252308229446BC4463441B78252208218C46BC446244591C11701A00254B00219954252308229446BC4463441B7825229A
:4020C00008218C46BC446244591C11701A001F4B59781C4B99541AE0C04618E0C04616E0C04614E0C04612E0C04610E0C0460EE0C0460CE0C0460AE0C04608E0C04606E014
:40210000C04604E0C04602E0C04600E0C046104B1878142308229446BC4463441A88192308218C46BC4463441B781900FEF7C0FB63E0202308229446BC44634400221A804B
:402140003BE0C046B83200205035002088340020A3340020202308229446BC4463441B88D91C132308229446BC4463441B785A1E162308208446BC4463441B880133580049
:4021800020230824A446BC4463441B88C018EE4C13001B019B1ADB00E3181A5CEB4B5A54202308229446BC4463441A88202308218C46BC44634401321A80202308229446CD
:4021C000BC4463441A88142308218C46BC4463441B885B009A42BDDBDD4B1878142308229446BC4463441A88192308218C46BC4463441B781900FEF75BFB192308229446FA
:40220000BC4463441B78062B01D000F007FDD14B00221A70D04B1A79262308218C46BC4463441A80262308229446BC4463441B881B0299B2C84B5B799AB226230820844606
:40224000BC4463448A181A80162308229446BC4463441B880B2B19D1132308229446BC4463441B78002B11D0132308229446BC4463441B78013BD8B2262308229446BC44CD
:4022800063441B881A001421FFF7F4F9162308229446BC4463441B88242B00D081E0132308229446BC4463441B78002B79D0132308229446BC4463441B78013BD8B2262330
:4022C00008229446BC4463441B881A004621FFF7D1F9132308229446BC4463441B78013BDBB2302214211800FFF7C4F9132308229446BC4463441B785A1E98491300DB0005
:402300009B18DB00CB181E33262208218C46BC44624412881A80132308229446BC4463441B785C1E132308229446BC4463441B785A1E8A491300DB009B18DB00CB1804337B
:402340001B68180015F07AFC05000E00132308229446BC4463441B785A1E80491300DB009B18DB00CB181E331B88180015F024FC00227B4B14F0D8F902000B0028003100CC
:4023800014F0F6FD02000B001000190015F0E2FC011C724A2300DB001B19DB00D31820331960162308229446BC4463441B88252B47D1132308229446BC4463441B78002BE2
:4023C0003FD0132308229446BC4463441B78013BD8B2262308229446BC4463441B881A004821FFF747F9132308229446BC4463441B78013BDBB2302214211800FFF73AF93F
:40240000132308229446BC4463441B785A1E132308218C46BC4463441B78591E4A484D240B001B015B1ADB00C3181B191C784B4926201300DB009B18DB00CB181B18221C07
:402440001A70162308229446BC4463441B88262B00D092E0132308229446BC4463441B78002B00D189E0132308229446BC4463441B78013BD8B2262308229446BC446344B1
:402480001B881A004A21FFF7F5F8132308229446BC4463441B78013BDBB2302214211800FFF7E8F8132308229446BC4463441B785A1E2A491300DB009B18DB00CB18283346
:4024C000262208218C46BC44624412881A80132308229446BC4463441B785C1E132308229446BC4463441B785A1E1C491300DB009B18DB00CB1804331B68180015F09EFBB1
:4025000005000E00132308229446BC4463441B785A1E12491300DB009B18DB00CB1828331B88180015F048FB00220D4B14F0FCF802000B002800310014F01AFD02000B0084
:40254000100019000EE0C046F8360020B8320020A3340020111D0020F0310020B83400200088C34015F0F6FB011CEB4A2300DB001B19DB00D3182C33196016230822944674
:40258000BC4463441B88272B47D1132308229446BC4463441B78002B3FD0132308229446BC4463441B78013BD8B2262308229446BC4463441B881A004C21FFF75BF81323E2
:4025C00008229446BC4463441B78013BDBB2302214211800FFF74EF8132308229446BC4463441B785A1E132308218C46BC4463441B78591EC9484D240B001B015B1ADB0032
:40260000C3181B191C78C44926201300DB009B18DB00CB181B18221C1A70162308229446BC4463441B88282B00D081E0132308229446BC4463441B78002B79D013230822F7
:402640009446BC4463441B78013BD8B2262308229446BC4463441B881A004E21FFF70AF8132308229446BC4463441B78013BDBB2302214211800FEF7FDFF13230822944661
:40268000BC4463441B785A1EA3491300DB009B18DB00CB183433262208218C46BC44624412881A80132308229446BC4463441B785C1E132308229446BC4463441B785A1EBF
:4026C00095491300DB009B18DB00CB1804331B68180015F0B3FA05000E00132308229446BC4463441B785A1E8B491300DB009B18DB00CB1834331B88180015F05DFA002247
:40270000874B14F011F802000B002800310014F02FFC02000B001000190015F01BFB011C7D4A2300DB001B19DB00D31838331960162308229446BC4463441B88292B47D121
:40274000132308229446BC4463441B78002B3FD0132308229446BC4463441B78013BD8B2262308229446BC4463441B881A005021FEF780FF132308229446BC4463441B7867
:40278000013BDBB2302214211800FEF773FF132308229446BC4463441B785A1E132308218C46BC4463441B78591E5C484D240B001B015B1ADB00C3181B191C785649262068
:4027C0001300DB009B18DB00CB181B18221C1A70162308229446BC4463441B882B2B26D1132308229446BC4463441B78002B1ED0132308229446BC4463441B78013BD8B2E4
:40280000262308229446BC4463441B881A005421FEF730FF132308229446BC4463441B78013BDBB2302214211800FEF723FF162308229446BC4463441B882C2B26D1132350
:4028400008229446BC4463441B78002B1ED0132308229446BC4463441B78013BD8B2262308229446BC4463441B881A005621FEF701FF132308229446BC4463441B78013BFA
:40288000DBB2302214211800FEF7F4FE162308229446BC4463441B880D2B56D1132308229446BC4463441B78002B1ED0132308229446BC4463441B78013BD8B226230822E5
:4028C0009446BC4463441B881A001821FEF7D2FE132308229446BC4463441B78013BDBB2302214211800FEF7C5FE0E4B5B791E000C4B1B797B600B4B9B791A00094B9B780C
:402900001C00084B5B781D0013210823FB185B181B7805490AE0C046B8340020F83600200088C340883400203CB60200CE4803930295019400927B68320015F077FFCA4ABF
:40294000CA4B110018000DF0ABFB162308229446BC4463441B880E2B4AD1132308229446BC4463441B78002B1ED0132308229446BC4463441B78013BD8B226230822944687
:40298000BC4463441B881A001A21FEF773FE132308229446BC4463441B78013BDBB2302214211800FEF766FEB14B5B791E00B04B1B797B60AE4B9B791A00AD4B9B781C0037
:4029C000AB4B5B781D0013210823FB185B181B78A849A54803930295019400927B68320015F024FFA04AA14B110018000DF058FB132308229446BC4463441B78002B00D04C
:402A0000F5E0162308229446BC4463441B88022B0DD1262308229446BC4463441B88DAB2954B1A70944B18000DF00CF9DFE0162308229446BC4463441B88032B34D12623E7
:402A400008229446BC4463441B888C4A934206D8262308229446BC44634400221A80262308229446BC4463441A88854B1A60844B1B68844A9A429B415B42DBB21A00824B06
:402A80001A70262308229446BC4463441B8818000DF084F9262308229446BC4463441B88180001F083FEA2E0162308229446BC4463441B880A2B1FD1262308229446BC44C7
:402AC00063441B880C2B00D95EE1262308229446BC4463441B88002B00D155E1262308229446BC4463441B88DAB2614B5A71604B18000CF05BF87AE0162308229446BC4431
:402B000063441B880B2B16D1262308229446BC4463441B881F2B00D938E1262308229446BC4463441B88DAB2514B1A71504B18000CF03CF85BE0162308229446BC4463440F
:402B40001B880C2B16D1262308229446BC4463441B88632B00D91BE1262308229446BC4463441B88DAB2424B9A71414B18000CF01DF83CE0162308229446BC4463441B8887
:402B80000D2B16D1262308229446BC4463441B88172B00D9FEE0262308229446BC4463441B88DAB2324B9A70314B18000BF0FEFF1DE0162308229446BC4463441B880E2B73
:402BC00015D1262308229446BC4463441B883B2B00D9E1E0262308229446BC4463441B88DAB2234B5A70224B18000BF0DFFF224B1878262308229446BC4463441C881623D1
:402C000008229446BC4463441A88192308218C46BC44634419782300FDF7A0FE192308229446BC4463441B78102B00D0B6E0174B00221A70132308229446BC4463441B7886
:402C4000002B00D0AAE0162308229446BC4463441B88052B51D11F2308229446BC44634400221A7035E0C046EC370020B03400208834002068B60200A33400200F270000D2
:402C800024380020102700008F340020111D00201F2308229446BC4463441B780322D31A1F2208218C46BC446244127807323D49895C0C22BA18D1541F2308229446BC4423
:402CC00063441A781F2308218C46BC44634401321A701F2308229446BC4463441B78032BD6D90C23F918304B0422180015F017F92D4B1B68181C0DF0C7F816230822944667
:402D0000BC4463441B88072B48D11E2308229446BC44634400221A7020E01E2308229446BC4463441B780322D31A1E2208218C46BC446244127807321A49895C0C22BA18E9
:402D4000D1541E2308229446BC4463441A781E2308218C46BC44634401321A701E2308229446BC4463441B78032BD6D90C23F9180E4B0422180015F0D2F80C4B1B68181C00
:402D80000DF0B6F8C04609E0C04608E0C04606E0C04604E0C04602E0C04600E0C046BD460DB0F0BDF03100209C340020B833002080B500AF124B00221A70124B01221A7041
:402DC0000EF0F0FE00230022002100200CF0CAF90CF0ACF90BF022FC0B4B01221A7005200EF022FA0EF04CFB0EF0E4FE0BF04AFC064B1B7818000AF04FFCC046BD4680BDB9
:402E0000111D0020EC310020181D0020141D002080B500AF034B18000FF0D4F8C046BD4680BDC046493C000090B597B000AF4F23FB1800221A705423FB1800221A800023A6
:402E40003B65214B1B78022B01D000F0EAFE4023FB1812221A814023FB181C4A1A604023FB1801229A801A4A4023F8180023002123F0AEFF154B5B79002B19D0134B1A787C
:402E8000124B5B789A4213D04023F918104B1A785B781B021A4300231204120C1B0C1B041343180022F022FD084B1A78074B5A703C23FB1804220021180015F039F85723B7
:402EC000FB1800221A705AE02239002000300020283900205723FB1819785723FB181B783C22BA18D35C58B25723FB181A78FC4C13005B009B181B5D9B005BB203435BB2EB
:402F0000DAB23C23FB185A545723FB1819785723FB181B783C22BA18D35C58B25723FB181A78EF4C13005B009B18E31801331B785B005BB203435BB2DAB23C23FB185A549A
:402F40005723FB1819785723FB181B783C22BA18D05C5723FB181A78E14C13005B009B18E31802331B780343DAB23C23FB185A545723FB181A785723FB1801321A705723B2
:402F8000FB181B78032BA5D94023FB183F221A814023FB183C22BA181A604023FB1804229A80D04A4023F8180023002123F010FF0C23FB1828220021180014F0B9FFCA4AEF
:402FC0000C23FB181100180015F05FFC4023FB1843221A814023FB180C22BA181A604023FB1828229A80BF4A4023F8180023002123F0EEFE0C23FB1828220021180014F03E
:4030000097FFBA4A0C23FB181100180015F03DFC4023FB1847221A814023FB180C22BA181A604023FB1828229A80AE4A4023F8180023002123F0CCFE0C23FB1828220021D0
:40304000180014F075FFAA4A0C23FB181100180015F01BFC4023FB184B221A814023FB180C22BA181A604023FB1828229A809D4A4023F8180023002123F0AAFE0C23FB1862
:4030800028220021180014F053FF9A4A0C23FB181100180015F0F9FB4023FB184F221A814023FB180C22BA181A604023FB1828229A808C4A4023F8180023002123F088FE7D
:4030C0000C23FB1828220021180014F031FF8A4A0C23FB181100180015F0D7FB4023FB1853221A814023FB180C22BA181A604023FB1828229A807B4A4023F81800230021F5
:4031000023F066FE0C23FB1828220021180014F00FFF7A4A0C23FB181100180015F0B5FB4023FB1857221A814023FB180C22BA181A604023FB1828229A806A4A4023F818E2
:403140000023002123F044FE0C23FB1828220021180014F0EDFE6A4A0C23FB181100180015F093FB4023FB185B221A814023FB180C22BA181A604023FB1828229A80594A55
:403180004023F8180023002123F022FE0C23FB1828220021180014F0CBFE5A4A0C23FB181100180015F071FB4023FB185F221A814023FB180C22BA181A604023FB182822D1
:4031C0009A80484A4023F8180023002123F000FE0C23FB1828220021180014F0A9FE4A4A0C23FB181100180015F04FFB4023FB1863221A814023FB180C22BA181A604023B4
:40320000FB1828229A80374A4023F8180023002123F0DEFD0C23FB1828220021180014F087FE3A4A0C23FB181100180015F02DFB4023FB1867221A814023FB180C22BA1877
:403240001A604023FB1828229A80264A4023F8180023002123F0BCFD4023FB186B221A814023FB182A4A1A604023FB1802229A801C4A4023F8180023002123F0A9FD402318
:40328000FB186F221A814023FB18224A1A604023FB1804229A80134A4023F8180023002123F096FD4023FB1873221A814023FB18194A1A604023FB1804229A80094A40239E
:4032C000F8180023002123F083FD144B5A793423FB181A70114B1A793423FB185A701FE09438002028390020D0360020A836002080360020583600203036002008360020A6
:40330000E0350020B83500209035002068350020243800209C340020B833002088340020F74B9A793423FB189A70F54B9A783423FB18DA70F24B5A783423FB181A71402320
:40334000FB1877221A814023FB183422BA181A604023FB1805229A80EA4A4023F8180023002123F035FD4023FB183A221A814023FB18E54A1A604023FB1801229A80E14A9D
:403380004023F8180023002123F022FD4023FB1816221A81DD4B00229A5EDD4B1A824023FB18DA4A1A604023FB1802229A80D54A4023F8180023002123F00AFDD54B9B78EA
:4033C000002B1CD0D24B10229A5ED14B12215B5E9A4214D04023F918CA4B1A785B781B021A4300231204120C1B0C1B041343180022F07CFAC64B10229A5EC54B5A82402322
:40340000FB181A221A814023FB18C34A1A604023FB1802229A80BB4A4023F8180023002123F0D6FCBB4BDB78002B13D04023F918B44B1A785B781B021A4300231204120C40
:403440001B0C1B041343180022F050FAB14B5A8BB04B9A834023FB181E221A814023FB18AE4A1A604023FB1801229A80A54A4023F8180023002123F0ABFC4023FB1821223E
:403480001A814023FB18A64A1A604023FB1801229A809C4A4023F8180023002123F098FC4023FB1824221A814023FB189D4A1A604023FB1802229A80924A4023F818002346
:4034C000002123F085FC4023FB1827221A814023FB18954A1A604023FB1802229A80894A4023F8180023002123F072FC894B9B7C002B19D0874BDA8A864B1B8B9A4213D0C4
:403500004023F9187F4B1A785B781B021A4300231204120C1B0C1B041343180022F0E6F97C4BDA8A7B4B1A834023FB182B221A814023FB184F22BA181A604023FB180222B9
:403540009A80704A4023F8180023002123F040FC4023FB182E221A814023FB184F22BA181A604023FB1802229A80664A4023F8180023002123F02CFC4023FB188F221A81C5
:403580004023FB18694A1A604023FB1804229A805C4A4023F8180023002123F019FC4023FB1892221A814023FB184F22BA181A604023FB1801229A80524A4023F818002350
:4035C000002123F005FC5A4B30229B5C9BB21B029AB2574B31215B5C9BB2D31899B24C4BE42299524023FB1895221A814023FB18504A1A604023FB1802229A80414A402348
:40360000F8180023002123F0E3FB4023FB1898221A81494A3B001100180001F01DF93B00180015F03AF903001A003B009A18434B1000190002231A0014F071FC40493B00BC
:403640000422180015F030F94023FB183A001A604023FB180A229A802A4A4023F8180023002123F0B5FB4023FB189B221A814023FB18344A1A604023FB1814229A80214A9D
:403680004023F8180023002123F0A2FB4023FB189E221A814023FB182B4A1A604023FB1801229A80174A4023F8180023002123F08FFB4023FB18A2221A812449244B022230
:4036C000180014F02CFC4023FB18214A1A604023FB1802229A800B4A4023F8180023002123F076FB4023FB18A6221A814023FB18184A1A604023FB1802229A802CE0C046F6
:40370000883400202839002025370020BC330020E0300020003000201A30002081300020A33400208430002016300020BA300020F8360020C43100202A3700201CB60200F3
:40374000343700208630002003370020503700201C310020A8300020E94A4023F8180023002123F035FB4023FB18AD221A814023FB18E44A1A604023FB1801229A80E04A7A
:403780004023F8180023002123F022FBDE4BDB7A002B1DD0DC4BAA229A5CDB4BAB215B5C9A4215D04023F918D54B1A785B781B021A4300231204120C1B0C1B0413431800BB
:4037C00022F094F8D04BAA22995CCF4BAB2299544023FB18B1221A814023FB18CB4A1A604023FB1801229A80C54A4023F8180023002123F0EDFAC44B1B7B002B1DD0C24B55
:40380000AC229A5CC04BAD215B5C9A4215D04023F918BB4B1A785B781B021A4300231204120C1B0C1B041343180022F05FF8B64BAC22995CB44BAD2299544023FB18B522DA
:403840001A814023FB18B24A1A604023FB1802229A80AB4A4023F8180023002123F0B8FAA94B5B7B002B1DD0A74BAE229A5AA64BB0215B5A9A4215D04023F918A04B1A78DB
:403880005B781B021A4300231204120C1B0C1B041343180022F02AF89B4BAE22995A9A4BB02299524023FB18B9221A81994B1A68954B9C215A504023FB18974A1A60402364
:4038C000FB1804229A808E4A4023F8180023002123F07EFA8C4B5B7A002B20D08A4B9C229858894BA0229B58191C11F029FD031E15D14023F918824B1A785B781B021A4305
:4039000000231204120C1B0C1B041343180021F0EDFF7D4B9C229A587B4BA0215A504023FB18BD221A814023FB187C4A1A604023FB1801229A80724A4023F818002300210A
:4039400023F046FA704B9B7A002B1DD06E4BA4229A566D4BA5215B569A4215D04023F918674B1A785B781B021A4300231204120C1B0C1B041343180021F0B8FF624BA42262
:403980009956614BA52299544023FB18C1221A814023FB18624A1A604023FB1802229A80574A4023F8180023002123F011FA4023FB18C4221A814023FB185A4A1A60402310
:4039C000FB1801229A804E4A4023F8180023002123F0FEF94023FB18C8221A814023FB18514A1A604023FB1802229A80444A4023F8180023002123F0EBF9434B9B7B002BD9
:403A00001DD0414BB4229A5A3F4BB6215B5A9A4215D04023F9183A4B1A785B781B021A4300231204120C1B0C1B041343180021F05DFF354BB422995A334BB622995240232F
:403A4000FB18CC221A814023FB18384A1A604023FB1801229A802A4A4023F8180023002123F0B6F9284BDB7B002B1DD0264BB8229A5C254BB9215B5C9A4215D04023F91840
:403A80001F4B1A785B781B021A4300231204120C1B0C1B041343180021F028FF1A4BB822995C194BB92299544023FB18D0221A814023FB181E4A1A604023FB1801229A800C
:403AC0000F4A4023F8180023002123F081F90E4BA6229A5C0C4BA7215B5C9A4230D04023F918074B1A785B781B021A4300231204120C1B0C1B041343180021F0F7FE19E0B1
:403B000028390020AA30002000300020AC300020AE300020A43400209C300020A4300020B230002019370020B4300020B8300020A63000203D4BA622995C3C4BA7229954F2
:403B40004023FB18D4221A81394B1A68394B1A624023FB18384A1A604023FB1804229A80364A4023F8180023002123F031F92F4B1B7C002B1DD02F4B1A6A2E4B5B6A191C02
:403B8000101C11F0DDFB031E13D14023F9182B4B1A785B781B021A4300231204120C1B0C1B041343180021F0A1FE224B1A6A214B5A62234B1A781D4B9A774023FB18D82275
:403BC0001A814023FB181F4A1A604023FB1801229A801A4A4023F8180023002123F0F8F8124B1B79002B1DD0104B9A7F0F4B20215B5C9A4216D04023F918104B1A785B783B
:403C00001B021A4300231204120C1B0C1B041343180021F06BFE054B997F044B2022995400E0C046BD4617B090BDC046003000204C350020E03000200031002028390020A9
:403C4000643500201E30002080B588B000AF786039607B68282B16D003D8012B07D000F096FD412B22D04C2B31D000F090FD01200DF058FD01200DF0A5FDDE4BDE4A1A60C2
:403C8000DE4BDF4A1A6000200EF034FADD4B00221A700EF0D5FFDC4BDB7C012B01D000F06EFDD94B00221A7000F069FDFFF7BCF8D64A3B681000190002231A0014F02FF949
:403CC000D04B01221A7000F067FD00F060FD3B68BB61BB699B89122B2ED1BB69181DCC4A4023002123F074F8031E1DD1BB695B681A78C54B1A70BB695B681A78C54B5A762B
:403D0000BB695B685978C34B91229954C04B1A785B781B021A4300231204120C1B0C1B041343180021F02EFEB74B1B789BB21A0014210020FDF79EFCBB699B89212B31D176
:403D4000BB69181DB24A4023002123F041F8031E28D1AF4B1A785B781B021A4300231204120C1B0C1B041343180021F00BFEBB695B681B78002B15D0BB695B681B78F02BE7
:403D800010D8BB695B6819789F4B802299549E4B80229B5C18000BF055FF9B4B80229A5C9D4B1A70BB699B893F2B6ED1BB69181D974A4023002123F00BF8031E65D1944B56
:403DC0001A785B781B021A4300231204120C1B0C1B041343180021F0D5FD1F23FB1800221A7047E01F23FB181A78BB6959681F23FB181B78CB181B789B08DBB201210B4007
:403E0000D8B2864913005B009B18021C5A541F23FB181A78BB6959681F23FB181B78CB181B785B08DBB201210B40D8B27B4913005B009B18CB180133021C1A701F23FB1832
:403E40001A78BB6959681F23FB181B78CB181B7801210B40D8B2714913005B009B18CB180233021C1A701F23FB181A781F23FB1801321A701F23FB181B78032BB2D9674B8F
:403E80000C22190008200BF023FEBB699B896B2B4AD1BB69181D5E4A4023002122F098FF031E41D15A4B1A785B781B021A4300231204120C1B0C1B041343180021F062FD1E
:403EC000BB695B6801331B789BB21B0299B2BB695B681B789AB21623FB188A181A801623FB181A884E4B1A604D4B1B684D4A934206D84B4B00221A604B4B00221A700EE049
:403F0000474B1B68494A934206D9454B474A1A60454B01221A7002E0434B01221A70404B1B6818000BF03AFFBB699B896F2B40D1BB69181D364A4023002122F049FF031E0B
:403F400037D1334B1A785B781B021A4300231204120C1B0C1B041343180021F013FD1E23FB1800221A7013E01E23FB181A78BB6959681E23FB181B78CB1819781023FB1851
:403F800099541E23FB181A781E23FB1801321A701E23FB181B78032BE6D91023F918244B0422180013F0BBFF214B1B68181C0BF06BFFBB699B89732B61D1BB69181D144A44
:403FC0004023002122F004FF031E58D1104B1A785B781B021A4300231204120C1B0C1B041343180021F0CEFC1D23FB1800221A7034E0C04660F02E40310300000800034068
:4040000002030080ED31002000300020B434002028390020F8360020A334002094380020243800200F2700008F34002060EA00009C3400201D23FB181A78BB6959681D23DA
:40404000FB181B78CB1819780C23FB1899541D23FB181A781D23FB1801321A701D23FB181B78032BE6D90C23F918D84B0422180013F055FFD54B1B68181C0BF039FFBB6909
:404080009B89772B33D1BB69181DD14A4023002122F09EFE031E2AD1CD4B1A785B781B021A4300231204120C1B0C1B041343180021F068FCBB695B681A78C64B5A71BB6984
:4040C0005B685A78C34B1A71BB695B689A78C14B9A71BB695B68DA78BE4B9A70BB695B681A79BC4B5A70BB4B18000AF05FFDBB699B891E2B27D1BB69181DB54A4023002112
:4041000022F066FE031E1ED1BB695B681978B24B81229954AE4B1A785B781B021A4300231204120C1B0C1B041343180021F02AFCA94B80229B5C18000BF084FDA64B802226
:404140009A5CA64B1A70BB699B892B2B16D1BB69181D9F4A4023002122F03AFE031E0DD19B4B1A785B781B021A4300231204120C1B0C1B041343180021F004FCBB699B8911
:404180002E2B16D1BB69181D914A4023002122F01FFE031E0DD18E4B1A785B781B021A4300231204120C1B0C1B041343180021F0E9FBBB699B898F2B16D1BB69181D844A11
:4041C0004023002122F004FE031E0DD1804B1A785B781B021A4300231204120C1B0C1B041343180021F0CEFBBB699B899B2B16D1BB69181D764A4023002122F0E9FD031EEE
:404200000DD1734B1A785B781B021A4300231204120C1B0C1B041343180021F0B3FBBB699B89A22B16D1BB69181D694A4023002122F0CEFD031E0DD1654B1A785B781B029F
:404240001A4300231204120C1B0C1B041343180021F098FBBB699B89242B32D1BB69181D5B4A4023002122F0B3FD031E29D1BB695B6801331B7899B2574B84229952564B6C
:4042800084229B5A1B0299B2534B84229952524B84229A5ABB695B681B789BB2134399B24D4B842299524A4B1A785B781B021A4300231204120C1B0C1B041343180021F074
:4042C00061FBBB699B89D02B1CD1BB69181D404A4023002122F07CFD031E13D1BB695B6819783D4BA6229954394B1A785B781B021A4300231204120C1B0C1B041343180018
:4043000021F040FBBB699B89142B1CD1BB69181D2F4A4023002122F05BFDBB695B681B7801221340DAB22C4B5A71294B1A785B781B021A4300231204120C1B0C1B041343F9
:40434000180021F01FFBBB699B89182B1CD1BB69181D1F4A4023002122F03AFDBB695B681B7801221340DAB21B4B9A70184B1A785B781B021A4300231204120C1B0C1B0428
:404380001343180021F0FEFABB699B891C2B27D1BB69181D0E4A4023002122F019FDBB695B681B7801221340DAB20B4BDA70084B1A785B781B021A4300231204120C1B0CD6
:4043C0001B041343180021F0DDFA09E0B8330020283900208834002000300020A3340020BB699B89292B1CD1BB69181DE54A4023002122F0EDFCBB695B681B780122134030
:40440000DAB2E14B9A74DF4B1A785B781B021A4300231204120C1B0C1B041343180021F0B1FABB699B89A02B1CD1BB69181DD54A4023002122F0CCFCBB695B681B78012273
:404440001340DAB2D04B9A71CE4B1A785B781B021A4300231204120C1B0C1B041343180021F090FABB699B89A42B1CD1BB69181DC44A4023002122F0ABFCBB695B681B7877
:4044800001221340DAB2C04B1A72BE4B1A785B781B021A4300231204120C1B0C1B041343180021F06FFABB699B89AF2B1CD1BB69181DB44A4023002122F08AFCBB695B688D
:4044C0001B7801221340DAB2AF4BDA72AD4B1A785B781B021A4300231204120C1B0C1B041343180021F04EFABB699B89B32B1CD1BB69181DA34A4023002122F069FCBB692E
:404500005B681B7801221340DAB29F4B1A739D4B1A785B781B021A4300231204120C1B0C1B041343180021F02DFABB699B89B72B1CD1BB69181D934A4023002122F048FC7B
:40454000BB695B681B7801221340DAB28E4B5A738C4B1A785B781B021A4300231204120C1B0C1B041343180021F00CFABB699B89BB2B1CD1BB69181D824A4023002122F06B
:4045800027FCBB695B681B7801221340DAB27E4B5A727C4B1A785B781B021A4300231204120C1B0C1B041343180021F0EBF9BB699B89BF2B1CD1BB69181D724A4023002169
:4045C00022F006FCBB695B681B7801221340DAB26D4B9A726B4B1A785B781B021A4300231204120C1B0C1B041343180021F0CAF9BB699B89C62B1CD1BB69181D614A402366
:40460000002122F0E5FBBB695B681B7801221340DAB25D4BDA715B4B1A785B781B021A4300231204120C1B0C1B041343180021F0A9F9BB699B89CA2B1CD1BB69181D514A97
:404640004023002122F0C4FBBB695B681B7801221340DAB24C4B9A734A4B1A785B781B021A4300231204120C1B0C1B041343180021F088F9BB699B89CE2B1CD1BB69181D2D
:40468000404A4023002122F0A3FBBB695B681B7801221340DAB23C4BDA733A4B1A785B781B021A4300231204120C1B0C1B041343180021F067F9BB699B89D22B1CD1BB69B6
:4046C000181D304A4023002122F082FBBB695B681B7801221340DAB22B4B5A74294B1A785B781B021A4300231204120C1B0C1B041343180021F046F9BB699B89D62B1CD154
:40470000BB69181D1F4A4023002122F061FBBB695B681B7801221340DAB21B4B1A74194B1A785B781B021A4300231204120C1B0C1B041343180021F025F9BB699B89DA2B8B
:4047400024D1BB69181D0F4A4023002122F040FBBB695B681B7801221340DAB20A4B1A71084B1A785B781B021A4300231204120C1B0C1B041343180021F004F906E0C0462E
:4047800005E0C0462839002000300020C046C046BD4608B080BDC04680B500AF0EF062FA00200EF079FAC046BD4680BD80B582B000AF78600EF056FA7B6818000EF07CFA73
:4047C00000200EF069FAC046BD4602B080BDC04680B500AF08200CF065FF80231B0118000CF060FFC8200CF045FDC046BD4680BD80B586B000AF78607B68180014F04DF8FA
:404800000300FB6000237B6102E07B6901337B617B697A68D3181B78202BF6D07B69002B16DD00233B610DE03B697A68D31879693A698A1811007A68521812781A703B6995
:4048400001333B617A693B69D218FB689A42EBDDC046BD4606B080BD80B584B000AF786039600023FB603B68180014F016F80300BB6016E0FB683A68D3181B78202B05D168
:40488000FB687A68D31800221A7007E0FB687A68D318FA6839688A1812781A70FB680133FB60FA68BB689A42E4DBC046BD4604B080BDC04680B582B000AF0200FB1D1A7080
:4048C000054BFA1D12781A70044B01221A70C046BD4602B080BDC046E8310020A234002080B586B000AF154B1B78002B18D0134B00221A70124B180009F01AFE3B1D114AB1
:404900001168196012791A710F4A3B1D1100180013F0AEFF3A1D0D4B1100180009F028FFFA23DB0018000CF07FFC094B1B78180008F0B2FEC046BD4606B080BDA2340020CD
:40494000D0B60200D8B6020018380020E0B60200141D002090B589B002AFD34B1B78002B00D180E0D04B00221A70D04B1B685A1E9341DBB21A00CE4B1A7009F0B7F808F0EF
:40498000E1FECC4B1B78180008F09CFECA4B1A78CA4B1100180009F0EDFD96200CF044FCC74B0021180009F0E5FDC64B0021180009F0E0FDBF4B1B78012B22D1C24B0021DA
:4049C000180009F0D7FDC14B6C2200219954BF4B782200219954BD4B842200219954BC4B00225A70BB4B00225A70BB4B01221A700120FCF7C3FC012009F0EAFB012001F040
:404A00003DFAB24B242200219954B04B302200219954AE4B3C2200219954AD4B00221A70AC4B00221A70AD4B01221A700020FCF7A5FC002009F0CCFB9E4B1B7801211800F8
:404A400000F092F99B4B1B78002B06D0A44AA549A54B180009F0BAFD05E0A44AA149A24B180009F0B3FD1723FB18A14AD27E1A701623FB189E4A9321525C1A70FFF7A8FE74
:404A80009C4B1B683B619C4B1B683A69D31A9B4A934235D9984B3A691A60994B18000AF0E5F8984B32220021180013F041FA944B5B791A00924B1B791C00914B9B79924988
:404AC00090480093230013F0B1FE8E4A8F4B1100180009F04DFE8B4B32220021180013F027FA874B9B781A00854B5B788849854813F09CFE834A874B1100180009F038FEFC
:404B0000854B1B683A69D31A312B0CD9824B3A691A6000F0C3FE674B1B78002B01D001F033F80AF003FB7D4B1B683A69D31AF92B00D880E0794B3A691A60794B00221A70D9
:404B40000020FCF71BFC5B4B1B78002B02D00120FCF714FC584B1B78002B01D009F00EF8544B1B78180000F0E7F801F077FE524B1B78002B01D0FEF757F94F4B1A784F4BCA
:404B80001100180009F0F6FC664B1B78002B06D009F034FF03001A00634B1A704BE04C4B1B78032B03D04A4B5B78032B03D15E4B03221A703FE0464B1B78022B03D0444B31
:404BC0005B78022B03D1584B02221A7033E0404B1B78012B03D03E4B5B78012B03D1524B01221A7027E03A4B1B78042B1CD0384B5B78042B18D0394B1B78002B14D02D4B75
:404C00001B78002B03D0344B1B78002B0CD0384B5B7A022B08D0274B1B78002B08D0344B81229B5C022B03D13F4B04221A7002E03D4B00221A703D4B1B683A69D21AF4234A
:404C4000FF339A4207D9394B3A691A60194B1B78180001F08DFF364B1B78002B04D0344B00221A70FCF746FD324B1B78002B13D0114B1B78002B0FD10D4B1B78002B0BD09C
:404C80002C4B00221A70FFF7A3FD0223FF3318000CF0D2FCFEF78CF815F04AFA02F0E4FCC046BD4607B090BDA2340020243800208F340020141D0020ED310020E4B60200E1
:404CC000E8B60200ECB60200F0B60200B834002064350020283800200D0C00200C0C0020E0FF0000F4B60200F8B602008E730000F8360020FC1C00201C1D0020E70300000D
:404D000088340020D8330020FCB602000CB7020010B702001CB70200241D00202C1D0020D83000204835002050350020281D0020121D00206035002080B582B000AF0200A0
:404D4000FB1D1A70FB1D1B780021180000F00CF8FB1D1B78002B02D0002001F08FF8C046BD4602B080BDC046F0B591B004AF0200FB1D1A70BB1D0A1C1A702F23FB1800222F
:404D80001A702E23FB1800221A702D23FB1800221A70BF4B5A7ABF4B1B789A4203D02F23FB1801221A700EF077FB03001A00BA4B1A70BA4B1A78B84B1B789A4203D02E23C5
:404DC000FB1801221A702F23FB181B78002B04D1BB1D1B78002B00D1A7E1BB1D1B78002B02D0AF4B00221A70A94B5B7A082B04D0A74B5B7A022B00D0CCE0A54B5B7A022BCC
:404E000003D1A84B05221A7002E0A64B04221A70A54B08221A70FB1D1B780022042100200AF0A0F9A14B0021180009F0A3FBA04B0121180009F09EFB9E499F4B05221800AB
:404E400009F0C4FBFB1D1B78002B06D199499B4B0B22180009F0BAFB05E09649974B0F22180009F0B3FBC8200CF0DEF908F0D0FD874B5B7A022B24D11023FB18904A03CA46
:404E800003C312881A808F4B5B791D008D4B1B791E008C4B9B791A008A4B9B781C00894B5B788949894802930194009233002A0013F0BCFC854A864B110018000BF0F0F8D0
:404EC0004CE0734B5B7A082B24D11023FB18814A03CA03C312881A807A4B5B791D00794B1B791E00774B9B791A00764B9B781C00744B5B78784975480293019400923300E8
:404F00002A0013F093FC714A714B110018000BF0C7F823E01023FB18704A1168196092889A80684B5B791D00664B1B791E00654B9B791A00634B9B781C00624B5B78664941
:404F4000624802930194009233002A0013F06EFC5E4A5F4B110018000BF0A2F81023FA18534B1100180009F003FC494B5A7A494B1A705B4B242200219954594B3022002156
:404F80009954574B3C2200219954454B00221A7000F06CFC3E4B5B7A402B33D1434B0021180009F0E7FA424B0121180009F0E2FA4049414B0622180009F008FBFB1D1B785C
:404FC000002B06D13B493D4B0822180009F0FEFA05E03849394B0C22180009F0F7FAC8200CF022F93E4B2422002199543C4B3022002199543A4B3C2200219954284B00220D
:405000001A7092E0224B5B7A042B08D1264B08221A7008F0FDFC0020FCF704F885E01C4B5B7A102B5ED1204B08221A701D4B04221A70FB1D1B780122042100200AF092F82C
:405040001A4B0121180009F095FA194B0021180009F090FA1749184B0522180009F0B6FAFB1D1B78002B06D11249144B0B22180009F0ACFA05E00F49104B0F22180009F019
:40508000A5FAC8200CF0D0F808F0C2FC4DE0C046F8360020581D00200C0C0020591D00205A1D002064350020341D002020B70200E8B6020024B7020028B702002CB702002E
:4050C00030B70200883400203CB70200EC370020B034002068B7020074B702009CB70200B8340020CC4B5B7A002B1ED1CB4B0121180009F03FFACA4B0021180009F03AFAFD
:40510000C84B1B78002B07D0C64B1B78002B09D0C54B9B7A002B05D1C449C54B0722180009F054FA0020FBF77DFFBB4B5B7A402B57D1FB1D1B780122022100200AF012F843
:40514000B54B48229A5C2823FB181A802823FB181B881B0299B2B04B49229B5C9AB22823FB188A181A802623FC182823FB181A88E123190110000FF023FF03002380262390
:40518000FB181C882823FB181A882623FB181B88A8494B43D3183C2118000FF09BFF03001D002823FB181B883C2118000FF08EFF0B009BB2A0491022B81800932B0022007C
:4051C00013F034FB1023FA18954B1100180009F0CFFA914B5A7A994B1A70994B00221A7044E38D4B40229B5C002B1CD18A4B41229B5C002B17D1884B42229B5C002B12D1D1
:40520000854B43229B5C002B0DD1834B44229B5C002B08D1804B45229B5C002B03D1894B01221A7009E0874B1B78002B02D00020FBF7F8FE834B00221A70774B5B7A002BD2
:4052400000D0DFE07F4B1B78002B00D0DAE0002001F0F0FE03001A00794B1A70784B1A78794B1B789A4200D1C8E0754B1B78012B09D003DC002B00D198E0BFE0022B33D0A8
:40528000032B62D0BAE0FB1D1B78002B06D167496E4B0922180009F099F905E063496B4B0D22180009F092F908F048FB684B5B791D00674B1B791E00654B9B791A00644B2E
:4052C0009B781C00624B5B786249634802930194009233002A0013F0A9FA5F4A5F4B110018000AF0DDFE89E0FB1D1B78002B06D14E49564B0A22180009F068F905E04B4934
:40530000524B0E22180009F061F908F02DFB504B5B791D004E4B1B791E004D4B9B791A004B4B9B781C004A4B5B784D494A4802930194009233002A0013F078FA464A474B73
:40534000110018000AF0ACFE58E0FB1D1B78002B06D136493D4B0A22180009F037F905E032493A4B0E22180009F030F908F020FB374B5B791D00364B1B791E00344B9B796C
:405380001A00334B9B781C00314B5B783549324802930194009233002A0013F047FA2E4A2E4B110018000AF07BFE27E02E4B1B78002B11D1FB1D1B78002B06D11B49234B56
:4053C0000B22180009F002F917E018491F4B0F22180009F0FBF810E0FB1D1B78002B06D112491A4B0822180009F0F0F805E00F49164B0C22180009F0E9F8C046104B1A784C
:40540000114B1A70184B1B78002B31D0174B0021180009F0AFF832E0F836002020B70200E8B60200483500209438002024B7020028B70200F0F1FFFFA4B70200581D002038
:40544000643500205B1D00205A1D00202CB7020088340020B4B70200EC370020B0340020DCB7020004B802000C0C0020ECB60200974B0121180009F07DF808F0C9FA954B7B
:405480001B78002B4BD12E23FB181B78002B46D0914B1B78002B1CD19049914B0522180009F094F8FB1D1B78002B06D18B498D4B0B22180009F08AF805E08849894B0F2206
:4054C000180009F083F8C8200BF0AEFE08F0A0FA25E0854B1B78002B07D0834B1B78002B09D0824B9B7A002B05D17C497C4B0722180009F06BF8FB1D1B78002B06D17749B7
:40550000784B0822180009F061F805E07349754B0C22180009F05AF8C8200BF085FE6E4B1A78734B1A702F23FB181B78002B00D111E1704B5B7A022B37D16F4B002118008B
:4055400009F018F86D4B0121180009F013F8FB1D1B78002B06D16149624B0B22180009F035F805E05D495F4B0F22180009F02EF8C8200BF059FE08F04BFAFB1D1B780022DC
:405580000821002009F0EEFD09F0D0FD1023FB185B4A03CA03C312881A801023FA18574B1100180009F0E4F8C1E0524B5B7A202B50D1544B00221A704F4B0021180008F0CC
:4055C000D9FF4E4B0121180008F0D4FF494BDB7E102B13D14C4B00221A70FB1D1B78002B06D13E493F4B1122180008F0EFFF05E03A493C4B1222180008F0E8FF3D4BDB7EFC
:40560000202B13D1414B00221A70FB1D1B78002B06D13249334B1322180008F0D7FF05E02E49304B1422180008F0D0FFC8200BF0FBFD1023FB18364A13CA13C31023FA18BD
:405640002E4B1100180009F093F82A4BDA7E314B1A706CE0274B5B7A002B68D11D4B1B78002B64D1204B1B78002B25D01F4B9B7A002B21D02C23FC1809F036FA0300237004
:405680001A4B5B7A002B06D12C23FB181B78DB08DBB2012B0AD0154B5B7A002B0CD02C23FB181B78DB08DBB2002B05D10B491A4B0522180008F08AFFFB1D1B78002B2DD154
:4056C0000649084B0822180008F080FF2CE0C046ECB60200643500200C0C002024B70200280F00202CB702004835002094380020591D0020F836002020B70200E8B60200A9
:4057000030B702005C1D00205D1D00205E1D00202CB802005F1D002028B702005549564B0C22180008F052FFC8200BF07DFD534BDA7E534B1B789A420DD0504BDB7E122B13
:4057400002D1504B01221A704C4BDB7E2C2B02D14D4B01221A704B4B1B78002B0FD04B4B1B78082B05D9474B00221A70002008F09BFC464B1B780133DAB2444B1A70424BCB
:405780001B78002B0FD0414B1B78082B05D93E4B00221A70002008F0D1FC3C4B1B780133DAB23A4B1A70354B5B7A002B07D0334B5B7A102B03D0314B5B7A042B52D12F4B44
:4057C0001A790C23FB18DA702C4B5A790C23FB189A702A4B9A790C23FB185A70274BDA790C23FB181A700C23F9180823FB180422180012F094FB2B23FB18204A2D21525CBB
:405800001A70234B0121180008F0B4FEBB68181C12F04CFA04000D002B23FB181B78180012F00CFA02000B0000201A490EF0A2F802000B002000290011F09AFB03000C00A5
:405840001800210012F082F901002B23FB181A780F4B180008F032FF084B5A7A0E4B1A70C04603E0054B5A7A0B4B1A70BD460DB0F0BDC04624B702002CB70200F836002069
:405880005F1D00205D1D00205E1D00205C1D002020B7020000002440581D002080B500AFAD4B1B78002B00D053E1AC4B1B78002B00D04EE1AA4B1B78002B00D049E1A94BB9
:4058C0005B7A402B07D1A84B1B7801220221002009F048FC3DE1A34B5B7A102B07D1A24B1B7801220421002009F03CFC31E19D4B5B7A042B07D19C4B1B78012201210020A5
:4059000009F030FC25E1974B5B7A202B00D098E0944BDB7E103B1D2B00D919E19A00934BD3181B689F46904B1B7801220721002009F018FC84E08E4B1B78002B07D08A4BFC
:405940001B7800220521002009F00CFC78E0864B1B7800220021002009F004FC70E0844B1B78002B07D0804B1B7800220821002009F0F8FB64E07C4B1B78002200210020A9
:4059800009F0F0FB5CE0784B1B7800220521002009F0E8FB54E0744B1B7800220521002009F0E0FB4CE0704B1B7800220521002009F0D8FB44E06C4B1B78012205210020E6
:4059C00009F0D0FB3CE06A4B1B78002B07D0664B1B7800220821002009F0C4FB30E0624B1B7800220021002009F0BCFB28E0604B1B78002B07D05C4B1B78002205210020C9
:405A000009F0B0FB1CE0584B1B7800220021002009F0A8FB14E0564B1B78002B07D0524B1B7800220821002009F09CFB08E04E4B1B7800220021002009F094FB00E0C04657
:405A400086E04C4B1B78052B00D982E09A004A4BD3181B689F46494B1B78002B17D0484B1B680021181C0FF071FC031E07D03E4B1B7801220421002009F074FB69E03A4BE7
:405A80001B7800220221002009F06CFB61E03D4B1B78002B07D1344B1B7800220421002009F060FB55E0304B1B7800220021002009F058FB4DE0334B1B78002B07D12A4BBA
:405AC0001B7800220321002009F04CFB41E0264B1B7800220021002009F044FB39E0294B1B78002B07D1204B1B7800220121002009F038FB2DE01C4B1B7800220021002092
:405B000009F030FB25E0184B1B7800220121002009F028FB1DE0144B1B7800220421002009F020FB15E0174B1B78002B07D10E4B1B7800220821002009F014FB09E00A4BD2
:405B40001B7800220021002009F00CFBC04600E0C046BD4680BDC046E8370020AF34002061350020F8360020141D002038B80200301D002064350020B0B802000C0C0020AC
:405B800058350020311D002080B500AFAF4B1B78002B00D058E1AE4B1B78002B00D053E1AC4B1B78002B00D04EE1AB4B81229B5C402B07D1A94B1B7801220221012009F0FC
:405BC000D1FA41E1A44B81229B5C102B07D1A34B1B7801220421012009F0C4FA34E19E4B81229B5C042B07D19C4B1B7801220121012009F0B7FA27E1974B81229B5C202B83
:405C000000D099E0944B93229B5C103B1D2B00D919E19A00924BD3181B689F468F4B1B7801220721012009F09DFA84E08D4B1B78002B07D0894B1B7800220521012009F05D
:405C400091FA78E0854B1B7800220021012009F089FA70E0834B1B78002B07D07F4B1B7800220821012009F07DFA64E07B4B1B7800220021012009F075FA5CE0774B1B7818
:405C800000220521012009F06DFA54E0734B1B7800220521012009F065FA4CE06F4B1B7800220521012009F05DFA44E06B4B1B7801220521012009F055FA3CE0694B1B7821
:405CC000002B07D0654B1B7800220821012009F049FA30E0614B1B7800220021012009F041FA28E05F4B1B78002B07D05B4B1B7800220521012009F035FA1CE0574B1B788E
:405D000000220021012009F02DFA14E0554B1B78002B07D0514B1B7800220821012009F021FA08E04D4B1B7800220021012009F019FA00E0C04686E04B4B5B78052B00D9C6
:405D400082E09A00494BD3181B689F46484B1B78002B17D0474B5B680021181C0FF0F6FA031E07D03D4B1B7801220421012009F0F9F969E0394B1B7800220221012009F049
:405D8000F1F961E03C4B1B78002B07D1334B1B7800220421012009F0E5F955E02F4B1B7800220021012009F0DDF94DE0324B1B78002B07D1294B1B7800220321012009F02F
:405DC000D1F941E0254B1B7800220021012009F0C9F939E0284B1B78002B07D11F4B1B7800220121012009F0BDF92DE01B4B1B7800220021012009F0B5F925E0174B1B7858
:405E000000220121012009F0ADF91DE0134B1B7800220421012009F0A5F915E0164B1B78002B07D10D4B1B7800220821012009F099F909E0094B1B7800220021012009F076
:405E400091F9C04600E0C046BD4680BDE8370020AF34002061350020F8360020141D0020C8B80200301D00206435002040B902000D0C002058350020311D0020F0B593B0F6
:405E800004AF0200FB1D1A703723FB1800221A703623FB1800221A703523FB1800221A70B34B81229A5CB34B1B789A4203D03723FB1801221A700DF0E1FA03001A00AE4B64
:405EC0001A70AE4B1A78AC4B1B789A4203D03623FB1801221A703723FB181B78002B04D1FB1D1B78002B00D194E1FB1D1B78002B02D0A34B00221A709D4B81229B5C082B28
:405F000005D09B4B81229B5C022B00D0C2E0984B81229B5C022B03D19A4B05225A7002E0984B04225A70984B08225A70974B1B7800220421012009F015F9954B0021180090
:405F400008F018FB934B0121180008F013FB9249924B0522180008F039FB8F49904B0F22180008F033FBC8200BF05EF907F050FD7F4B81229B5C022B24D11423FB18894A92
:405F800003CA03C312881A80874B5B791D00864B1B791E00844B9B791A00834B9B781C00814B5B788149824802930194009233002A0012F03BFC7E4A7E4B110018000AF0A1
:405FC0006FF84DE06A4B81229B5C082B24D11423FB18794A03CA03C312881A80724B5B791D00714B1B791E006F4B9B791A006E4B9B781C006C4B5B7870496D4802930194B4
:40600000009233002A0012F011FC694A694B110018000AF045F823E01423FB18684A1168196092889A80604B5B791D005E4B1B791E005D4B9B791A005B4B9B781C005A4B2F
:406040005B785E495A4802930194009233002A0012F0ECFB564A574B110018000AF020F81423FA184B4B1100180008F081FB404B81229A5C3F4B1A70524B6C220021995498
:40608000504B7822002199544E4B84220021995400F0B7FB364B81229B5C402B2CD13B4B1B7801220221012009F05CF8384B0021180008F05FFA374B0121180008F05AFA49
:4060C0003549364B0622180008F080FA3249344B0C22180008F07AFAC8200BF0A5F8394B6C2200219954374B782200219954354B8422002199548DE01D4B81229B5C042BA7
:4061000008D1214B08225A7007F082FC0120FAF789FF7FE0164B81229B5C102B56D11A4B08225A70174B04225A70184B1B7801220421012009F016F8154B0121180008F0B8
:4061400019FA214B0021180008F014FA1249134B0522180008F03AFA0F49114B0F22180008F034FAC8200BF05FF807F051FC51E0F8360020601D00200D0C0020611D0020A9
:40618000621D002064350020341D0020141D002058B902005CB9020024B7020060B9020064B9020030B702008834002068B90200EC370020B034002068B7020094B90200E5
:4061C0009CB70200B8340020E8B60200BE4B81229B5C002B1ED1BD4B0121180008F0CAF9BB4B0021180008F0C5F9BA4B1B78002B07D0B84B1B78002B09D0B74B9B7A002B79
:4062000005D1B649B64B0722180008F0DFF90120FAF708FFAC4B81229B5C402B49D1B14B1B7801220221012008F09CFFA64BC0229B5C9BB21B029BB21900A34BC1229B5C5D
:40624000CB18FB62FA6AE123190110000EF0B8FE03001A002A23FB181A802A23FB181C882A23FB181B88A04A53431A00FB6AD3183C2118000EF0A4FE03001D00FB6A3C2199
:4062800018000EF023FF0B0098491422B81800932B00220012F0CAFA1423FA188C4B1100180008F065FA884B81229A5C904B1A70A7E2854BB8229B5C002B1CD1824BB922B3
:4062C0009B5C002B17D1804BBA229B5C002B12D17D4BBB229B5C002B0DD17B4BBC229B5C002B08D1784BBD229B5C002B03D1814B01221A7009E07F4B1B78002B02D001202F
:40630000FAF790FE7B4B00221A706F4B81229B5C002B00D0A8E0774B1B78002B00D0A3E0012000F087FE03001A00734B5A70724B5A78724B1B789A4200D191E06E4B5B78FE
:40634000012B09D003DC002B00D177E088E0022B28D0032B4CD083E06049694B0D22180008F034F907F0EAFA664B5B791D00654B1B791E00634B9B791A00624B9B781C004C
:40638000604B5B786049614802930194009233002A0012F04BFA5D4A5D4B1100180009F07FFE5DE04D49564B0E22180008F00EF907F0DAFA534B5B791D00524B1B791E005B
:4063C000504B9B791A004F4B9B781C004D4B5B7850494E4802930194009233002A0012F025FA4A4A4A4B1100180009F059FE37E03A49434B0E22180008F0E8F807F0D8FA84
:40640000404B5B791D003F4B1B791E003D4B9B791A003C4B9B781C003A4B5B783E493B4802930194009233002A0012F0FFF9374A374B1100180009F033FE11E0374B1B7867
:40644000002B06D125492E4B0F22180008F0BEF805E022492A4B0C22180008F0B7F8C046254B5A78254B1A702C4B1B78002B05D02B4B0021180008F07DF806E0284B0121A7
:40648000180008F077F807F0C3FA1B4B5B78002B65D13623FB181B78002B60D01F4B1B78002B41D10D491F4B0522180008F08EF80A49134B0F22180008F088F8C8200AF0AA
:4064C000B3FE07F0A5FA4AE0F836002058B902005CB90200483500209438002024B7020060B90200141D0020F0F1FFFFA4B70200601D0020631D002064350020621D002010
:4065000064B9020088340020BCB90200EC370020B0340020E4B902000CBA02000D0C0020F0B60200320F0020B74B1B78002B07D0B54B1B78002B09D0B44B9B7A002B05D1B6
:40654000B349B44B0722180008F040F8B049B24B0C22180008F03AF8C8200AF065FEAF4B1A78AF4B1A703723FB181B78002B00D1B3E0AC4B81229B5C022B23D1AA4B00219D
:40658000180007F0F7FFA94B0121180007F0F2FF9F49A74B0F22180008F018F8C8200AF043FE07F035FA1423FB18A24A03CA03C312881A801423FA189C4B1100180008F0FE
:4065C000D7F873E0974B81229B5C202B32D19A4B00221A70944B0021180007F0CBFF934B0121180007F0C6FF8E4B93229B5C102B05D18749884B1222180007F0E7FF894B3B
:4066000093229B5C202B05D18149834B1422180007F0DCFFC8200AF007FE1423FB18874A13CA13C31423FA18804B1100180008F09FF83BE07B4B81229B5C002B36D1804BDC
:406640005B78002B32D17249734B0C22180007F0BDFF6D4B1B78002B25D06C4B9B7A002B21D03423FC1808F03FFA03002370674B5B7A002B06D13423FB181B78DB08DBB22C
:40668000012B0AD0614B5B7A002B0CD03423FB181B78DB08DBB2002B05D15D49694B0522180007F093FFC8200AF0BEFD5D4B93229A5C654B1B789A420FD05A4B93229B5C7D
:4066C000122B02D1614B01221A70564B93229B5C2C2B02D15E4B01221A705C4B1B78002B0FD0554B1B78082B05D9584B00221A70012007F0D9FC504B1B780133DAB24E4B19
:406700001A70534B1B78002B0FD04B4B1B78082B05D94F4B00221A70012007F00FFD464B1B780133DAB2444B1A703E4B81229B5C002B09D03B4B81229B5C102B04D0394B19
:4067400081229B5C042B57D1364B7C229A5C1023FB18DA70334B7D229A5C1023FB189A70304B7E229A5C1023FB185A702D4B7F229A5C1023FB181A701023F9180C23FB189A
:406780000422180011F0CBFB3323FB18254AA521525C1A70244B0121180007F0EBFEFB68181C11F083FA04000D003323FB181B78180011F043FA02000B00002025490DF065
:4067C000D9F802000B002000290010F0D1FB03000C001800210011F0B9F901003323FB181A78114B180007F069FF0E4B81229A5C194B1A70C04604E00A4B81229A5C164BC3
:406800001A70BD460FB0F0BD483500209438002024B70200320F002064B902000D0C0020611D0020F836002058B902005CB902002CB7020030B70200641D00202CB80200D5
:406840006435002060B90200651D0020661D0020671D002000002440601D002080B500AFBB4B5B78002B19D1BA4B24229B5C002B14D1B84B6C229B5C002B0FD107F0DEF8D6
:40688000B54B1B7801229343DAB2B34B1A70B24B5B7801229343DAB2AF4B5A70AC4B1B79002B19D1AB4B30229B5C002B14D1A94B78229B5C002B0FD107F0D6F8A64B1B7857
:4068C00002229343DAB2A44B1A70A34B5B7802229343DAB2A04B5A709D4BDB79002B19D19C4B3C229B5C002B14D19A4B84229B5C002B0FD107F0CEF8974B1B780422934345
:40690000DAB2954B1A70944B5B7804229343DAB2914B5A708E4B9B7A002B29D18F4B5B7A002B03D08D4B5B7A402B21D18B4B81229B5C002B04D0894B81229B5C402B17D187
:40694000874B1B78002B13D0864B1B78002B0FD007F0B6F8804B1B7808229343DAB27E4B1A707D4B5B7808229343DAB27A4B5A707D4B1B78002B00D1E6E07B4B00221A700F
:40698000744B3E229B5C002B09D0784B1A68714B9B6B191C101C0EF0D9FC031E0ED16D4B3E229B5C002B29D1704B1A68694B9B6B191C101C0EF0DEFC031E1FD0654B8622B6
:4069C0009B5C002B09D0694B5868624B80229B58191C0EF0BBFC031E0ED15E4B86229B5C002B0BD1614B58685A4B80229B58191C0EF0C0FC031E01D007F04CF8554B3222F7
:406A00009B5C002B09D0594B1A68524BDB6A191C101C0EF09BFC031E0ED14E4B32229B5C002B29D1514B1A684A4BDB6A191C101C0EF0A0FC031E1FD0464B7A229B5C002B02
:406A400009D04A4B5A68434B5B6F191C101C0EF07DFC031E0ED13F4B7A229B5C002B0BD1424B5A683B4B5B6F191C101C0EF082FC031E01D006F0F8FF364B26229B5C002B4C
:406A800009D03A4B1A68334B1B6A191C101C0EF05DFC031E0ED12F4B26229B5C002B29D1324B1A682B4B1B6A191C101C0EF062FC031E1FD0274B6E229B5C002B09D02B4B23
:406AC0005A68244B9B6E191C101C0EF03FFC031E0ED1204B6E229B5C002B0BD1234B5A681C4B9B6E191C101C0EF044FC031E01D006F0A4FF194B5B7A002B03D0174B5B7A91
:406B0000402B21D1154B81229B5C002B04D0134B81229B5C402B17D1114B1B78002B13D0104B1B78002B0FD006F0CAFF0A4B1B7808229343DAB2084B1A70074B5B78082260
:406B40009343DAB2044B5A70C046BD4680BDC04694380020B8340020341D0020F83600200C0C00200D0C00208534002058350020B0B58EB002AF0200FB1D1A70FB1D1B78FD
:406B8000002B2BD0E64B81229B5C002B0DD1E54B1B78002B09D0E44B0021180007F0EAFCE24B0121180007F0E5FCDD4B81229B5C402B09D0DA4B81229B5C202B04D0D84B89
:406BC00081229B5C082B09D1D84B0021180007F0D1FCD54B0121180007F0CCFCD04B5B7A002B0DD1D24B1B78002B09D0D14B0021180007F0BFFCD04B0121180007F0BAFCFF
:406C0000C74B5B7A402B07D0C54B5B7A202B03D0C34B5B7A082B09D1C74B0021180007F0A9FCC44B0121180007F0A4FCC04B1B78002B0DD10C23FB18C04A03CA03C3127861
:406C40001A700C23FA18BB4B1100180007F090FDB34B5B7A002B50D1B54B1B78002B4CD0AF4B1A792023FB18DA70AD4B5A792023FB189A70AA4B9A792023FB185A70A84B2A
:406C8000DA792023FB181A702023F918AC4B0422180011F044F92F23FB18A14A2D21525C1A70A54B0121180007F064FCA44B1B68181C10F0FBFF04000D002F23FB181B78DA
:406CC000180010F0BBFF02000B0000209D490CF051FE02000B002000290010F049F903000C001800210010F031FF01002F23FB181A78914B180007F0E1FC894B5B7A082BB8
:406D00000DD10C23FB18904A03CA03C312881A800C23FA18874B1100180007F029FD804B5B7A202B0BD10C23FB18884A13CA13C30C23FA187F4B1100180007F019FD784BA7
:406D40005B7A022B0DD10C23FB18814A03CA03C312881A800C23FA18764B1100180007F007FD6F4B5B7A402B3CD16D4B48229B5C9BB21B029BB21900694B49229B5CCB1850
:406D8000BB62BA6AE123190110000EF019F903001A002723FB181A702723FB181C782723FB181B786B4A53431A00BB6AD3183C2118000EF005F903001D00BB6A3C211800CF
:406DC0000EF084F90B0064490C22B81800932B00220011F02BFD0C23FA18564B1100180007F0C6FC4E4B5A7A5C4B1A70FB1D1B78002B00D108E14B4B1B78002B0DD10C2306
:406E0000FB184E4A03CA03C312781A700C23FA18454B1100180007F0ABFC414B81229B5C002B54D13F4B1B78002B50D03C4B7C229A5C2023FB18DA70394B7D229A5C202373
:406E4000FB189A70364B7E229A5C2023FB185A70334B7F229A5C2023FB181A702023F9183F4B0422180011F05AF82623FB182C4AA521525C1A702D4B0121180007F07AFB6C
:406E8000374B1B68181C10F011FF04000D002623FB181B78180010F0D1FE02000B00002028490CF067FD02000B002000290010F05FF803000C001800210010F047FE010069
:406EC0002623FB181A78194B180007F0F7FB144B81229B5C082B0DD10C23FB181A4A03CA03C312881A800C23FA180F4B1100180007F03EFC0A4B81229B5C202B0BD10C238E
:406F0000FB18124A13CA13C30C23FA18064B1100180007F02DFC024B81229B5C22E0C046F83600200D0C00205CB9020058B902000C0C0020E8B6020020B7020034BA020013
:406F4000681D00200000244068B702002CB8020030B70200F0F1FFFFA4B702006C1D0020701D0020022B0DD10C23FB182B4A03CA03C312881A800C23FA18294B110018001F
:406F800007F0F6FB274B81229B5C402B3CD1254BC0229B5C9BB21B029BB21900214BC1229B5CCB18BB62BA6AE123190110000EF007F803001A002423FB181A802423FB184C
:406FC0001C882423FB181B88174A53431A00BB6AD3183C2118000DF0F3FF03001D00BB6A3C2118000EF072F80B0010490C22B81800932B00220011F019FC0C23FA18084B5D
:407000001100180007F0B4FB064B81229A5C084B5A70C046BD460CB0B0BDC04630B702005CB90200F8360020F0F1FFFFA4B702006C1D002080B584B000AF0200FB1D1A7053
:40704000FB1D1A78D74913001B019B1ADB00CB1804331A780C23FB18DA70FB1D1A78D14913001B019B1ADB00CB1805331A780C23FB189A70FB1D1A78CA4913001B019B1A32
:40708000DB00CB1806331A780C23FB185A70FB1D1A78C44913001B019B1ADB00CB1807331A780C23FB181A70FB1D1B789A00BE4BD3180C22B9180422180010F030FFFB1D8D
:4070C0001A78B94B9200D3580021181C0EF03EF9031E01D00723B0E2FB1D1A78B3493E201300DB009B18DB00CB181B181B78002B13D0FB1D1A78AC4B9200D058FB1D1A78C9
:40710000AA491300DB009B18DB00CB1838331B68191C0EF039F9031E20D1FB1D1A78A3493E201300DB009B18DB00CB181B181B78002B5AD1FB1D1A789B4B9200D058FB1DC7
:407140001A789A491300DB009B18DB00CB1838331B68191C0EF004F9031E46D0FB1D1A7892493C201300DB009B18DB00CB181B181B78002B1ED1FB1D1A788C493C201300D8
:40718000DB009B18DB00CB181B1801221A70884B01221A70874B04221A70FB1D1A7813009B009B185B00844A9B1884490422180007F00CFA7E4B1B78002B14D1804B1B78E8
:4071C000002B10D07F4B1B7A002B0CD0FB1D1A7813009B009B185B00774A9B1877490722180007F0F3F9032327E2764BDB79002B0CD1FB1D1A786D493C201300DB009B18B7
:40720000DB00CB181B181B78002B07D16D4BDB79002B1CD06C4B1B78002B18D0FB1D1A7862493C201300DB009B18DB00CB181B1800221A70FB1D1A7813009B009B185B00F2
