:400000000080002011000000110201001102010080B500AF10F030F980B500AF374B12221A6011F089FA364B180013F045FA012011F092FA302010F0A9FE324B324A1A604F
:40004000324B8022D2051A60314B314A126802210A431A602F4B304A1A60304B00221A602F4B2F4A126808218A431A60FA23DB00180010F07DFF2B4B180011F0D5F82A4BF6
:40008000CC2292011A60294B294A1A60294B2A4A1A60264B294A1A60294B2A4A1A60234B294A1A60294BE82252011A601F4B284A1A60284B802212061A60274B8022D20237
:4000C0001A60264B41221A60254B43221A60254B43221A60244B43221A60244B43221A60234B42221A60234B40221A60074B8022D2051A60C046BD4680BDC0463000104057
:40010000001BB70004010B40060000800C020B4078002E407C002E405555000064F02E406CF02E40DC050000040301400000014041FF00800C030140007FBB0043FF008042
:400140000803014000F3010042FF00800003014040FF008008010B4000010B402C0101402801014024010140200101401C010140080101400401014080B586B000AF72B60B
:40018000764B00221A60764B01221A701723FB1800221A7025E01723FB181A7813005B009B185B006F4A9B183B613B691A78597809020A43997809040A43DB781B0613437F
:4001C00018003B691A795B791B0213439BB219000FF0A8FF1723FB181A781723FB1801321A701723FB181B78022BD4D91723FB1800221A7036E01723FB181A7813009B001E
:400200009B185B00584A9B18FB60FB681A78597809020A43997809040A43DB781B061343BB60FB681A79597909020A43997909040A43DB791B0613437B60BA1CFB68197A94
:400240005B7A1B020B431380BB1C1A887968BB6818000FF077FF1723FB181A781723FB1801321A701723FB181B78002BC3D03F4A3F4B110018000FF075FF3E4B80225200EE
:400280001A803D4B01221A703C4B3D4A1A603D4BC02292031A603C4B09221A603B4B992212041A603A4B992212041A60394B992212041A60384B394A1A60394B8022920496
:4002C0001A60384B8022D2041A60374B18221A60364B18221A60364A354B1B78DBB23C218B43DBB214210B43DBB21370314A314B1B78DBB216210B43DBB213702E4B3222C0
:400300001A602E4B2E4A1A602E4B02221A602E4B31221A602D4B2E4A1A602E4BF02212011A602D4B06221A602C4B2D4A1A602D4B3C221A602C4B20221A602C4B2C4A1A608D
:400340002C4B01221A602C4B02221A60FFF764FE0FF04AFFC046BD4606B080BD6CF02E401C700F4000C3020014C3020040C3020020C3020000600F4002600F4000000240E9
:400380009000EEEE000302400005024000500F4010500F4020500F4030500F400400990034500F4038500F402000104000800F4001700F4000700F400000044008000440D4
:4003C000B04DDA00180004400001044008010440C12001000C0104400002044008020440901218000C02044000030440080304400110DB00080504400C05044010B5064C26
:400400002378002B07D1054B002B02D0044800E000BF0123237010BDE01C00200000000060B50200084B10B5002B03D00749084800E000BF07480368002B00D110BD064B06
:40044000002BFBD09847F9E700000000E41C002060B50200000C00200000000090B583B000AF002010F064FF584B180010F050FF10F0EEFE564B1900002010F089FF11F061
:40048000C5FC544B180011F0D3FC12F075FE524B180012F083FE0FF08DFF11F095F912F0D5FC4E4B180012F047FD62B6BC1D0E200EF03CFC030023707C1D10200EF036FC7F
:4004C0000300237002F090FC002011F02DF912F009FC434B180012F017FC0EF08DFC0FF0B1F90EF035FB0EF0B9F8FB1D00221A701AE03C4B1B78002B06D100230022022190
:4005000000200EF01BFE05E000230022002100200EF014FE0EF0F6FD322010F05FFEFB1D1A78FB1D01321A70FB1D1B78632BE0D900F050FB11F0AAFA2B4B180011F004FC89
:40054000002004F0A3F9294B1B78DBB2102BFAD89A00274BD3181B689F4604F0ADF933E004F0E4F930E004F0E1F92DE0002007F005FC29E0012007F001FC25E0002007F010
:40058000E5FD21E0012007F0E1FD1DE008F0D0FC1AE008F07FFE17E00AF00CFB14E00BF085FC11E00CF05CF80EE00CF0B1F90BE009F0F2FF08E009F033FB05E00CF09AFB9B
:4005C00002E00CF0ADFDC046BDE7C046FF7F0000350800000D07000089070000F505000005080000301D00201D060000E831002070B5020080B582B000AF074B01221A7058
:4006000012F082FC03007B607B68180012F086FCC046BD4602B080BDEA31002090B583B000AF002012F012FB12F0E4FA304B1B78002B05D02E4B00221A702E4B00221A701C
:400640002C4B1B785A1CD1B22A4A11701C0011F01DFB0300DAB2284B1A55002012F008FC12F0F4FB254B1B78DBB2002B0ED0234B00221A701F4B00221A70214B01221A70E3
:40068000FA235B00180010F0A9FD26E0194B1B78022B22D9184B5B78062B03D0102B09D0032B13D1134B1B78072B13D9144B01221A700FE00F4B1B781A000F4B9B790933C4
:4006C0009A4209DB0E4B01221A7005E0094B00221A7002E0C04600E0C0460A4B1B687B60094B7A681A60C046BD4603B090BDC046EA310020111D0020F0310020EC31002008
:40070000121D0020CC0F2540C00F254090B583B000AFFC1D10F0C8FF03002370BC1D10F0B5FF03002370FB1D1B78012B07D1124B01221A70114B00221A7012F099FCFB1DC6
:400740001B78022B07D10E4B01221A700B4B00221A7012F08DFCBB1D1B78032B02D1074B01221A70074B00221A7012F043FAC046BD4603B090BDC046D03700206C340020B0
:4007800097340020EC31002090B583B000AFFC1D12F076FD03002370BC1D12F063FD03002370FB1D1B78012B07D1124B01221A70114B00221A7012F05BFCFB1D1B78022B03
:4007C00007D10E4B01221A700B4B00221A7012F04FFCBB1D1B78032B02D1074B01221A70074B00221A7012F005FAC046BD4603B090BDC046923400208034002049350020FB
:40080000EC31002090B583B000AFFC1D10F04CFF03002370BC1D10F039FF0300237003F0A7FF034B01221A70C046BD4603B090BD4835002080B500AF184B1B685A1C174BD7
:400840001A60174B1B685A1C154B1A60144B1A68F423FF339A4209D9114B00221A60114B1B7801225340DAB20E4B1A700E4B1B685A1C0D4B1A600C4B1A68F423FF339A42B3
:4008800009D9094B00221A60084B1B7801225340DAB2064B1A70C046BD4680BDFC1C0020041D0020301D0020081D0020311D002090B585B000AF040008001100FB1D221CE8
:4008C0001A70BB1D021C1A703B1D0A1C1A800E23FA183B1D1B88DB1813801F4BFA1D12781A701D4BBA1D12785A700E23FB181B88DAB2194B9A700E23FB181B8805339AB29E
:400900000C23FC18144B1100180000F0E7F8030023800E23FB181B8803330C22BA181288120A92B2D1B20C4AD1540E23FB181B8804330C22BA181288D1B2074AD1540E2380
:40094000FB181B8805339BB2180000F085F8C046BD4605B090BDC046B8320020B0B584B000AF05000C0010001900FB1D2A1C1A70BB1D221C1A703B1D021C1A80BB1C0A1C85
:400980001A80334BFA1D12781A70314BBA1D12785A703B1D1B881B0A9BB2DAB22C4B9A703B1D1B88DAB22A4BDA70294B00221A71BB1C1B88DAB2264B5A710C23FC18244B78
:4009C0000821180000F08AF8030023800C23FB181B881B0A9BB2DAB21D4B9A710C23FB181B88DAB21A4BDA71012010F09DFE0F23FB1800221A700EE00F23FB181B78144A56
:400A0000D35C180011F082F80F23FB181A780F23FB1801321A700F23FB181B78072BEBD9C04611F089F801000A4B1A6880231B02134001D0012300E00023CB18002BF0D113
:400A4000002010F071FEC046BD4604B0B0BDC046B83200200802254080B584B000AF0200BB1D1A80012010F05FFE0A2010F0B6FB0E23FB1800221A800EE00E23FB181B8884
:400A8000144AD35C180011F041F80E23FB181A880E23FB1801321A800E23FA18BB1D12881B889A42E9D3C04611F046F801000A4B1A6880231B02134001D0012300E0002348
:400AC000CB18002BF0D1002010F02EFEC046BD4604B080BDB83200200802254080B586B000AF78600A00BB1C1A801623FB18012252421A800A23FB1800221A800823FB1824
:400B000000221A800023FB6000233B6134E03B697A68D3181B7899B21623FB181622BA1812884A401A800823FB601FE01623FB181B88012213400FD01623FB181622BA1826
:400B4000128852081A801623FB181622BA1812881F494A401A8006E01623FB181622BA18128852081A80FB68013BFB60FB68002BDCD13B6901333B61BB1C1B889A1E3B6922
:400B80009A42C4DC1623FB181B881A020A23FB181A800823FB181622BA181288120A1A800A23FB180A22B9180822BA18098812880A431A801623FB180A22BA1812881A8073
:400BC0001623FB181B881800BD4606B080BDC04601A0FFFF80B590B000AF012012F044FC642010F0FBFA0EF0FFFF03001A00AA4B1A70A94B1A78A94B1A700FF025F8030098
:400C00001A00A74B1A800FF0DBF803001A00A54B1A700DF0A9FE03001A00A34B1A700FF069F80200A14B1A6011F0E4FF11F0F4FF9E4B1B68180003F0A5FD11F0DBFF9C4BF1
:400C400000229A709A4BDC22DA70994B7A2200219954974B7B22DC2199549649964B0A22180017F011FE2023FB18944A03CA03C312781A70924BBB63924B0C2200211800F0
:400C800017F032F9002000F065FB0300082B31D0002000F0B3F900200CF082FD844B2E229B5C1B061900824B2F229B5C1B040B437F4A3021525C120213437D4A3121525C39
:400CC0001A43814B5A60814B0C220021180017F00BF97F4A7D4B1100180003F0A9FD7B4B180017F0B6FD02007849764B180017F0B7FD0EE0734B180017F0ABFD03001A0001
:400D0000704BD218734B1000190002231A0017F0E2F8644B1B78002B4BD0012000F01AFB0300082B45D0012000F068F901200CF037FD5F4BA6229B5C1B0619005C4BA72238
:400D40009B5C1B040B435A4AA821525C12021343574AA921525C1A435B4BDA645B4B0C220021180017F0C0F8564B180017F071FD03001A00534BD218574B100019000223A1
:400D80001A0017F0A8F8514B0C220021180017F0ABF8524A4D4B1100180003F049FD4B4B180017F056FD02004849464B180017F057FD4B4B18000FF02FF8494B1B78012B69
:400DC00002D9474B00221A70454BDB78012B02D9434B0022DA70424B9B79012B02D9404B00229A713E4B5B7A012B02D93C4B01225A723B4B5B78012B02D9394B00225A70EB
:400E0000374B1B79012B02D9354B00221A71344BDB79012B02D9324B0022DA71304B9B7A012B02D92E4B00229A722D4B9B78012B02D92B4B01229A70294B5B79012B02D9E2
:400E4000274B01225A71264B1B7A012B02D9244B01221A72224BDB7A012B02D9204B0122DA72F0200DF03CFD0CF02CFE1D4A1E4B110018000FF072F81C4B18000DF0E2FE1A
:400E80000FF0E0F803000133DAB2194B1A703F23FB1800221A704DE08B3400203C35002094340020141D0020303500200C380020E0360020B4B5020000380020D4B5020046
:400EC00056341200381D0020A0340020441D002012370020C0B50200C4B502008A3700207C380020B8330020843400207034002098340020384B1B781A003F23FB181B7891
:400F0000D3180A21180014F0A7F90B00D8B23F23FB181A7813009B009B18DB002F4A9B1819000FF0CDF83F23FB181A783F23FB1801321A703F23FB181B78092BDAD93B009B
:400F40001E220021180016F0CFFF3B00244A03CA03C3244B180017F07CFC020021493B00180017F07DFC3B00180011F00DFA2023FB181A000821062011F0BAFD1A4B0C223E
:400F80000021180016F0B0FF1849194B0622180017F07AFC144B1A000821062011F0A8FD144B1A000A21042011F0A2FD114B1A000A21052011F09CFD0C4B1A000C210220CB
:400FC00011F096FD0C4B1A000421032011F090FDC046BD4610B080BD9834002050350020C8B50200381D0020441D002020370020461D0020B4B50200D0B50200F0B583B046
:4010000000AF0200FB1D1A70FB1D1A78FB1D1978CD482E240B001B015B1ADB00C3181B191B781B061D00FB1D1978C7482F240B001B015B1ADB00C3181B191B781B04E81809
:40104000FB1D1978C04C30250B001B015B1ADB00E3185B191B781B02C018FB1D1978BA4C31250B001B015B1ADB00E3185B191B78C118B6481300DB009B18DB00C318043315
:401080001960FB1D1A78FB1D1978AF484A240B001B015B1ADB00C3181B191B789BB21B0298B2FB1D1978A84C4B250B001B015B1ADB00E3185B191B789BB2C31898B2A3494E
:4010C0001300DB009B18DB00CB181E33021C1A80FB1D1A78FB1D19789B484E240B001B015B1ADB00C3181B191B789BB21B0298B2FB1D1978944C4F250B001B015B1ADB009F
:40110000E3185B191B789BB2C31898B28F491300DB009B18DB00CB182833021C1A80FB1D1A78FB1D1978884852240B001B015B1ADB00C3181B191B789BB21B0298B2FB1D73
:401140001978814C53250B001B015B1ADB00E3185B191B789BB2C31898B27C491300DB009B18DB00CB183433021C1A80FB1D1A78FB1D197874484D240B001B015B1ADB0074
:40118000C3181B191C78714926201300DB009B18DB00CB181B18221C1A70FB1D1A78FB1D1978694851240B001B015B1ADB00C3181B191C78654932201300DB009B18DB0023
:4011C000CB181B18221C1A70FB1D1A78FB1D19785D4855240B001B015B1ADB00C3181B191C785A493E201300DB009B18DB00CB181B18221C1A70FB1D1C78FB1D1A78534939
:401200001300DB009B18DB00CB1804331B68180016F0F0FC05000E00FB1D1A784B491300DB009B18DB00CB181E331B88180016F09FFC0022464B15F053FA02000B002800F4
:40124000310015F071FE02000B001000190016F05DFD011C3D4A2300DB001B19DB00D31820331960FB1D1C78FB1D1A7837491300DB009B18DB00CB1804331B68180016F0BE
:40128000B9FC05000E00FB1D1A7830491300DB009B18DB00CB1828331B88180016F068FC00222B4B15F01CFA02000B002800310015F03AFE02000B001000190016F026FDAF
:4012C000011C224A2300DB001B19DB00D3182C331960FB1D1C78FB1D1A781C491300DB009B18DB00CB1804331B68180016F082FC05000E00FB1D1A7814491300DB009B186A
:40130000DB00CB1834331B88180016F031FC00220F4B15F0E5F902000B002800310015F003FE02000B001000190016F0EFFC011C064A2300DB001B19DB00D318383319605F
:40134000C046BD4603B0F0BDE0360020A03400200088C340B0B586B000AF0200FB1D1A70FB1D1A78B14913001B019B1ADB00CB18093300221A70FB1D1B7818000DF07CF8FF
:4013800061200CF083FF03007B617B69002B28D0FB1D1A78A54913001B019B1ADB00CB18093308221A70FB1D1B78A14A0821D154FB1D1B789F4A0021D15468200CF066FF77
:4013C00003007B617B69002B01D00DF085F80022FB1D1B78111C18000EF04AFB08237B611FE1FB1D1A78914913001B019B1ADB00CB18093300221A70FB1D1A788B491300B9
:401400001B019B1ADB00CB1804331A781023FB18DA70FB1D1A78854913001B019B1ADB00CB1805331A781023FB189A70FB1D1A787E4913001B019B1ADB00CB1806331A78B2
:401440001023FB185A70FB1D1A78784913001B019B1ADB00CB1807331A781023FB181A701023F9180823FB180422180016F033FDFB1D1A7813001B019B1ADB001A1D6B4B67
:40148000D3181A00742100200CF0B6FFFB1D1A78FB1D197865482E240B001B015B1ADB00C3181B191B781B061D00FB1D19785F482F240B001B015B1ADB00C3181B191B785C
:4014C0001B0428001843FB1D1978584C30250B001B015B1ADB00E3185B191B781B021843FB1D1978514C31250B001B015B1ADB00E3185B191B78010019434F481300DB00C0
:401500009B18DB00C31804331960FB1D1A78474913001B019B1ADB00CB1809331B78402B08D18122D205FB1D1B78111C18000EF09FFA3EE0FB1D1A783C4913001B019B1A71
:40154000DB00CB1809331B78202B08D18022D205FB1D1B78111C18000EF08AFA29E0FB1D1A78324913001B019B1ADB00CB1809331B78022B07D10022FB1D1B78111C180019
:401580000EF076FA15E0BC68FB1D1A782A491300DB009B18DB00CB1804331B68180014F035FD011C0022FB1D18780B1C211C0EF037FAFB1D1B78002B02D1BA681F4B1A60F7
:4015C000BB68181C14F0B8FC03001AB21C4B1A801C491D4B0422180016F07DFCFB1D1B78134AD35C082B1CD1FB1D1B78114AD25C0132D1B20F4AD154FB1D1B780D4AD35C92
:40160000142B0ED9FB1D1B780A4A0021D154FB1D1B78074A0021D154FB1D1B7818000CF0C3FD7B691800BD4606B0B0BDE0360020501D0020541D0020A0340020343500208B
:40164000BC330020023700208C34002090B583B000AF040008001100FB1D221C1A70BB1D021C1A703B1D0A1C1A80FB1D1B7818000CF002FF3B1D1A88BB1D1B7819006120A7
:401680000CF07EFEC046BD4603B090BD90B583B000AF040008001100FB1D221C1A70BB1D021C1A703B1D0A1C1A80FB1D1B7818000CF0E2FE3B1D1A88BB1D1B78190061204F
:4016C0000CF05EFEC046BD4603B090BDF0B591B004AFB24B1A78B24B1B789A4208D0AF4B1B78FE2B04D0AF4B00221A7001F043FBAC4B1B78023BA94AD35C9BB21B0299B220
:40170000A84B1B78013BA54AD35C9AB21C2308208446BC4463448A181A80A24B1B789AB21A2308217918CC189C4B11001800FFF7D5F9030023801A230822BA18D2181C23E6
:4017400008218C46BC44634412881B889A4204D0944B00221A7001F00EFB192308229446BC4463448D4A52781A708C4B1B78FE2B33D1192308229446BC4463441B78032B04
:4017800026D1864BDA78162308218C46BC4463441A80824B5A79142308218C46BC4463441A80814B0022DA707D4B1A787E4B1A71142308229446BC4463441A8819230821B8
:4017C0008C46BC4463441B781900FE20FFF770F8744B00221A7001F0CEFA704BDB781322082179188C186421180013F0C5FB030023706A4BDB786421180013F043FC0B009B
:40180000DAB2162308218C46BC4463441A80192308229446BC4463441B78032B01D000F0D8FC604B00221A705C4B5A79142308218C46BC4463441A80252308229446BC44DA
:40184000634403221A70242308229446BC446344142208218C46BC44624412881A700C2308229446BC446344504A12681A60082308229446BC4463444D4A12681A604D4BC4
:401880001B78002B13D14C4B5B7A082B07D1232308229446BC44634400221A701BE0232308229446BC44634401221A7013E0424B81229B5C082B07D1232308229446BC446A
:4018C000634401221A7006E0232308229446BC44634402221A70394B1B78002B0AD1374B5B78002B06D1122308229446BC44634400221A70314B1B78042B03D02F4B5B78B1
:40190000042B06D1122308229446BC44634404221A702A4B1B78012B03D0284B5B78012B06D1122308229446BC44634401221A70224B1B78022B03D0204B5B78022B06D1F2
:40194000122308229446BC44634402221A701B4B1B78032B03D0194B5B78032B06D1122308229446BC44634403221A70132308229446BC4463441B78002B00D0C5E31623C4
:4019800008229446BC4463441B880E2B00D9AAE39A000B4BD3181B689F46C046F03100208B340020111D0020B832002084340020B8330020141D0020E03600204C3500206E
:4019C00038B60200252308229446BC4463441B78252208218C46BC446244591C11701A00FA4B00219954252308229446BC4463441B78252208218C46BC446244591C1170C2
:401A00001A00F34BD978F14B9954242308229446BC446344242208218C46BC4462441278013A1A70242308229446BC4463441B78002B00D13CE3252308229446BC44634419
:401A40001B78252208218C46BC446244591C11701A00DE4B00219954252308229446BC4463441B78252208218C46BC446244591C11701900D54B232208208446BC4462442A
:401A800012785A54242308229446BC446344242208218C46BC4462441278013A1A70242308229446BC4463441B78002B00D101E3252308229446BC4463441B78252208216B
:401AC0008C46BC446244591C11701A00BF4B00219954252308229446BC4463441B78252208218C46BC446244591C11701A00B94B1978B64B9954242308229446BC44634453
:401B0000242208218C46BC4462441278013A1A70242308229446BC4463441B78002B00D1CAE2252308229446BC4463441B78252208218C46BC446244591C11701A00A64BD3
:401B40001B681B0AD9B2A14B9954252308229446BC4463441B78252208218C46BC446244591C11701A009C4B1B68D9B2974B9954242308229446BC446344242208218C46E4
:401B8000BC4462441278013A1A70242308229446BC4463441B78002B00D18FE2252308229446BC4463441B78252208218C46BC446244591C11701A00844B0021995425239B
:401BC00008229446BC4463441B78252208218C46BC446244591C11701A007C4B00219954242308229446BC446344242208218C46BC4462441278013A1A7024230822944667
:401C0000BC4463441B78002B00D159E2252308229446BC4463441B78252208218C46BC446244591C11701A000C2308218C46BC446344D978654B9954252308229446BC44AA
:401C400063441B78252208218C46BC446244591C11701A000C2308218C46BC44634499785A4B9954242308229446BC446344242208218C46BC4462441278013A1A7024234F
:401C800008229446BC4463441B78002B00D119E2252308229446BC4463441B78252208218C46BC446244591C11701A000C2308218C46BC4463445978444B995425230822E1
:401CC0009446BC4463441B78252208218C46BC446244591C11701A000C2308218C46BC4463441978394B9954242308229446BC446344242208218C46BC4462441278013A67
:401D00001A70242308229446BC4463441B78002B00D1D9E1252308229446BC4463441B78252208218C46BC446244591C11701A00082308218C46BC446344D978234B9954E7
:401D4000252308229446BC4463441B78252208218C46BC446244591C11701A00082308218C46BC4463449978184B9954242308229446BC446344242208218C46BC446244DE
:401D80001278013A1A70242308229446BC4463441B78002B00D199E1252308229446BC4463441B78252208218C46BC446244591C11701A00082308218C46BC4463445978BD
:401DC000024B99542523082208E0C046B8320020E03600208B3400200C3800209446BC4463441B78252208218C46BC446244591C11701A00082308218C46BC44634419785C
:401E0000C64B9954242308229446BC446344242208218C46BC4462441278013A1A70242308229446BC4463441B78002B00D14FE1252308229446BC4463441B7825220821D5
:401E40008C46BC446244591C11701A00B34B00219954252308229446BC4463441B78252208218C46BC446244591C11701A00AC4B1978AA4B9954242308229446BC446344F4
:401E8000242208218C46BC4462441278013A1A70242308229446BC4463441B78002B00D118E1252308229446BC4463441B78252208218C46BC446244591C11701A00974B12
:401EC00000219954252308229446BC4463441B78252208218C46BC446244591C11701A00904B59798D4B9954242308229446BC446344242208218C46BC4462441278013A46
:401F00001A70242308229446BC4463441B78002B00D1E1E0252308229446BC4463441B78252208218C46BC446244591C11701A007A4B00219954252308229446BC44634491
:401F40001B78252208218C46BC446244591C11701A00744B1979714B9954242308229446BC446344242208218C46BC4462441278013A1A70242308229446BC4463441B782F
:401F8000002B00D1AAE0252308229446BC4463441B78252208218C46BC446244591C11701A005E4B00219954252308229446BC4463441B78252208218C46BC446244591C83
:401FC00011701A00574B9979544B9954242308229446BC446344242208218C46BC4462441278013A1A70242308229446BC4463441B78002B00D173E0252308229446BC44BE
:4020000063441B78252208218C46BC446244591C11701A00414B00219954252308229446BC4463441B78252208218C46BC446244591C11701A003B4B9978384B9954242308
:4020400008229446BC446344242208218C46BC4462441278013A1A70242308229446BC4463441B78002B3DD0252308229446BC4463441B78252208218C46BC446244591CDF
:4020800011701A00254B00219954252308229446BC4463441B78252208218C46BC446244591C11701A001F4B59781C4B99541AE0C04618E0C04616E0C04614E0C04612E014
:4020C000C04610E0C0460EE0C0460CE0C0460AE0C04608E0C04606E0C04604E0C04602E0C04600E0C046104B1878142308229446BC4463441A88192308218C46BC4463442F
:402100001B781900FEF7D4FB63E0202308229446BC44634400221A803BE0C046B832002038350020703400208B340020202308229446BC4463441B88D91C13230822944627
:40214000BC4463441B785A1E162308208446BC4463441B880133580020230824A446BC4463441B88C018EE4C13001B019B1ADB00E3181A5CEB4B5A54202308229446BC449C
:4021800063441A88202308218C46BC44634401321A80202308229446BC4463441A88142308218C46BC4463441B885B009A42BDDBDD4B1878142308229446BC4463441A880D
:4021C000192308218C46BC4463441B781900FEF76FFB192308229446BC4463441B78062B01D000F007FDD14B00221A70D04B1A79262308218C46BC4463441A802623082218
:402200009446BC4463441B881B0299B2C84B5B799AB2262308208446BC4463448A181A80162308229446BC4463441B880B2B19D1132308229446BC4463441B78002B11D09A
:40224000132308229446BC4463441B78013BD8B2262308229446BC4463441B881A001421FFF7F4F9162308229446BC4463441B88242B00D081E0132308229446BC44634473
:402280001B78002B79D0132308229446BC4463441B78013BD8B2262308229446BC4463441B881A004621FFF7D1F9132308229446BC4463441B78013BDBB230221421180029
:4022C000FFF7C4F9132308229446BC4463441B785A1E98491300DB009B18DB00CB181E33262208218C46BC44624412881A80132308229446BC4463441B785C1E1323082243
:402300009446BC4463441B785A1E8A491300DB009B18DB00CB1804331B68180015F06AFC05000E00132308229446BC4463441B785A1E80491300DB009B18DB00CB181E332A
:402340001B88180015F014FC00227B4B14F0C8F902000B002800310014F0E6FD02000B001000190015F0D2FC011C724A2300DB001B19DB00D31820331960162308229446B0
:40238000BC4463441B88252B47D1132308229446BC4463441B78002B3FD0132308229446BC4463441B78013BD8B2262308229446BC4463441B881A004821FFF747F91323FD
:4023C00008229446BC4463441B78013BDBB2302214211800FFF73AF9132308229446BC4463441B785A1E132308218C46BC4463441B78591E4A484D240B001B015B1ADB00C6
:40240000C3181B191C784B4926201300DB009B18DB00CB181B18221C1A70162308229446BC4463441B88262B00D092E0132308229446BC4463441B78002B00D189E013239C
:4024400008229446BC4463441B78013BD8B2262308229446BC4463441B881A004A21FFF7F5F8132308229446BC4463441B78013BDBB2302214211800FFF7E8F81323082247
:402480009446BC4463441B785A1E2A491300DB009B18DB00CB182833262208218C46BC44624412881A80132308229446BC4463441B785C1E132308229446BC4463441B78E4
:4024C0005A1E1C491300DB009B18DB00CB1804331B68180015F08EFB05000E00132308229446BC4463441B785A1E12491300DB009B18DB00CB1828331B88180015F038FB39
:4025000000220D4B14F0ECF802000B002800310014F00AFD02000B00100019000EE0C046E0360020B83200208B340020111D0020F0310020A03400200088C34015F0E6FB8B
:40254000011CEB4A2300DB001B19DB00D3182C331960162308229446BC4463441B88272B47D1132308229446BC4463441B78002B3FD0132308229446BC4463441B78013BEA
:40258000D8B2262308229446BC4463441B881A004C21FFF75BF8132308229446BC4463441B78013BDBB2302214211800FFF74EF8132308229446BC4463441B785A1E1323F0
:4025C00008218C46BC4463441B78591EC9484D240B001B015B1ADB00C3181B191C78C44926201300DB009B18DB00CB181B18221C1A70162308229446BC4463441B88282B0C
:4026000000D081E0132308229446BC4463441B78002B79D0132308229446BC4463441B78013BD8B2262308229446BC4463441B881A004E21FFF70AF8132308229446BC44F5
:4026400063441B78013BDBB2302214211800FEF7FDFF132308229446BC4463441B785A1EA3491300DB009B18DB00CB183433262208218C46BC44624412881A8013230822AC
:402680009446BC4463441B785C1E132308229446BC4463441B785A1E95491300DB009B18DB00CB1804331B68180015F0A3FA05000E00132308229446BC4463441B785A1EF0
:4026C0008B491300DB009B18DB00CB1834331B88180015F04DFA0022874B14F001F802000B002800310014F01FFC02000B001000190015F00BFB011C7D4A2300DB001B196C
:40270000DB00D31838331960162308229446BC4463441B88292B47D1132308229446BC4463441B78002B3FD0132308229446BC4463441B78013BD8B2262308229446BC44C7
:4027400063441B881A005021FEF780FF132308229446BC4463441B78013BDBB2302214211800FEF773FF132308229446BC4463441B785A1E132308218C46BC4463441B7876
:40278000591E5C484D240B001B015B1ADB00C3181B191C78564926201300DB009B18DB00CB181B18221C1A70162308229446BC4463441B882B2B26D1132308229446BC4426
:4027C00063441B78002B1ED0132308229446BC4463441B78013BD8B2262308229446BC4463441B881A005421FEF730FF132308229446BC4463441B78013BDBB2302214213E
:402800001800FEF723FF162308229446BC4463441B882C2B26D1132308229446BC4463441B78002B1ED0132308229446BC4463441B78013BD8B2262308229446BC446344D9
:402840001B881A005621FEF701FF132308229446BC4463441B78013BDBB2302214211800FEF7F4FE162308229446BC4463441B880D2B56D1132308229446BC4463441B7812
:40288000002B1ED0132308229446BC4463441B78013BD8B2262308229446BC4463441B881A001821FEF7D2FE132308229446BC4463441B78013BDBB2302214211800FEF745
:4028C000C5FE0E4B5B791E000C4B1B797B600B4B9B791A00094B9B781C00084B5B781D0013210823FB185B181B7805490AE0C046A0340020E03600200088C340703400208B
:40290000E0B50200CE4803930295019400927B68320015F067FFCA4ACA4B110018000DF0A7FB162308229446BC4463441B880E2B4AD1132308229446BC4463441B78002BAB
:402940001ED0132308229446BC4463441B78013BD8B2262308229446BC4463441B881A001A21FEF773FE132308229446BC4463441B78013BDBB2302214211800FEF766FEA8
:40298000B14B5B791E00B04B1B797B60AE4B9B791A00AD4B9B781C00AB4B5B781D0013210823FB185B181B78A849A54803930295019400927B68320015F014FFA04AA14BDE
:4029C000110018000DF054FB132308229446BC4463441B78002B00D0F5E0162308229446BC4463441B88022B0DD1262308229446BC4463441B88DAB2954B1A70944B180008
:402A00000DF00CF9DFE0162308229446BC4463441B88032B34D1262308229446BC4463441B888C4A934206D8262308229446BC44634400221A80262308229446BC44634457
:402A40001A88854B1A60844B1B68844A9A429B415B42DBB21A00824B1A70262308229446BC4463441B8818000DF084F9262308229446BC4463441B88180001F083FEA2E02B
:402A8000162308229446BC4463441B880A2B1FD1262308229446BC4463441B880C2B00D95EE1262308229446BC4463441B88002B00D155E1262308229446BC4463441B8824
:402AC000DAB2614B5A71604B18000CF05BF87AE0162308229446BC4463441B880B2B16D1262308229446BC4463441B881F2B00D938E1262308229446BC4463441B88DAB2CD
:402B0000514B1A71504B18000CF03CF85BE0162308229446BC4463441B880C2B16D1262308229446BC4463441B88632B00D91BE1262308229446BC4463441B88DAB2424B01
:402B40009A71414B18000CF01DF83CE0162308229446BC4463441B880D2B16D1262308229446BC4463441B88172B00D9FEE0262308229446BC4463441B88DAB2324B9A7099
:402B8000314B18000BF0FEFF1DE0162308229446BC4463441B880E2B15D1262308229446BC4463441B883B2B00D9E1E0262308229446BC4463441B88DAB2234B5A70224B87
:402BC00018000BF0DFFF224B1878262308229446BC4463441C88162308229446BC4463441A88192308218C46BC44634419782300FDF7B4FE192308229446BC4463441B7817
:402C0000102B00D0B6E0174B00221A70132308229446BC4463441B78002B00D0AAE0162308229446BC4463441B88052B51D11F2308229446BC44634400221A7035E0C0465F
:402C4000D437002098340020703400200CB602008B3400200F2700000C3800201027000077340020111D00201F2308229446BC4463441B780322D31A1F2208218C46BC441E
:402C80006244127807323D49895C0C22BA18D1541F2308229446BC4463441A781F2308218C46BC44634401321A701F2308229446BC4463441B78032BD6D90C23F918304BE3
:402CC0000422180015F007F92D4B1B68181C0DF0C7F8162308229446BC4463441B88072B48D11E2308229446BC44634400221A7020E01E2308229446BC4463441B78032298
:402D0000D31A1E2208218C46BC446244127807321A49895C0C22BA18D1541E2308229446BC4463441A781E2308218C46BC44634401321A701E2308229446BC4463441B78F8
:402D4000032BD6D90C23F9180E4B0422180015F0C2F80C4B1B68181C0DF0B6F8C04609E0C04608E0C04606E0C04604E0C04602E0C04600E0C046BD460DB0F0BDF0310020F2
:402D800084340020B833002080B500AF124B00221A70124B01221A700EF0DEFE00230022002100200CF0CAF90CF0ACF90BF022FC0B4B01221A7005200EF010FA0EF03AFBFD
:402DC0000EF0D2FE0BF04AFC064B1B7818000AF04FFCC046BD4680BD111D0020EC310020181D0020141D002080B500AF034B18000FF0C2F8C046BD4680BDC046213C000060
:402E000090B597B000AF4F23FB1800221A705423FB1800221A8000233B65214B1B78022B01D000F0EAFE4023FB1812221A814023FB181C4A1A604023FB1801229A801A4A96
:402E40004023F8180023002123F09EFF154B5B79002B19D0134B1A78124B5B789A4213D04023F918104B1A785B781B021A4300231204120C1B0C1B041343180022F012FDEA
:402E8000084B1A78074B5A703C23FB1804220021180015F029F85723FB1800221A705AE00A39002000300020103900205723FB1819785723FB181B783C22BA18D35C58B2E4
:402EC0005723FB181A78FC4C13005B009B181B5D9B005BB203435BB2DAB23C23FB185A545723FB1819785723FB181B783C22BA18D35C58B25723FB181A78EF4C13005B00BC
:402F00009B18E31801331B785B005BB203435BB2DAB23C23FB185A545723FB1819785723FB181B783C22BA18D05C5723FB181A78E14C13005B009B18E31802331B780343A5
:402F4000DAB23C23FB185A545723FB181A785723FB1801321A705723FB181B78032BA5D94023FB183F221A814023FB183C22BA181A604023FB1804229A80D04A4023F8189B
:402F80000023002123F000FF0C23FB1828220021180014F0A9FFCA4A0C23FB181100180015F04FFC4023FB1843221A814023FB180C22BA181A604023FB1828229A80BF4A32
:402FC0004023F8180023002123F0DEFE0C23FB1828220021180014F087FFBA4A0C23FB181100180015F02DFC4023FB1847221A814023FB180C22BA181A604023FB18282215
:403000009A80AE4A4023F8180023002123F0BCFE0C23FB1828220021180014F065FFAA4A0C23FB181100180015F00BFC4023FB184B221A814023FB180C22BA181A60402391
:40304000FB1828229A809D4A4023F8180023002123F09AFE0C23FB1828220021180014F043FF9A4A0C23FB181100180015F0E9FB4023FB184F221A814023FB180C22BA1855
:403080001A604023FB1828229A808C4A4023F8180023002123F078FE0C23FB1828220021180014F021FF8A4A0C23FB181100180015F0C7FB4023FB1853221A814023FB18BB
:4030C0000C22BA181A604023FB1828229A807B4A4023F8180023002123F056FE0C23FB1828220021180014F0FFFE7A4A0C23FB181100180015F0A5FB4023FB1857221A8175
:403100004023FB180C22BA181A604023FB1828229A806A4A4023F8180023002123F034FE0C23FB1828220021180014F0DDFE6A4A0C23FB181100180015F083FB4023FB1859
:403140005B221A814023FB180C22BA181A604023FB1828229A80594A4023F8180023002123F012FE0C23FB1828220021180014F0BBFE5A4A0C23FB181100180015F061FBFE
:403180004023FB185F221A814023FB180C22BA181A604023FB1828229A80484A4023F8180023002123F0F0FD0C23FB1828220021180014F099FE4A4A0C23FB18110018000B
:4031C00015F03FFB4023FB1863221A814023FB180C22BA181A604023FB1828229A80374A4023F8180023002123F0CEFD0C23FB1828220021180014F077FE3A4A0C23FB1816
:403200001100180015F01DFB4023FB1867221A814023FB180C22BA181A604023FB1828229A80264A4023F8180023002123F0ACFD4023FB186B221A814023FB182A4A1A60FF
:403240004023FB1802229A801C4A4023F8180023002123F099FD4023FB186F221A814023FB18224A1A604023FB1804229A80134A4023F8180023002123F086FD4023FB1800
:4032800073221A814023FB18194A1A604023FB1804229A80094A4023F8180023002123F073FD144B5A793423FB181A70114B1A793423FB185A701FE07C38002010390020C3
:4032C000B836002090360020683600204036002018360020F0350020C8350020A035002078350020503500200C38002084340020B833002070340020F74B9A793423FB1885
:403300009A70F54B9A783423FB18DA70F24B5A783423FB181A714023FB1877221A814023FB183422BA181A604023FB1805229A80EA4A4023F8180023002123F025FD40237D
:40334000FB183A221A814023FB18E54A1A604023FB1801229A80E14A4023F8180023002123F012FD4023FB1816221A81DD4B00229A5EDD4B1A824023FB18DA4A1A604023A7
:40338000FB1802229A80D54A4023F8180023002123F0FAFCD54B9B78002B1CD0D24B10229A5ED14B12215B5E9A4214D04023F918CA4B1A785B781B021A4300231204120CC5
:4033C0001B0C1B041343180022F06CFAC64B10229A5EC54B5A824023FB181A221A814023FB18C34A1A604023FB1802229A80BB4A4023F8180023002123F0C6FCBB4BDB7892
:40340000002B13D04023F918B44B1A785B781B021A4300231204120C1B0C1B041343180022F040FAB14B5A8BB04B9A834023FB181E221A814023FB18AE4A1A604023FB182D
:4034400001229A80A54A4023F8180023002123F09BFC4023FB1821221A814023FB18A64A1A604023FB1801229A809C4A4023F8180023002123F088FC4023FB1824221A814D
:403480004023FB189D4A1A604023FB1802229A80924A4023F8180023002123F075FC4023FB1827221A814023FB18954A1A604023FB1802229A80894A4023F8180023002103
:4034C00023F062FC894B9B7C002B19D0874BDA8A864B1B8B9A4213D04023F9187F4B1A785B781B021A4300231204120C1B0C1B041343180022F0D6F97C4BDA8A7B4B1A8359
:403500004023FB182B221A814023FB184F22BA181A604023FB1802229A80704A4023F8180023002123F030FC4023FB182E221A814023FB184F22BA181A604023FB18022268
:403540009A80664A4023F8180023002123F01CFC4023FB188F221A814023FB18694A1A604023FB1804229A805C4A4023F8180023002123F009FC4023FB1892221A814023E7
:40358000FB184F22BA181A604023FB1801229A80524A4023F8180023002123F0F5FB5A4B30229B5C9BB21B029AB2574B31215B5C9BB2D31899B24C4BE42299524023FB1862
:4035C00095221A814023FB18504A1A604023FB1802229A80414A4023F8180023002123F0D3FB4023FB1898221A81494A3B001100180001F01DF93B00180015F02AF90300D1
:403600001A003B009A18434B1000190002231A0014F061FC40493B000422180015F020F94023FB183A001A604023FB180A229A802A4A4023F8180023002123F0A5FB4023E5
:40364000FB189B221A814023FB18344A1A604023FB1814229A80214A4023F8180023002123F092FB4023FB189E221A814023FB182B4A1A604023FB1801229A80174A40233C
:40368000F8180023002123F07FFB4023FB18A2221A812449244B0222180014F01CFC4023FB18214A1A604023FB1802229A800B4A4023F8180023002123F066FB4023FB181B
:4036C000A6221A814023FB18184A1A604023FB1802229A802CE0C04670340020103900200D370020BC330020E0300020003000201A300020813000208B3400208430002041
:4037000016300020BA300020E0360020C431002012370020C0B502001C37002086300020EB360020383700201C310020A8300020E94A4023F8180023002123F025FB4023F0
:40374000FB18AD221A814023FB18E44A1A604023FB1801229A80E04A4023F8180023002123F012FBDE4BDB7A002B1DD0DC4BAA229A5CDB4BAB215B5C9A4215D04023F9189D
:40378000D54B1A785B781B021A4300231204120C1B0C1B041343180022F084F8D04BAA22995CCF4BAB2299544023FB18B1221A814023FB18CB4A1A604023FB1801229A8025
:4037C000C54A4023F8180023002123F0DDFAC44B1B7B002B1DD0C24BAC229A5CC04BAD215B5C9A4215D04023F918BB4B1A785B781B021A4300231204120C1B0C1B041343EE
:40380000180022F04FF8B64BAC22995CB44BAD2299544023FB18B5221A814023FB18B24A1A604023FB1802229A80AB4A4023F8180023002123F0A8FAA94B5B7B002B1DD0CD
:40384000A74BAE229A5AA64BB0215B5A9A4215D04023F918A04B1A785B781B021A4300231204120C1B0C1B041343180022F01AF89B4BAE22995A9A4BB02299524023FB182C
:40388000B9221A81994B1A68954B9C215A504023FB18974A1A604023FB1804229A808E4A4023F8180023002123F06EFA8C4B5B7A002B20D08A4B9C229858894BA0229B5881
:4038C000191C11F019FD031E15D14023F918824B1A785B781B021A4300231204120C1B0C1B041343180021F0DDFF7D4B9C229A587B4BA0215A504023FB18BD221A81402361
:40390000FB187C4A1A604023FB1801229A80724A4023F8180023002123F036FA704B9B7A002B1DD06E4BA4229A566D4BA5215B569A4215D04023F918674B1A785B781B02DC
:403940001A4300231204120C1B0C1B041343180021F0A8FF624BA4229956614BA52299544023FB18C1221A814023FB18624A1A604023FB1802229A80574A4023F8180023EA
:40398000002123F001FA4023FB18C4221A814023FB185A4A1A604023FB1801229A804E4A4023F8180023002123F0EEF94023FB18C8221A814023FB18514A1A604023FB1855
:4039C00002229A80444A4023F8180023002123F0DBF9434B9B7B002B1DD0414BB4229A5A3F4BB6215B5A9A4215D04023F9183A4B1A785B781B021A4300231204120C1B0C1E
:403A00001B041343180021F04DFF354BB422995A334BB62299524023FB18CC221A814023FB18384A1A604023FB1801229A802A4A4023F8180023002123F0A6F9284BDB7B48
:403A4000002B1DD0264BB8229A5C254BB9215B5C9A4215D04023F9181F4B1A785B781B021A4300231204120C1B0C1B041343180021F018FF1A4BB822995C194BB9229954DB
:403A80004023FB18D0221A814023FB181E4A1A604023FB1801229A800F4A4023F8180023002123F071F90E4BA6229A5C0C4BA7215B5C9A4230D04023F918074B1A785B7877
:403AC0001B021A4300231204120C1B0C1B041343180021F0E7FE19E010390020AA30002000300020AC300020AE3000208C3400209C300020A4300020B2300020013700208B
:403B0000B4300020B8300020A63000203D4BA622995C3C4BA72299544023FB18D4221A81394B1A68394B1A624023FB18384A1A604023FB1804229A80364A4023F8180023B6
:403B4000002123F021F92F4B1B7C002B1DD02F4B1A6A2E4B5B6A191C101C11F0CDFB031E13D14023F9182B4B1A785B781B021A4300231204120C1B0C1B041343180021F07E
:403B800091FE224B1A6A214B5A62234B1A781D4B9A774023FB18D8221A814023FB181F4A1A604023FB1801229A801A4A4023F8180023002123F0E8F8124B1B79002B1DD0B6
:403BC000104B9A7F0F4B20215B5C9A4216D04023F918104B1A785B781B021A4300231204120C1B0C1B041343180021F05BFE054B997F044B2022995400E0C046BD4617B084
:403C000090BDC0460030002034350020E030002000310020103900204C3500201E30002080B588B000AF786039607B68282B16D003D8012B07D000F096FD412B22D04C2B80
:403C400031D000F090FD01200DF046FD01200DF093FDDE4BDE4A1A60DE4BDF4A1A6000200EF022FADD4B00221A700EF0C3FFDC4BDB7C012B01D000F06EFDD94B00221A70AC
:403C800000F069FDFFF7BCF8D64A3B681000190002231A0014F01FF9D04B01221A7000F067FD00F060FD3B68BB61BB699B89122B2ED1BB69181DCC4A4023002123F064F8AF
:403CC000031E1DD1BB695B681A78C54B1A70BB695B681A78C54B5A76BB695B685978C34B91229954C04B1A785B781B021A4300231204120C1B0C1B041343180021F01EFEC1
:403D0000B74B1B789BB21A0014210020FDF79EFCBB699B89212B31D1BB69181DB24A4023002123F031F8031E28D1AF4B1A785B781B021A4300231204120C1B0C1B04134313
:403D4000180021F0FBFDBB695B681B78002B15D0BB695B681B78F02B10D8BB695B6819789F4B802299549E4B80229B5C18000BF055FF9B4B80229A5C9D4B1A70BB699B8909
:403D80003F2B6ED1BB69181D974A4023002122F0FBFF031E65D1944B1A785B781B021A4300231204120C1B0C1B041343180021F0C5FD1F23FB1800221A7047E01F23FB1820
:403DC0001A78BB6959681F23FB181B78CB181B789B08DBB201210B40D8B2864913005B009B18021C5A541F23FB181A78BB6959681F23FB181B78CB181B785B08DBB20121CF
:403E00000B40D8B27B4913005B009B18CB180133021C1A701F23FB181A78BB6959681F23FB181B78CB181B7801210B40D8B2714913005B009B18CB180233021C1A701F230B
:403E4000FB181A781F23FB1801321A701F23FB181B78032BB2D9674B0C22190008200BF023FEBB699B896B2B4AD1BB69181D5E4A4023002122F088FF031E41D15A4B1A782C
:403E80005B781B021A4300231204120C1B0C1B041343180021F052FDBB695B6801331B789BB21B0299B2BB695B681B789AB21623FB188A181A801623FB181A884E4B1A6098
:403EC0004D4B1B684D4A934206D84B4B00221A604B4B00221A700EE0474B1B68494A934206D9454B474A1A60454B01221A7002E0434B01221A70404B1B6818000BF03AFF50
:403F0000BB699B896F2B40D1BB69181D364A4023002122F039FF031E37D1334B1A785B781B021A4300231204120C1B0C1B041343180021F003FD1E23FB1800221A7013E052
:403F40001E23FB181A78BB6959681E23FB181B78CB1819781023FB1899541E23FB181A781E23FB1801321A701E23FB181B78032BE6D91023F918244B0422180013F0ABFF7F
:403F8000214B1B68181C0BF06BFFBB699B89732B61D1BB69181D144A4023002122F0F4FE031E58D1104B1A785B781B021A4300231204120C1B0C1B041343180021F0BEFCC8
:403FC0001D23FB1800221A7034E0C04660F02E40310300000800034002030080ED310020003000209C34002010390020E03600208B3400207C3800200C3800200F2700007C
:404000007734002060EA0000843400201D23FB181A78BB6959681D23FB181B78CB1819780C23FB1899541D23FB181A781D23FB1801321A701D23FB181B78032BE6D90C2349
:40404000F918D84B0422180013F045FFD54B1B68181C0BF039FFBB699B89772B33D1BB69181DD14A4023002122F08EFE031E2AD1CD4B1A785B781B021A4300231204120C8F
:404080001B0C1B041343180021F058FCBB695B681A78C64B5A71BB695B685A78C34B1A71BB695B689A78C14B9A71BB695B68DA78BE4B9A70BB695B681A79BC4B5A70BB4B93
:4040C00018000AF05FFDBB699B891E2B27D1BB69181DB54A4023002122F056FE031E1ED1BB695B681978B24B81229954AE4B1A785B781B021A4300231204120C1B0C1B04FD
:404100001343180021F01AFCA94B80229B5C18000BF084FDA64B80229A5CA64B1A70BB699B892B2B16D1BB69181D9F4A4023002122F02AFE031E0DD19B4B1A785B781B02D9
:404140001A4300231204120C1B0C1B041343180021F0F4FBBB699B892E2B16D1BB69181D914A4023002122F00FFE031E0DD18E4B1A785B781B021A4300231204120C1B0C43
:404180001B041343180021F0D9FBBB699B898F2B16D1BB69181D844A4023002122F0F4FD031E0DD1804B1A785B781B021A4300231204120C1B0C1B041343180021F0BEFB78
:4041C000BB699B899B2B16D1BB69181D764A4023002122F0D9FD031E0DD1734B1A785B781B021A4300231204120C1B0C1B041343180021F0A3FBBB699B89A22B16D1BB69CF
:40420000181D694A4023002122F0BEFD031E0DD1654B1A785B781B021A4300231204120C1B0C1B041343180021F088FBBB699B89242B32D1BB69181D5B4A4023002122F0EA
:40424000A3FD031E29D1BB695B6801331B7899B2574B84229952564B84229B5A1B0299B2534B84229952524B84229A5ABB695B681B789BB2134399B24D4B842299524A4B27
:404280001A785B781B021A4300231204120C1B0C1B041343180021F051FBBB699B89D02B1CD1BB69181D404A4023002122F06CFD031E13D1BB695B6819783D4BA6229954EB
:4042C000394B1A785B781B021A4300231204120C1B0C1B041343180021F030FBBB699B89142B1CD1BB69181D2F4A4023002122F04BFDBB695B681B7801221340DAB22C4BFD
:404300005A71294B1A785B781B021A4300231204120C1B0C1B041343180021F00FFBBB699B89182B1CD1BB69181D1F4A4023002122F02AFDBB695B681B7801221340DAB2C6
:404340001B4B9A70184B1A785B781B021A4300231204120C1B0C1B041343180021F0EEFABB699B891C2B27D1BB69181D0E4A4023002122F009FDBB695B681B7801221340C3
:40438000DAB20B4BDA70084B1A785B781B021A4300231204120C1B0C1B041343180021F0CDFA09E0B83300201039002070340020003000208B340020BB699B89292B1CD1E3
:4043C000BB69181DE54A4023002122F0DDFCBB695B681B7801221340DAB2E14B9A74DF4B1A785B781B021A4300231204120C1B0C1B041343180021F0A1FABB699B89A02B3D
:404400001CD1BB69181DD54A4023002122F0BCFCBB695B681B7801221340DAB2D04B9A71CE4B1A785B781B021A4300231204120C1B0C1B041343180021F080FABB699B8951
:40444000A42B1CD1BB69181DC44A4023002122F09BFCBB695B681B7801221340DAB2C04B1A72BE4B1A785B781B021A4300231204120C1B0C1B041343180021F05FFABB6958
:404480009B89AF2B1CD1BB69181DB44A4023002122F07AFCBB695B681B7801221340DAB2AF4BDA72AD4B1A785B781B021A4300231204120C1B0C1B041343180021F03EFAC1
:4044C000BB699B89B32B1CD1BB69181DA34A4023002122F059FCBB695B681B7801221340DAB29F4B1A739D4B1A785B781B021A4300231204120C1B0C1B041343180021F0A2
:404500001DFABB699B89B72B1CD1BB69181D934A4023002122F038FCBB695B681B7801221340DAB28E4B5A738C4B1A785B781B021A4300231204120C1B0C1B04134318006A
:4045400021F0FCF9BB699B89BB2B1CD1BB69181D824A4023002122F017FCBB695B681B7801221340DAB27E4B5A727C4B1A785B781B021A4300231204120C1B0C1B041343A2
:40458000180021F0DBF9BB699B89BF2B1CD1BB69181D724A4023002122F0F6FBBB695B681B7801221340DAB26D4B9A726B4B1A785B781B021A4300231204120C1B0C1B04D1
:4045C0001343180021F0BAF9BB699B89C62B1CD1BB69181D614A4023002122F0D5FBBB695B681B7801221340DAB25D4BDA715B4B1A785B781B021A4300231204120C1B0C87
:404600001B041343180021F099F9BB699B89CA2B1CD1BB69181D514A4023002122F0B4FBBB695B681B7801221340DAB24C4B9A734A4B1A785B781B021A4300231204120CFC
:404640001B0C1B041343180021F078F9BB699B89CE2B1CD1BB69181D404A4023002122F093FBBB695B681B7801221340DAB23C4BDA733A4B1A785B781B021A4300231204E2
:40468000120C1B0C1B041343180021F057F9BB699B89D22B1CD1BB69181D304A4023002122F072FBBB695B681B7801221340DAB22B4B5A74294B1A785B781B021A43002389
:4046C0001204120C1B0C1B041343180021F036F9BB699B89D62B1CD1BB69181D1F4A4023002122F051FBBB695B681B7801221340DAB21B4B1A74194B1A785B781B021A4305
:4047000000231204120C1B0C1B041343180021F015F9BB699B89DA2B24D1BB69181D0F4A4023002122F030FBBB695B681B7801221340DAB20A4B1A71084B1A785B781B0269
:404740001A4300231204120C1B0C1B041343180021F0F4F806E0C04605E0C0461039002000300020C046C046BD4608B080BDC04680B500AF0EF050FA00200EF067FAC04689
:40478000BD4680BD80B582B000AF78600EF044FA7B6818000EF06AFA00200EF057FAC046BD4602B080BDC04680B500AF08200CF053FF80231B0118000CF04EFFC8200CF067
:4047C00033FDC046BD4680BD80B586B000AF78607B68180014F03DF80300FB6000237B6102E07B6901337B617B697A68D3181B78202BF6D07B69002B16DD00233B610DE0E7
:404800003B697A68D31879693A698A1811007A68521812781A703B6901333B617A693B69D218FB689A42EBDDC046BD4606B080BD80B584B000AF786039600023FB603B68DD
:40484000180014F006F80300BB6016E0FB683A68D3181B78202B05D1FB687A68D31800221A7007E0FB687A68D318FA6839688A1812781A70FB680133FB60FA68BB689A4267
:40488000E4DBC046BD4604B080BDC04680B582B000AF0200FB1D1A70054BFA1D12781A70044B01221A70C046BD4602B080BDC046E83100208A34002080B586B000AF154B79
:4048C0001B78002B18D0134B00221A70124B180009F01AFE3B1D114A1168196012791A710F4A3B1D1100180013F09EFF3A1D0D4B1100180009F028FFFA23DB0018000CF049
:404900006DFC094B1B78180008F0B2FEC046BD4606B080BD8A34002074B602007CB602000038002084B60200141D002090B589B002AFD34B1B78002B00D180E0D04B0022CF
:404940001A70D04B1B685A1E9341DBB21A00CE4B1A7009F0B7F808F0E1FECC4B1B78180008F09CFECA4B1A78CA4B1100180009F0EDFD96200CF032FCC74B0021180009F0BA
:40498000E5FDC64B0021180009F0E0FDBF4B1B78012B22D1C24B0021180009F0D7FDC14B6C2200219954BF4B782200219954BD4B842200219954BC4B00225A70BB4B0022F5
:4049C0005A70BB4B01221A700120FCF7C3FC012009F0EAFB012001F03DFAB24B242200219954B04B302200219954AE4B3C2200219954AD4B00221A70AC4B00221A70AD4BCF
:404A000001221A700020FCF7A5FC002009F0CCFB9E4B1B780121180000F092F99B4B1B78002B06D0A44AA549A54B180009F0BAFD05E0A44AA149A24B180009F0B3FD172351
:404A4000FB18A14AD27E1A701623FB189E4A9321525C1A70FFF7A8FE9C4B1B683B619C4B1B683A69D31A9B4A934235D9984B3A691A60994B18000AF0E5F8984B32220021AF
:404A8000180013F031FA944B5B791A00924B1B791C00914B9B79924990480093230013F0A1FE8E4A8F4B1100180009F04DFE8B4B32220021180013F017FA874B9B781A00C6
:404AC000854B5B788849854813F08CFE834A874B1100180009F038FE854B1B683A69D31A312B0CD9824B3A691A6000F0C3FE674B1B78002B01D001F033F80AF003FB7D4B15
:404B00001B683A69D31AF92B00D880E0794B3A691A60794B00221A700020FCF71BFC5B4B1B78002B02D00120FCF714FC584B1B78002B01D009F00EF8544B1B78180000F0C6
:404B4000E7F801F077FE524B1B78002B01D0FEF757F94F4B1A784F4B1100180009F0F6FC664B1B78002B06D009F034FF03001A00634B1A704BE04C4B1B78032B03D04A4BF4
:404B80005B78032B03D15E4B03221A703FE0464B1B78022B03D0444B5B78022B03D1584B02221A7033E0404B1B78012B03D03E4B5B78012B03D1524B01221A7027E03A4B6F
:404BC0001B78042B1CD0384B5B78042B18D0394B1B78002B14D02D4B1B78002B03D0344B1B78002B0CD0384B5B7A022B08D0274B1B78002B08D0344B81229B5C022B03D1D3
:404C00003F4B04221A7002E03D4B00221A703D4B1B683A69D21AF423FF339A4207D9394B3A691A60194B1B78180001F08DFF364B1B78002B04D0344B00221A70FCF746FDE4
:404C4000324B1B78002B13D0114B1B78002B0FD10D4B1B78002B0BD02C4B00221A70FFF7A3FD0223FF3318000CF0C0FCFEF78CF815F03AFA02F0E4FCC046BD4607B090BDBA
:404C80008A3400200C38002077340020141D0020ED31002088B602008CB6020090B6020094B60200A03400204C350020103800200D0C00200C0C0020E0FF000098B60200A3
:404CC0009CB602008E730000E0360020FC1C00201C1D0020E703000070340020C0330020A0B60200B0B60200B4B60200C0B60200241D00202C1D0020D830002030350020BC
:404D000038350020281D0020121D00204835002080B582B000AF0200FB1D1A70FB1D1B780021180000F00CF8FB1D1B78002B02D0002001F08FF8C046BD4602B080BDC046C5
:404D4000F0B591B004AF0200FB1D1A70BB1D0A1C1A702F23FB1800221A702E23FB1800221A702D23FB1800221A70BF4B5A7ABF4B1B789A4203D02F23FB1801221A700EF004
:404D800065FB03001A00BA4B1A70BA4B1A78B84B1B789A4203D02E23FB1801221A702F23FB181B78002B04D1BB1D1B78002B00D1A7E1BB1D1B78002B02D0AF4B00221A7005
:404DC000A94B5B7A082B04D0A74B5B7A022B00D0CCE0A54B5B7A022B03D1A84B05221A7002E0A64B04221A70A54B08221A70FB1D1B780022042100200AF0A0F9A14B002130
:404E0000180009F0A3FBA04B0121180009F09EFB9E499F4B0522180009F0C4FBFB1D1B78002B06D199499B4B0B22180009F0BAFB05E09649974B0F22180009F0B3FBC8205E
:404E40000CF0CCF908F0D0FD874B5B7A022B24D11023FB18904A03CA03C312881A808F4B5B791D008D4B1B791E008C4B9B791A008A4B9B781C00894B5B78894989480293BF
:404E80000194009233002A0013F0ACFC854A864B110018000BF0ECF84CE0734B5B7A082B24D11023FB18814A03CA03C312881A807A4B5B791D00794B1B791E00774B9B795A
:404EC0001A00764B9B781C00744B5B787849754802930194009233002A0013F083FC714A714B110018000BF0C3F823E01023FB18704A1168196092889A80684B5B791D00DA
:404F0000664B1B791E00654B9B791A00634B9B781C00624B5B786649624802930194009233002A0013F05EFC5E4A5F4B110018000BF09EF81023FA18534B1100180009F0F3
:404F400003FC494B5A7A494B1A705B4B242200219954594B302200219954574B3C2200219954454B00221A7000F06CFC3E4B5B7A402B33D1434B0021180009F0E7FA424B11
:404F80000121180009F0E2FA4049414B0622180009F008FBFB1D1B78002B06D13B493D4B0822180009F0FEFA05E03849394B0C22180009F0F7FAC8200CF010F93E4B2422CF
:404FC000002199543C4B3022002199543A4B3C2200219954284B00221A7092E0224B5B7A042B08D1264B08221A7008F0FDFC0020FCF704F885E01C4B5B7A102B5ED1204B55
:4050000008221A701D4B04221A70FB1D1B780122042100200AF092F81A4B0121180009F095FA194B0021180009F090FA1749184B0522180009F0B6FAFB1D1B78002B06D16E
:405040001249144B0B22180009F0ACFA05E00F49104B0F22180009F0A5FAC8200CF0BEF808F0C2FC4DE0C046E0360020581D00200C0C0020591D00205A1D00204C350020C5
:40508000341D0020C4B602008CB60200C8B60200CCB60200D0B60200D4B6020070340020E0B60200D4370020983400200CB7020018B7020040B70200A0340020CC4B5B7AC5
:4050C000002B1ED1CB4B0121180009F03FFACA4B0021180009F03AFAC84B1B78002B07D0C64B1B78002B09D0C54B9B7A002B05D1C449C54B0722180009F054FA0020FBF76C
:405100007DFFBB4B5B7A402B57D1FB1D1B780122022100200AF012F8B54B48229A5C2823FB181A802823FB181B881B0299B2B04B49229B5C9AB22823FB188A181A80262323
:40514000FC182823FB181A88E123190110000FF013FF030023802623FB181C882823FB181A882623FB181B88A8494B43D3183C2118000FF08BFF03001D002823FB181B88AE
:405180003C2118000FF07EFF0B009BB2A0491022B81800932B00220013F024FB1023FA18954B1100180009F0CFFA914B5A7A994B1A70994B00221A7044E38D4B40229B5CA3
:4051C000002B1CD18A4B41229B5C002B17D1884B42229B5C002B12D1854B43229B5C002B0DD1834B44229B5C002B08D1804B45229B5C002B03D1894B01221A7009E0874B51
:405200001B78002B02D00020FBF7F8FE834B00221A70774B5B7A002B00D0DFE07F4B1B78002B00D0DAE0002001F0F0FE03001A00794B1A70784B1A78794B1B789A4200D136
:40524000C8E0754B1B78012B09D003DC002B00D198E0BFE0022B33D0032B62D0BAE0FB1D1B78002B06D167496E4B0922180009F099F905E063496B4B0D22180009F092F91C
:4052800008F048FB684B5B791D00674B1B791E00654B9B791A00644B9B781C00624B5B786249634802930194009233002A0013F099FA5F4A5F4B110018000AF0D9FE89E0B4
:4052C000FB1D1B78002B06D14E49564B0A22180009F068F905E04B49524B0E22180009F061F908F02DFB504B5B791D004E4B1B791E004D4B9B791A004B4B9B781C004A4B63
:405300005B784D494A4802930194009233002A0013F068FA464A474B110018000AF0A8FE58E0FB1D1B78002B06D136493D4B0A22180009F037F905E032493A4B0E22180083
:4053400009F030F908F020FB374B5B791D00364B1B791E00344B9B791A00334B9B781C00314B5B783549324802930194009233002A0013F037FA2E4A2E4B110018000AF050
:4053800077FE27E02E4B1B78002B11D1FB1D1B78002B06D11B49234B0B22180009F002F917E018491F4B0F22180009F0FBF810E0FB1D1B78002B06D112491A4B082218000A
:4053C00009F0F0F805E00F49164B0C22180009F0E9F8C046104B1A78114B1A70184B1B78002B31D0174B0021180009F0AFF832E0E0360020C4B602008CB60200303500204B
:405400007C380020C8B60200CCB60200F0F1FFFF48B70200581D00204C3500205B1D00205A1D0020D0B602007034002058B70200D43700209834002080B70200A8B7020041
:405440000C0C002090B60200974B0121180009F07DF808F0C9FA954B1B78002B4BD12E23FB181B78002B46D0914B1B78002B1CD19049914B0522180009F094F8FB1D1B78CA
:40548000002B06D18B498D4B0B22180009F08AF805E08849894B0F22180009F083F8C8200BF09CFE08F0A0FA25E0854B1B78002B07D0834B1B78002B09D0824B9B7A002B4C
:4054C00005D17C497C4B0722180009F06BF8FB1D1B78002B06D17749784B0822180009F061F805E07349754B0C22180009F05AF8C8200BF073FE6E4B1A78734B1A702F23BE
:40550000FB181B78002B00D111E1704B5B7A022B37D16F4B0021180009F018F86D4B0121180009F013F8FB1D1B78002B06D16149624B0B22180009F035F805E05D495F4B7C
:405540000F22180009F02EF8C8200BF047FE08F04BFAFB1D1B7800220821002009F0EEFD09F0D0FD1023FB185B4A03CA03C312881A801023FA18574B1100180009F0E4F807
:40558000C1E0524B5B7A202B50D1544B00221A704F4B0021180008F0D9FF4E4B0121180008F0D4FF494BDB7E102B13D14C4B00221A70FB1D1B78002B06D13E493F4B1122A0
:4055C000180008F0EFFF05E03A493C4B1222180008F0E8FF3D4BDB7E202B13D1414B00221A70FB1D1B78002B06D13249334B1322180008F0D7FF05E02E49304B1422180065
:4056000008F0D0FFC8200BF0E9FD1023FB18364A13CA13C31023FA182E4B1100180009F093F82A4BDA7E314B1A706CE0274B5B7A002B68D11D4B1B78002B64D1204B1B78D3
:40564000002B25D01F4B9B7A002B21D02C23FC1809F036FA030023701A4B5B7A002B06D12C23FB181B78DB08DBB2012B0AD0154B5B7A002B0CD02C23FB181B78DB08DBB205
:40568000002B05D10B491A4B0522180008F08AFFFB1D1B78002B2DD10649084B0822180008F080FF2CE0C04690B602004C3500200C0C0020C8B60200280F0020D0B60200AF
:4056C000303500207C380020591D0020E0360020C4B602008CB60200D4B602005C1D00205D1D00205E1D0020D0B702005F1D0020CCB602005549564B0C22180008F052FFF4
:40570000C8200BF06BFD534BDA7E534B1B789A420DD0504BDB7E122B02D1504B01221A704C4BDB7E2C2B02D14D4B01221A704B4B1B78002B0FD04B4B1B78082B05D9474B94
:4057400000221A70002008F09BFC464B1B780133DAB2444B1A70424B1B78002B0FD0414B1B78082B05D93E4B00221A70002008F0D1FC3C4B1B780133DAB23A4B1A70354BF4
:405780005B7A002B07D0334B5B7A102B03D0314B5B7A042B52D12F4B1A790C23FB18DA702C4B5A790C23FB189A702A4B9A790C23FB185A70274BDA790C23FB181A700C238B
:4057C000F9180823FB180422180012F084FB2B23FB18204A2D21525C1A70234B0121180008F0B4FEBB68181C12F03CFA04000D002B23FB181B78180012F0FCF902000B0048
:4058000000201A490EF092F802000B002000290011F08AFB03000C001800210012F072F901002B23FB181A780F4B180008F032FF084B5A7A0E4B1A70C04603E0054B5A7A26
:405840000B4B1A70BD460DB0F0BDC046C8B60200D0B60200E03600205F1D00205D1D00205E1D00205C1D0020C4B6020000002440581D002080B500AFAD4B1B78002B00D04E
:4058800053E1AC4B1B78002B00D04EE1AA4B1B78002B00D049E1A94B5B7A402B07D1A84B1B7801220221002009F048FC3DE1A34B5B7A102B07D1A24B1B7801220421002042
:4058C00009F03CFC31E19D4B5B7A042B07D19C4B1B7801220121002009F030FC25E1974B5B7A202B00D098E0944BDB7E103B1D2B00D919E19A00934BD3181B689F46904B09
:405900001B7801220721002009F018FC84E08E4B1B78002B07D08A4B1B7800220521002009F00CFC78E0864B1B7800220021002009F004FC70E0844B1B78002B07D0804B22
:405940001B7800220821002009F0F8FB64E07C4B1B7800220021002009F0F0FB5CE0784B1B7800220521002009F0E8FB54E0744B1B7800220521002009F0E0FB4CE0704BD9
:405980001B7800220521002009F0D8FB44E06C4B1B7801220521002009F0D0FB3CE06A4B1B78002B07D0664B1B7800220821002009F0C4FB30E0624B1B7800220021002005
:4059C00009F0BCFB28E0604B1B78002B07D05C4B1B7800220521002009F0B0FB1CE0584B1B7800220021002009F0A8FB14E0564B1B78002B07D0524B1B7800220821002073
:405A000009F09CFB08E04E4B1B7800220021002009F094FB00E0C04686E04C4B1B78052B00D982E09A004A4BD3181B689F46494B1B78002B17D0484B1B680021181C0FF0D1
:405A400061FC031E07D03E4B1B7801220421002009F074FB69E03A4B1B7800220221002009F06CFB61E03D4B1B78002B07D1344B1B7800220421002009F060FB55E0304BE3
:405A80001B7800220021002009F058FB4DE0334B1B78002B07D12A4B1B7800220321002009F04CFB41E0264B1B7800220021002009F044FB39E0294B1B78002B07D1204B67
:405AC0001B7800220121002009F038FB2DE01C4B1B7800220021002009F030FB25E0184B1B7800220121002009F028FB1DE0144B1B7800220421002009F020FB15E0174BB9
:405B00001B78002B07D10E4B1B7800220821002009F014FB09E00A4B1B7800220021002009F00CFBC04600E0C046BD4680BDC046D03700209734002049350020E036002024
:405B4000141D0020DCB70200301D00204C35002054B802000C0C002040350020311D002080B500AFAF4B1B78002B00D058E1AE4B1B78002B00D053E1AC4B1B78002B00D003
:405B80004EE1AB4B81229B5C402B07D1A94B1B7801220221012009F0D1FA41E1A44B81229B5C102B07D1A34B1B7801220421012009F0C4FA34E19E4B81229B5C042B07D133
:405BC0009C4B1B7801220121012009F0B7FA27E1974B81229B5C202B00D099E0944B93229B5C103B1D2B00D919E19A00924BD3181B689F468F4B1B7801220721012009F076
:405C00009DFA84E08D4B1B78002B07D0894B1B7800220521012009F091FA78E0854B1B7800220021012009F089FA70E0834B1B78002B07D07F4B1B7800220821012009F098
:405C40007DFA64E07B4B1B7800220021012009F075FA5CE0774B1B7800220521012009F06DFA54E0734B1B7800220521012009F065FA4CE06F4B1B7800220521012009F0C9
:405C80005DFA44E06B4B1B7801220521012009F055FA3CE0694B1B78002B07D0654B1B7800220821012009F049FA30E0614B1B7800220021012009F041FA28E05F4B1B78F2
:405CC000002B07D05B4B1B7800220521012009F035FA1CE0574B1B7800220021012009F02DFA14E0554B1B78002B07D0514B1B7800220821012009F021FA08E04D4B1B7838
:405D000000220021012009F019FA00E0C04686E04B4B5B78052B00D982E09A00494BD3181B689F46484B1B78002B17D0474B5B680021181C0FF0E6FA031E07D03D4B1B787E
:405D400001220421012009F0F9F969E0394B1B7800220221012009F0F1F961E03C4B1B78002B07D1334B1B7800220421012009F0E5F955E02F4B1B7800220021012009F0D9
:405D8000DDF94DE0324B1B78002B07D1294B1B7800220321012009F0D1F941E0254B1B7800220021012009F0C9F939E0284B1B78002B07D11F4B1B7800220121012009F0DC
:405DC000BDF92DE01B4B1B7800220021012009F0B5F925E0174B1B7800220121012009F0ADF91DE0134B1B7800220421012009F0A5F915E0164B1B78002B07D10D4B1B781A
:405E000000220821012009F099F909E0094B1B7800220021012009F091F9C04600E0C046BD4680BDD03700209734002049350020E0360020141D00206CB80200301D0020BE
:405E40004C350020E4B802000D0C002040350020311D0020F0B593B004AF0200FB1D1A703723FB1800221A703623FB1800221A703523FB1800221A70B34B81229A5CB34B8B
:405E80001B789A4203D03723FB1801221A700DF0CFFA03001A00AE4B1A70AE4B1A78AC4B1B789A4203D03623FB1801221A703723FB181B78002B04D1FB1D1B78002B00D19C
:405EC00094E1FB1D1B78002B02D0A34B00221A709D4B81229B5C082B05D09B4B81229B5C022B00D0C2E0984B81229B5C022B03D19A4B05225A7002E0984B04225A70984B56
:405F000008225A70974B1B7800220421012009F015F9954B0021180008F018FB934B0121180008F013FB9249924B0522180008F039FB8F49904B0F22180008F033FBC8201A
:405F40000BF04CF907F050FD7F4B81229B5C022B24D11423FB18894A03CA03C312881A80874B5B791D00864B1B791E00844B9B791A00834B9B781C00814B5B7881498248C0
:405F800002930194009233002A0012F02BFC7E4A7E4B110018000AF06BF84DE06A4B81229B5C082B24D11423FB18794A03CA03C312881A80724B5B791D00714B1B791E00F4
:405FC0006F4B9B791A006E4B9B781C006C4B5B7870496D4802930194009233002A0012F001FC694A694B110018000AF041F823E01423FB18684A1168196092889A80604B2E
:406000005B791D005E4B1B791E005D4B9B791A005B4B9B781C005A4B5B785E495A4802930194009233002A0012F0DCFB564A574B110018000AF01CF81423FA184B4B11004D
:40604000180008F081FB404B81229A5C3F4B1A70524B6C2200219954504B7822002199544E4B84220021995400F0B7FB364B81229B5C402B2CD13B4B1B78012202210120EE
:4060800009F05CF8384B0021180008F05FFA374B0121180008F05AFA3549364B0622180008F080FA3249344B0C22180008F07AFAC8200BF093F8394B6C2200219954374B11
:4060C000782200219954354B8422002199548DE01D4B81229B5C042B08D1214B08225A7007F082FC0120FAF789FF7FE0164B81229B5C102B56D11A4B08225A70174B042241
:406100005A70184B1B7801220421012009F016F8154B0121180008F019FA214B0021180008F014FA1249134B0522180008F03AFA0F49114B0F22180008F034FAC8200BF0B5
:406140004DF807F051FC51E0E0360020601D00200D0C0020611D0020621D00204C350020341D0020141D0020FCB8020000B90200C8B6020004B9020008B90200D4B60200BA
:40618000703400200CB90200D4370020983400200CB7020038B9020040B70200A03400208CB60200BE4B81229B5C002B1ED1BD4B0121180008F0CAF9BB4B0021180008F063
:4061C000C5F9BA4B1B78002B07D0B84B1B78002B09D0B74B9B7A002B05D1B649B64B0722180008F0DFF90120FAF708FFAC4B81229B5C402B49D1B14B1B780122022101205F
:4062000008F09CFFA64BC0229B5C9BB21B029BB21900A34BC1229B5CCB18FB62FA6AE123190110000EF0A8FE03001A002A23FB181A802A23FB181C882A23FB181B88A04AEB
:4062400053431A00FB6AD3183C2118000EF094FE03001D00FB6A3C2118000EF013FF0B0098491422B81800932B00220012F0BAFA1423FA188C4B1100180008F065FA884B14
:4062800081229A5C904B1A70A7E2854BB8229B5C002B1CD1824BB9229B5C002B17D1804BBA229B5C002B12D17D4BBB229B5C002B0DD17B4BBC229B5C002B08D1784BBD225A
:4062C0009B5C002B03D1814B01221A7009E07F4B1B78002B02D00120FAF790FE7B4B00221A706F4B81229B5C002B00D0A8E0774B1B78002B00D0A3E0012000F087FE030097
:406300001A00734B5A70724B5A78724B1B789A4200D191E06E4B5B78012B09D003DC002B00D177E088E0022B28D0032B4CD083E06049694B0D22180008F034F907F0EAFA1D
:40634000664B5B791D00654B1B791E00634B9B791A00624B9B781C00604B5B786049614802930194009233002A0012F03BFA5D4A5D4B1100180009F07BFE5DE04D49564BE3
:406380000E22180008F00EF907F0DAFA534B5B791D00524B1B791E00504B9B791A004F4B9B781C004D4B5B7850494E4802930194009233002A0012F015FA4A4A4A4B11005D
:4063C000180009F055FE37E03A49434B0E22180008F0E8F807F0D8FA404B5B791D003F4B1B791E003D4B9B791A003C4B9B781C003A4B5B783E493B480293019400923300B3
:406400002A0012F0EFF9374A374B1100180009F02FFE11E0374B1B78002B06D125492E4B0F22180008F0BEF805E022492A4B0C22180008F0B7F8C046254B5A78254B1A701C
:406440002C4B1B78002B05D02B4B0021180008F07DF806E0284B0121180008F077F807F0C3FA1B4B5B78002B65D13623FB181B78002B60D01F4B1B78002B41D10D491F4B5A
:406480000522180008F08EF80A49134B0F22180008F088F8C8200AF0A1FE07F0A5FA4AE0E0360020FCB8020000B90200303500207C380020C8B6020004B90200141D0020DC
:4064C000F0F1FFFF48B70200601D0020631D00204C350020621D002008B902007034002060B90200D43700209834002088B90200B0B902000D0C002094B60200320F0020F2
:40650000B74B1B78002B07D0B54B1B78002B09D0B44B9B7A002B05D1B349B44B0722180008F040F8B049B24B0C22180008F03AF8C8200AF053FEAF4B1A78AF4B1A703723A9
:40654000FB181B78002B00D1B3E0AC4B81229B5C022B23D1AA4B0021180007F0F7FFA94B0121180007F0F2FF9F49A74B0F22180008F018F8C8200AF031FE07F035FA14236A
:40658000FB18A24A03CA03C312881A801423FA189C4B1100180008F0D7F873E0974B81229B5C202B32D19A4B00221A70944B0021180007F0CBFF934B0121180007F0C6FF9A
:4065C0008E4B93229B5C102B05D18749884B1222180007F0E7FF894B93229B5C202B05D18149834B1422180007F0DCFFC8200AF0F5FD1423FB18874A13CA13C31423FA18F5
:40660000804B1100180008F09FF83BE07B4B81229B5C002B36D1804B5B78002B32D17249734B0C22180007F0BDFF6D4B1B78002B25D06C4B9B7A002B21D03423FC1808F036
:406640003FFA03002370674B5B7A002B06D13423FB181B78DB08DBB2012B0AD0614B5B7A002B0CD03423FB181B78DB08DBB2002B05D15D49694B0522180007F093FFC8204F
:406680000AF0ACFD5D4B93229A5C654B1B789A420FD05A4B93229B5C122B02D1614B01221A70564B93229B5C2C2B02D15E4B01221A705C4B1B78002B0FD0554B1B78082BB5
:4066C00005D9584B00221A70012007F0D9FC504B1B780133DAB24E4B1A70534B1B78002B0FD04B4B1B78082B05D94F4B00221A70012007F00FFD464B1B780133DAB2444B1D
:406700001A703E4B81229B5C002B09D03B4B81229B5C102B04D0394B81229B5C042B57D1364B7C229A5C1023FB18DA70334B7D229A5C1023FB189A70304B7E229A5C1023B8
:40674000FB185A702D4B7F229A5C1023FB181A701023F9180C23FB180422180011F0BBFB3323FB18254AA521525C1A70244B0121180007F0EBFEFB68181C11F073FA04007A
:406780000D003323FB181B78180011F033FA02000B00002025490DF0C9F802000B002000290010F0C1FB03000C001800210011F0A9F901003323FB181A78114B180007F0CD
:4067C00069FF0E4B81229A5C194B1A70C04604E00A4B81229A5C164B1A70BD460FB0F0BD303500207C380020C8B60200320F002008B902000D0C0020611D0020E036002015
:40680000FCB8020000B90200D0B60200D4B60200641D0020D0B702004C35002004B90200651D0020661D0020671D002000002440601D002080B500AFBB4B5B78002B19D18D
:40684000BA4B24229B5C002B14D1B84B6C229B5C002B0FD107F0DEF8B54B1B7801229343DAB2B34B1A70B24B5B7801229343DAB2AF4B5A70AC4B1B79002B19D1AB4B3022C5
:406880009B5C002B14D1A94B78229B5C002B0FD107F0D6F8A64B1B7802229343DAB2A44B1A70A34B5B7802229343DAB2A04B5A709D4BDB79002B19D19C4B3C229B5C002B45
:4068C00014D19A4B84229B5C002B0FD107F0CEF8974B1B7804229343DAB2954B1A70944B5B7804229343DAB2914B5A708E4B9B7A002B29D18F4B5B7A002B03D08D4B5B7AB5
:40690000402B21D18B4B81229B5C002B04D0894B81229B5C402B17D1874B1B78002B13D0864B1B78002B0FD007F0B6F8804B1B7808229343DAB27E4B1A707D4B5B78082242
:406940009343DAB27A4B5A707D4B1B78002B00D1E6E07B4B00221A70744B3E229B5C002B09D0784B1A68714B9B6B191C101C0EF0C9FC031E0ED16D4B3E229B5C002B29D11E
:40698000704B1A68694B9B6B191C101C0EF0CEFC031E1FD0654B86229B5C002B09D0694B5868624B80229B58191C0EF0ABFC031E0ED15E4B86229B5C002B0BD1614B586809
:4069C0005A4B80229B58191C0EF0B0FC031E01D007F04CF8554B32229B5C002B09D0594B1A68524BDB6A191C101C0EF08BFC031E0ED14E4B32229B5C002B29D1514B1A684D
:406A00004A4BDB6A191C101C0EF090FC031E1FD0464B7A229B5C002B09D04A4B5A68434B5B6F191C101C0EF06DFC031E0ED13F4B7A229B5C002B0BD1424B5A683B4B5B6F1F
:406A4000191C101C0EF072FC031E01D006F0F8FF364B26229B5C002B09D03A4B1A68334B1B6A191C101C0EF04DFC031E0ED12F4B26229B5C002B29D1324B1A682B4B1B6A1C
:406A8000191C101C0EF052FC031E1FD0274B6E229B5C002B09D02B4B5A68244B9B6E191C101C0EF02FFC031E0ED1204B6E229B5C002B0BD1234B5A681C4B9B6E191C101CE8
:406AC0000EF034FC031E01D006F0A4FF194B5B7A002B03D0174B5B7A402B21D1154B81229B5C002B04D0134B81229B5C402B17D1114B1B78002B13D0104B1B78002B0FD0D9
:406B000006F0CAFF0A4B1B7808229343DAB2084B1A70074B5B7808229343DAB2044B5A70C046BD4680BDC0467C380020A0340020341D0020E03600200C0C00200D0C00204F
:406B40006D34002040350020B0B58EB002AF0200FB1D1A70FB1D1B78002B2BD0E64B81229B5C002B0DD1E54B1B78002B09D0E44B0021180007F0EAFCE24B0121180007F0B8
:406B8000E5FCDD4B81229B5C402B09D0DA4B81229B5C202B04D0D84B81229B5C082B09D1D84B0021180007F0D1FCD54B0121180007F0CCFCD04B5B7A002B0DD1D24B1B7864
:406BC000002B09D0D14B0021180007F0BFFCD04B0121180007F0BAFCC74B5B7A402B07D0C54B5B7A202B03D0C34B5B7A082B09D1C74B0021180007F0A9FCC44B012118003C
:406C000007F0A4FCC04B1B78002B0DD10C23FB18C04A03CA03C312781A700C23FA18BB4B1100180007F090FDB34B5B7A002B50D1B54B1B78002B4CD0AF4B1A792023FB1853
:406C4000DA70AD4B5A792023FB189A70AA4B9A792023FB185A70A84BDA792023FB181A702023F918AC4B0422180011F034F92F23FB18A14A2D21525C1A70A54B012118009A
:406C800007F064FCA44B1B68181C10F0EBFF04000D002F23FB181B78180010F0ABFF02000B0000209D490CF041FE02000B002000290010F039F903000C001800210010F004
:406CC00021FF01002F23FB181A78914B180007F0E1FC894B5B7A082B0DD10C23FB18904A03CA03C312881A800C23FA18874B1100180007F029FD804B5B7A202B0BD10C23C8
:406D0000FB18884A13CA13C30C23FA187F4B1100180007F019FD784B5B7A022B0DD10C23FB18814A03CA03C312881A800C23FA18764B1100180007F007FD6F4B5B7A402BE3
:406D40003CD16D4B48229B5C9BB21B029BB21900694B49229B5CCB18BB62BA6AE123190110000EF009F903001A002723FB181A702723FB181C782723FB181B786B4A534385
:406D80001A00BB6AD3183C2118000EF0F5F803001D00BB6A3C2118000EF074F90B0064490C22B81800932B00220011F01BFD0C23FA18564B1100180007F0C6FC4E4B5A7A44
:406DC0005C4B1A70FB1D1B78002B00D108E14B4B1B78002B0DD10C23FB184E4A03CA03C312781A700C23FA18454B1100180007F0ABFC414B81229B5C002B54D13F4B1B78F4
:406E0000002B50D03C4B7C229A5C2023FB18DA70394B7D229A5C2023FB189A70364B7E229A5C2023FB185A70334B7F229A5C2023FB181A702023F9183F4B0422180011F08A
:406E40004AF82623FB182C4AA521525C1A702D4B0121180007F07AFB374B1B68181C10F001FF04000D002623FB181B78180010F0C1FE02000B00002028490CF057FD0200E2
:406E80000B002000290010F04FF803000C001800210010F037FE01002623FB181A78194B180007F0F7FB144B81229B5C082B0DD10C23FB181A4A03CA03C312881A800C23C0
:406EC000FA180F4B1100180007F03EFC0A4B81229B5C202B0BD10C23FB18124A13CA13C30C23FA18064B1100180007F02DFC024B81229B5C22E0C046E03600200D0C00202C
:406F000000B90200FCB802000C0C00208CB60200C4B60200D8B90200681D0020000024400CB70200D0B70200D4B60200F0F1FFFF48B702006C1D0020701D0020022B0DD131
:406F40000C23FB182B4A03CA03C312881A800C23FA18294B1100180007F0F6FB274B81229B5C402B3CD1254BC0229B5C9BB21B029BB21900214BC1229B5CCB18BB62BA6AC6
:406F8000E123190110000DF0F7FF03001A002423FB181A802423FB181C882423FB181B88174A53431A00BB6AD3183C2118000DF0E3FF03001D00BB6A3C2118000EF062F81D
:406FC0000B0010490C22B81800932B00220011F009FC0C23FA18084B1100180007F0B4FB064B81229A5C084B5A70C046BD460CB0B0BDC046D4B6020000B90200E03600202A
:40700000F0F1FFFF48B702006C1D002080B584B000AF0200FB1D1A70FB1D1A78D74913001B019B1ADB00CB1804331A780C23FB18DA70FB1D1A78D14913001B019B1ADB00C7
:40704000CB1805331A780C23FB189A70FB1D1A78CA4913001B019B1ADB00CB1806331A780C23FB185A70FB1D1A78C44913001B019B1ADB00CB1807331A780C23FB181A70F0
:40708000FB1D1B789A00BE4BD3180C22B9180422180010F020FFFB1D1A78B94B9200D3580021181C0EF02EF9031E01D00723B0E2FB1D1A78B3493E201300DB009B18DB0028
:4070C000CB181B181B78002B13D0FB1D1A78AC4B9200D058FB1D1A78AA491300DB009B18DB00CB1838331B68191C0EF029F9031E20D1FB1D1A78A3493E201300DB009B1898
:40710000DB00CB181B181B78002B5AD1FB1D1A789B4B9200D058FB1D1A789A491300DB009B18DB00CB1838331B68191C0EF0F4F8031E46D0FB1D1A7892493C201300DB002C
:407140009B18DB00CB181B181B78002B1ED1FB1D1A788C493C201300DB009B18DB00CB181B1801221A70884B01221A70874B04221A70FB1D1A7813009B009B185B00844A6E
:407180009B1884490422180007F00CFA7E4B1B78002B14D1804B1B78002B10D07F4B1B7A002B0CD0FB1D1A7813009B009B185B00774A9B1877490722180007F0F3F90323F5
:4071C00027E2764BDB79002B0CD1FB1D1A786D493C201300DB009B18DB00CB181B181B78002B07D16D4BDB79002B1CD06C4B1B78002B18D0FB1D1A7862493C201300DB0066
:407200009B18DB00CB181B1800221A70FB1D1A7813009B009B185B005D4A9B185D490722180007F0BFF9FB1D1A78564932201300DB009B18DB00CB181B181B78002B13D0DA
