:400000000080002011000000210300002103000010B500F0CFFA00F08BF9C04670B51222224B1A6001F0EAF9214801F00DFB012001F004FA302001F0FBF81E4A1E4B1A60CA
:400040001E4C8025ED0525601D4A116802230B4313601C4A1C4B1A6000221C4B1A601C4A136808218B431360FA20C00001F092F9184801F0D3F8C0221201174B1A60174AFB
:40008000174B1A6080221206164B1A608022D202154B1A604022154B1A601549082001F061F8082001F034F8256070BD30001040001BB7000600008004010B400C020B40FB
:4000C00078002E40555500007C002E4064F02E406CF02E40DC0500000003014040FF00800000014008010B4000010B402C0101405515000070B572B600223A4B1A600132BC
:40010000394B1A7000240FE038486200131959000B00411889881A5AC31858880004104300F0F4F80134E4B2012CEDD9002411E02E4EA2001319590071188D89C8890004F6
:4001400028430A8A498A09041143802200F0E4F80134E4B2002CEBD0244918312448483000F0AAF880225200224B1A80FF3A224B1A70EE221206214B1A60214A214B1A6076
:4001800099221204204B1A60204A214B1A6080221203204B1A60982212041F4B1A6006231E4A13601E4A13601E490B783C22934314221343DBB20B701B4A117816230B43E3
:4001C000DBB21370D8221204184B1A600522184B1A60184A184B1A60FFF720FF00F086F870BDC0466CF02E401C700F40F0160000F018000000600F4002600F4000000240B4
:40020000030300000001024000500F400400990010500F4014500F4018500F402000104000800F4001700F4000700F4008000440000104408E0D00000801044010B5064CD2
:400240002378002B07D1054B002B02D0044800E000BF0123237010BD5801002000000000EC160000084B10B5002B03D00749084800E000BF07480368002B00D110BD064B80
:40028000002BFBD09847F9E7000000005C010020EC160000C80000200000000010B562B6002000F089FE012001F0A6F900F090FC00F0F6FBFEE7C046F0B50025002711E0D3
:4002C000BB00C658F3B2FF22964308E06A008A181478A419527822700135013BDBB2002BF4D10137072FEBD9F0BDC0460323044A1360044A13600022034B1A607047C046CA
:400300003000304030003140000E3F4010B50A00002101F0DEF910BD10B501F0D1F910BD10B501F0A1F903680C2B00D1FEE7FEE770B50F4E0F4D13E029686B68AC68002225
:4003400002E001C901C30432A242FAD1E868002202E0002102C304328242FAD11035013E002EE9D101F086F9FFF798FFFEE7C04601000000941A000010B5114A1368012169
:400380008B43136000230AE0032B03D89A000D49505800E00C4899000C4A885001332F2BF2D9FFF7A7FE0A4B1B68002B02D10022074B1A60024A116801230B43136010BD24
:4003C00000001040000000002103000000000020C0000020002306E04218013A12789B189BB2013989B20029F6D1584280B270470047C04610B58022024B1A6000F0EAFE26
:4004000010BDC046C0000020F0B583B00D006B469E1DDA8001230B7048701400AA70130ACB70171DB9B22800FFF7D4FFE855631D000AE854A31D1722EA540734A1B2962370
:400440003200280000F0D4FC03B0F0BD70B505000E001400002802D0002000F081FE002005E0013CAB19E3181B781818C0B2002CF7D170BD10B50C2863D88000404B1B5824
:400480009F460B06591A0B023E4A9446634401225CE00B06591A0B023B4A94466344042254E00B06591A0B02384A9446634402224CE00B06591A0B02354A944663440422D2
:4004C00044E00B06591A0B02324A9446634401223CE00B06591A0B022F4A94466344012234E00B06591A0B022C4A9446634402222CE00B06591A0B02294A944663440222E8
:4005000024E00B06591A0B02264A9446634402221CE00B06591A0B02234A94466344042214E00B06591A0B02204A9446634401220CE00B06591A0B021D4A94466344042252
:4005400004E0002000F00CFE02220023012A02D11878C0B200E00020022A03D11978587800020843042A09D11A785878000210439A7812041043DB781B06184310BDC046AC
:40058000D8190000C0FF0300C1FF0300C5FF0300C9FF0300D0FF0300D1FF0300D6FF0300D2FF0300D4FF0300D8FF0300DCFF0300E0FF030010B50D4B1B68DB0602D40022F9
:4005C0000B4B1A600A4B1B68802B0ED10022084B1A6000210220FFF74DFF002805D000210220FFF747FFFFF703FF10BD00030B40C000002070B5050001000320FFF73AFF69
:40060000441C240229000420FFF734FF241829000320FFF72FFF421C12020023002608E01078411EC9B2FD2900D801261B18DBB20132A242F4D35B42DCB229000120FFF7DF
:4006400019FF844203D1002E03D1062002E0062000E0002070BDC046F0B55F4656464D464446F0B4BA4CA544050000F0B5FB62B600239A4600270A249946002D01D1FF23BA
:4006800000E02B00B34A02A98C4662449621490052A800F0BFFB002D01D0013CE4B2002C01D00028E9D1002800D0E7E1A94B02AA944663441B88062B24D952AA1278012A58
:4006C00022D152A9CA78120289780A439146110007329A421AD896235B009A4218D84A1D52AB9E5C3202081D1E5C164306315B5C172B0FD181B252A8FFF76CFE86420BD1CE
:4007000000260AE0042608E0042606E0032604E0032602E0042600E00826002E00D057E152AB1A7993465A781300313BD9B20A2900D91DE18B008849CB589F46012F00D04E
:4007400048E14B46002B00D047E10020FFF752FF4342434152AA1371012288E1012F00D03EE14B46012B00D03DE15B46012B00D93CE17A4B1B681B685A0CD2B2934503D132
:400780001B0ADB05DB0D05E0934501D9002301E080239B0052AA13711B0A5371FF239371FE3BD371042262E1342A0ED1012F00D01FE14B46032B00D01EE1CC32002107A865
:4007C00000F087FF80235B009A46012F00D016E14B46022B00D815E107A85044DA1E4821FF3102AB9C46614400F06AFF4B4653449BB20422FF32934200D006E152AA937961
:400800001B02527913439A46554B9A4500D90A26002E00D001E15B46580280B2504480B24E4B1B681A68130A9BB2FF21114201D001339BB2834200D9F4E007A900F0CCFB99
:40084000002800D1F6E000239A460133FF3399460A2600220BE1012F00D10DE10426002205E1012F00D0ECE04B46534496225200934200D9E8E007A850444A4653A900F0CF
:400880001FFF53464B449BB29A460022EFE04B46002B00D0DBE004AA324B03CB03C253AA04AB03CB03C200239A4601270822DEE0012F00D0CEE04B46032B00D0CDE052AA97
:4008C00093791B025279134398465B46590241440902234B984500D90A26002E00D0BFE0802252000020FFF7B1FD030001905A46520292B2424492B25946012913D11A49F5
:400900008A4210D100210520FFF7B4FDC0B2019B1B1ADBB2984600210620FFF7ABFDC3B24246D31ADBB25B4252AA137101229EE00020FFF75FFE002802D180220B4B1A6075
:4009400000F052FA00F046FC042600228FE0C04684FDFFFF6E0200000C1A0000CC000020FF010000381A0000FF030000C00000204A4B1E68002E75D0012F76D102AB1A70D7
:400980004A465A8053AB03930C22002104A800F0A0FE04AB9B4653AA0692190002A8B0475B469A882623FF339A4203D953AB0699994207D0069B002B01D1002A05D1049B4F
:4009C000DEB254E00E26002251E00E2600224EE000224CE00426002249E00426002246E00426002243E00426002240E0042600223DE0042600223AE00426002237E00426BC
:400A0000002234E00426002231E000239A460133FF3399460326002229E080235B009946002224E000239A460133FF3399460A2600221CE000239A460133FF339946002284
:400A400015E00426002212E0032600220FE0042600220CE00426002209E00426002206E0002204E00526002201E00526002252A93000FFF7C9FC01E000239A46002D00D121
:400A8000FBE5012F00D1F8E59F239B009D443CBC90469946A246AB46F0BDC0467401002070B50020FFF7A6FD002801D0062400E00024154D2B681A68C03AC0210020FFF7FF
:400AC000C5FC6B681B78C01AC0B24042C0B2834204D10D4B1B681B68002B02D1002000F03FFB0A4B1B68402B01D0002C05D00022064B1A600020FFF7AFFD3220FFF7ACFD9A
:400B0000FFF778FC70BDC046CC000020C000002010B51149012000F025FB0321012000F033FB00220D4B1A7072320D4B1A70523A0C4B1A700C49022000F014FB03210220E6
:400B400000F022FB0622094B1A704132084B1A70453A084B1A7010BDD10E00007801002080000F4081000F40610F000022000F4032000F4083000F4070B500F06EFD050019
:400B8000104A117820230B43DBB213700E4A137810242343DBB21370012000F0B9FA0B4B1A781443E4B21C70022000F0CFFA022000F0AEFAFF2000F02BFD280000F051FDCD
:400BC00070BDC04690000F4091000F4093000F4010B5064B5B78002B04D1FFF799FF0122024B5A70FFF7C8FF10BDC0467801002070B500F032FD04000C4A137820218B430F
:400C0000137000F013FD0A4A13781025AB431370012000F087FA074A1378AB431370022000F080FA200000F01CFD70BD90000F4091000F4093000F4010B5012000F072FA08
:400C4000114A9378DBB2D178C9B21279002A01D18B4210D00D4AD45CE4B20133DBB23F2B00D90023084A93701379002B06D00022054B1A7102E0064B1C78E4B2012000F0F8
:400C800047FA200010BDC04678010020AC01002040000F4010B5012000F044FA134B9A78D2B2DB78DBB29A4205D1104B1B79002B15D0402414E00D4B9A78D2B2DB78DBB24C
:400CC0009A4205D2094AD37894781C1BE4B207E0064AD37894781C1B4034E4B200E00024012000F015FA200010BDC0467801002010B500F0B2FC0C4A117801230B43DBB20A
:400D00001370137801218B43137000F0AAFC012000F008FA054B00229A70DA701A715A71012000F0F5F910BD90000F407801002010B5164BD9799A79D2B2914205D2531EFF
:400D4000CB1A5C426341DBB204E08B1A3F3B5C426341DBB2002BECD1914206D10C4B1B785B0702D40B4B18700EE03F2900D90021094B58540131054BD971054B1B789B07BA
:400D800002D5022000F0D8F910BDC0467801002063000F4043000F40EC01002010B500F05CFC0B4A117801230B43DBB21370137801218B43137000F054FC022000F0B2F954
:400DC000044B00229A71DA71022000F0A1F910BD93000F407801002010B5FFF7F9FEFFF787FFFFF7DBFF10BD10B5FFF701FF10BDF8B506000D001700FFF77AFF002404E097
:400E0000305DFFF795FF0134A4B2AC42F8D33D800020F8BDF0B55F4656464546E0B482B006008A4690461D00002415E0FFF732FF00280CD0FFF72EFF0400192000F0D6F962
:400E4000FFF728FF8442F5D3002301930BE0012000F0CCF90134A4B2AB005B195A009442E4DB05230193002342461380002524E0FFF710FF87B243461A88BB189BB2414683
:400E80000B8053450BD316E073199B46FFF7D4FE5B4618700135ADB20134A4B200E00024BC42F1D37319013B1B78172B05D0052000F09CF901E00A8003E0FFF7EBFE002886
:400EC000D6D1019802B01CBC90469A46A346F0BD1B4B1B78DBB21E221A4204D019481A4001780A4302702022134025D0164A1178C9B2164A1278D2B215488154154A12787C
:400F0000002A02D00121144A117010490A780132D2B20A700A78D2B23F2A02D900210B4A11700A4A1178C9B20C4A1278D2B2914202D10121074A1170002BC9D17047C0468F
:400F400061000F407801002040000F407B010020AC0100207C0100207D0100207A01002013E0104B1B78DBB23F2B02D900220D4B1A700C4A1378DBB20B49CB5CDBB20B49D9
:400F80000B7013780133DBB21370064B1B78DBB2074A1278934203D0064B1B785B07E0D57047C0467E010020EC01002043000F407F01002063000F4004490A68D2B2042341
:400FC0009A438000184010430860704700010440002070470020704730B5C5B004000023439342933D4B984272D8002970D08022520002A800F064FB394B9C4201D9394BE9
:4010000000E0394B0093FF230193384B6A461A603749384A1160C0461B681B0F1B07F0221206934204D1314B1B68FF2213400DE02E4B1B681B0F1B07A0221206934204D00F
:401040002A4B1B68FF22134000E000234393439B002B3FD100F001FB0500FFF7B9FF4290439B002B25D1244A0092009A2404144300941E4A6946116020481E490860C04630
:401080001268120F1207F02109068A4204D1174B1B68FF2213400BE0144A1268120F1207A02109068A4203D0104B1B68FF2213404393429B002B07D1FFF78CFF4290429BBE
:4010C000002B01D0429B4393280000F0CAFA01E004234393439845B030BDC046FF030000FF010000B6D70001B6D70000080010400400008004001040B6D800000500008064
:40110000024B1B68012018407047C0460C002E401F2318401E3B8340014A13607047C04600E100E01F2318401E3B8340014A13607047C04680E100E01F2318401E3B834015
:40114000014A13607047C04600E200E01F2318401E3B8340014A13607047C04680E200E001BE704770B504000D001F2802D90020FFF7F6FF1034A40080239B059C46644431
:401180002068256070BDC04670B504000E00032902D90020FFF7E4FF1F2C02D90020FFF7DFFF03252540ED00063500F056FAA408A400074B9C46644421680323AB40994307
:4011C0000B003100A9401943216000F04AFA70BD00E400E0034A13681B041B0C02490B43136070470CED00E00400FA0510B5040006E0084B586800F027FA074B9C4664446C
:4012000080231B029C42F4D8024B9868604300F01BFA10BDD40000200080FFFF10B5034B1B7B584300F010FA10BDC046D4000020F0B557464E46C0B483B0040000F00DFA93
:401240000190E71E2D2F74D83F4B1B78DBB29C4208D83E4B1B78DBB29A463D4B1B78DBB2994631E03B4B1B78DBB29C4208D83A4B1B78DBB29A46394B1B78DBB2994623E038
:40128000374B1B78DBB29C4208D8364B1B78DBB29A46354B1B78DBB2994615E0334B1B78DBB29C4208D8324B1B78DBB29A46314B1B78DBB2994607E02F4B1B78DBB29A4624
:4012C0002E4B1B78DBB299462D4BDE5D2F2E09D92A2C07D919222B4B1A60052000F0B4F9192503E0274B1D683F231D40B54206D9234BDA5D234B1A60052000F0A5F91F4B0A
:401300009C4664442378DBB21F4A13601F4B52461A601F4B4A461A600520FFF77FFFB5420AD2174BDA5D174B1A60052000F08CF902E00020FFF714FF019800F092F903B0E2
:401340000CBC91469A46F0BD40F3FF0F41F3FF0F42F3FF0F43F3FF0F44F3FF0F45F3FF0F46F3FF0F47F3FF0F48F3FF0F49F3FF0F4AF3FF0F4BF3FF0F4CF3FF0F4DF3FF0F58
:40138000401A00002CFF0B4028FF0B401CFF0B4020FF0B4010B504000F4A116801230B4313600E4A0E4B1A600E4A1368802109020B431360002809D100200CE00120FFF70B
:4013C0002DFFFFF79DFE002804D1013C002CF5D1102000E0002010BD60F02E400220000078002E4010002E40034B1868C0231B02184000D00120704700010B4010B50D4B8C
:401400001A6801218A431A601A68022082431A60094A10683024A043203C204310601068093CA043014311601A68802109060A431A6010BD00F02E4000FF2E4070B51D4B3A
:401440001B6801241C40002802D0012816D02BE0184B19680122914319601968022081431960154B19682E3081432038014319601968093881430A431A6018E00D4B1A68E9
:4014800002218A431A600C4A10680725A84301431160116830208143103801431160196801220A431A6002E00020FFF759FE200070BDC04600F02E4000FF2E4010B500F011
:4014C000CCF8044A1368C02109020B43136000F0C8F810BD00010B4010B500F0BEF808490A68084B1A408024E40122430A600A6813408022120213430B6000F0B2F810BD13
:4015000000010B40FF3FFFFF70B5050000F0A5F80400FFF769FF002803D0FFF7DDFF012100E0002108482840084A1568084B2B40184310601368012901D1FFF7BFFF2000BF
:4015400000F08FF870BDC0460404040010020B40FBFBFBFF10B5244B1B685B0715D5234B5B685B070ED5224B596A042001401F4C62688A4362605A6A82435A629B69002B22
:4015800000D098470420FFF7BFFF174B1B685B0518D5164B5B685B0510D5154B596A8022D2001140114842688A434260596A114A0A405A62DB69002B00D098478020C0000D
:4015C000FFF7A2FF084B1B685B030CD5074B5B685B0304D5064B1B6A002B00D098478020C002FFF791FF10BD10020B40E800002084010020FFFBFFFF04490A68D2B208231E
:401600009A43C000184010430860704700010440044B1B68002BFBDB0002034B1843014B186070470000014040000080034B1B68002BFBDB024A014B1A6070470000014028
:4016400040000040000000000230800803D00138FDD1C046C046C0467047EFF3108072B6704780F310887047014B18687047C046500100200E4B70B500251E000D4CE41A68
:40168000A410A54204D0AB00F35898470135F8E700F0EEF9084B00251E00084CE41AA410A54204D0AB00F35898470135F8E770BD7C1A00007C1A00007C1A0000841A00002C
:4016C000002310B59A4203D0CC5CC4540133F9E710BD03008218934202D019700133FAE770470000001C00000B0000000000000080300F40800300400F40000400300F40DE
:40170000581900008000000080728138830F89018E02920294049E01AA01B202B404B501B601BA02BE54BF10D418D604D804D904DB04DF01000402010308070209290B02DD
:401740000EA1108011801314152019AA1A011B081D401E041F07212022052302270829282B023124320138A43A013C104005430249A04A4051105A085D0265406748695442
:4017800070D07104731487408B08C087C2BFC44FCA0ECC07CE2FD00DD20CD682D8B0E680001002AC030C040C0671070809800A030B13112C134316201C091ED020DC2222DC
:4017C00024142571270E28102A402D712F0631C0321F332034E03530370F392A3A203B803F104003470449FF4A074BFF4C404D204EF04F055008580459045A045F016040EB
:4018000061A86240632080138101820C830A841385138604882089138AC08C408D108E20900A921494809502962097099A159E08A003A214A4E0A8E0AB04B00FB303B4E039
:40184000B510B610B70CBA02BE40BF40C053C102C5EEC60CC70BC817C9FFCAFFCBFFCEF0CF44D00CD401D604D804D904DA04DB04DF01E6C0EA40EB02012A02010320041026
:40188000050A084109180C400E020F201080111415081608170219621B021C101F202005210825012605270629202A102D802F2231083401370239543A013D023E083F2078
:4018C00042204320470449814A105080510455105628571059415A045B106340820189408A108B408C808E048F109154920494159E01A548A610A921C07FC2AFC47ECA5411
:40190000CC82CEEFD046D208D60FD801E26086408A40E64007105240578069026E80831089018F809A40A240C020D460DA80DC20E02010011101000003000F4013300F40C4
:4019400036310F406C320F404B330F4003400F400F410F4002600F40000400800000F3030F08F00041100000F3000C04821800001C3CE342FF00000008000000043C0041A1
:401980000C670018C37F0000C0802C200F1F1C4000802820000000046204050001E0C0000AFFFFFF62A0F0410C0000000000021204040404000000010000000000004002BF
:4019C000001030100010101200000000000000000000000000000000420500008204000092040000A2040000B2040000C2040000D2040000F2040000E20400000205000027
:401A00001205000022050000320500003C0700005C07000070090000A80700005608000070090000620800008E080000A8070000B008000030090000AA116F1A003C01016A
:401A4000030405060708090A0B0C0E0F101112131415161718191B1C1D1E1F2021222325262728292A2B2E2F3031323334354300F8B5C046F8BC08BC9E4670476502000006
:401A800079030000F8B5C046F8BC08BC9E4670473D020000A81A0000C800002090000000D80000000000000000000000E4160000E8160000010000000000C05D80BB000042
:401AC00030000000006CDC02F00000000404040000000000000000000000000000000000000000000000000000000000000000006E1A0000000000000000000000000000E8
:401B0000000000000000000000000000000000000000000000000000000000000000000000000000000000000000000000000000F000002000000000000000000000000095
:401B40000000000000000000000000000000000000000000000000000000000000000000000000000000000000000000000000000000000000000000000000000000000065
:401B80000000000000000000000000000000000000000000000000000000000000000000000000000000000000000000000000000000000000000000000000000000000025
:401BC00000000000000000000000000000000000000000000000000000000000000000000000000000000000000000000000000000000000000000000000000000000000E5
:401C000000800020111C00002D4300002D43000080B500AF024B83F3088802F091FBC0460080002080B500AF344B12221A6003F04BFC334B180005F00BF8012003F054FC5F
:401C4000302003F0B7F82F4B2F4A1A602F4B8022D2051A602E4B2E4A126802210A431A602C4B2D4A1A602D4B00221A602C4B2C4A126808218A431A60FA23DB00180003F0ED
:401C80008BF9284B180003F0CDFA274B9C2292021A60264B264A1A60264B274A1A60234B264A1A60264B274A1A60204B264A1A60264BE82252011A601C4B254A1A60254B55
:401CC000802212061A60244B8022D2021A60234B42221A60224B43221A60224B43221A60214B41221A60214B40221A60074B8022D2051A60C046BD4680BDC04630001040CB
:401D0000001BB70004010B40060000800C020B4078002E407C002E405555000064F02E406CF02E40DC050000080301400000014042FF00800C030140007FBB0043FF008021
:401D40000403014000F3010041FF00800003014040FF008008010B4000010B402C010140200101401C010140080101400401014080B586B000AF72B6724B00221A60724BAE
:401D800001221A701723FB1800221A7025E01723FB181A7813005B009B185B006B4A9B183B613B691A78597809020A43997809040A43DB781B06134318003B691A795B7962
:401DC0001B0213439BB2190002F03AFA1723FB181A781723FB1801321A701723FB181B78022BD4D91723FB1800221A7036E01723FB181A7813009B009B185B00544A9B1846
:401E0000FB60FB681A78597809020A43997809040A43DB781B061343BB60FB681A79597909020A43997909040A43DB791B0613437B60BA1CFB68197A5B7A1B020B43138008
:401E4000BB1C1A887968BB68180002F009FA1723FB181A781723FB1801321A701723FB181B78002BC3D03B4A3B4B1100180002F007FA3A4B802252001A80394B01221A70E6
:401E8000384B394A1A60394B03221A60384B902212031A60374B992212041A60364B374A1A60374B802212031A60364B802292021A60354B992212041A60344B9922120473
:401EC0001A60334B06221A60324B06221A60324A314B1B78DBB23C218B43DBB214210B43DBB213702D4A2D4B1B78DBB216210B43DBB213702A4B36221A602A4B2A4A1A6078
:401F00002A4B20221A602A4B02221A60294B01221A60294B294A1A60294B2A4A1A602A4B2A4A1A602A4B802292001A60294B01221A60FFF777FE02F0E5F9C046BD4606B0F8
:401F400080BDC0466CF02E401C700F40008E0100148E01003C8E0100208E010000600F4002600F40000002409000EEEE000102400003024000500F4010500F40040099004C
:401F800014500F4018500F4020500F4030500F402000104000800F4001700F4000700F400000044008000440B04CDA000C000440180004400001044008010440CE6C03008A
:401FC00008020440B06D1B00080304403610DB000C0304400805044010B5064C2378002B07D1054B002B02D0044800E000BF0123237010BD7815002000000000B08D0100EB
:40200000084B10B5002B03D00749084800E000BF07480368002B00D110BD064B002BFBD09847F9E7000000007C150020B08D0100E80B00200000000080B582B000AF00208A
:4020400003F074F903F002F9464B1900002003F09DF903F019FD444B180003F027FD02F017FA62B600F028FF002003F097FC04F061FC3E4B180004F06FFC01F07FFF00F070
:402080001DFC642003F0A8F800F072FA04F006FD374B180004F078FD7B1D00221A70FA235B00180003F098F8012003F001FCFB1D1B78C72B02D9BB1D00221A70FB1D1B788B
:4020C000002B02D1BB1D01221A70BB1D1B78002B05D0FB1D1A78FB1D01321A7004E0FB1D1A78FB1D013A1A7001F07AFF214B1B78002B0ED0204B1B78002B0AD11D4B002208
:402100001A7000F0DBFB1D4B1B78002B01D000F0DFFE194B1B78002B0AD0174B00221A7000F004FC164B00221A70012003F0C0FB144B1B78002B11D0104B1B78002B0DD1C0
:40214000114B1B78002B09D00E4B00221A7001F047FF0223FF33180003F0E6FA05F0ECFBA5E7C04615220000B5210000E52100008D210000E02700209E150020F528002088
:402180009D150020F0280020322B002080B582B000AF074B01221A7004F0DEFC03007B607B68180004F0E2FCC046BD4602B080BDF228002090B583B000AFFC1D03F0AEFBFC
:4021C00003002370BC1D03F09BFB03002370044B00221A7004F036FBC046BD4603B090BDF428002090B583B000AFFC1D03F096FB03002370BC1D03F083FB0300237001F0C1
:402200009FFE034B01221A70C046BD4603B090BDF028002080B500AF094B1B685A1C084B1A60074B1B68074A1288934205D3064B01221A70024B00221A60C046BD4680BD2D
:4022400094150020402B0020E027002090B585B000AF040008001100FB1D221C1A70BB1D021C1A703B1D0A1C1A800E23FA183B1D1B88DB1813801F4BFA1D12781A701D4B64
:40228000BA1D12785A700E23FB181B88DAB2194B9A700E23FB181B8805339AB20C23FC18144B1100180000F0E7F8030023800E23FB181B8803330C22BA181288120A92B250
:4022C000D1B20C4AD1540E23FB181B8804330C22BA181288D1B2074AD1540E23FB181B8805339BB2180000F085F8C046BD4605B090BDC046C0290020B0B584B000AF0500D7
:402300000C0010001900FB1D2A1C1A70BB1D221C1A703B1D021C1A80BB1C0A1C1A80334BFA1D12781A70314BBA1D12785A703B1D1B881B0A9BB2DAB22C4B9A703B1D1B8874
:40234000DAB22A4BDA70294B00221A71BB1C1B88DAB2264B5A710C23FC18244B0821180000F08AF8030023800C23FB181B881B0A9BB2DAB21D4B9A710C23FB181B88DAB2DD
:402380001A4BDA71012003F009FB0F23FB1800221A700EE00F23FB181B78144AD35C180003F04CFB0F23FB181A780F23FB1801321A700F23FB181B78072BEBD9C04603F01F
:4023C00053FB01000A4B1A6880231B02134001D0012300E00023CB18002BF0D1002003F0DDFAC046BD4604B0B0BDC046C02900200802254080B584B000AF0200BB1D1A80BF
:40240000012003F0CBFA0A2002F0E6FE0E23FB1800221A800EE00E23FB181B88144AD35C180003F00BFB0E23FB181A880E23FB1801321A800E23FA18BB1D12881B889A4225
:40244000E9D3C04603F010FB01000A4B1A6880231B02134001D0012300E00023CB18002BF0D1002003F09AFAC046BD4604B080BDC02900200802254080B586B000AF7860DF
:402480000A00BB1C1A801623FB18012252421A800A23FB1800221A800823FB1800221A800023FB6000233B6134E03B697A68D3181B7899B21623FB181622BA1812884A40F4
:4024C0001A800823FB601FE01623FB181B88012213400FD01623FB181622BA18128852081A801623FB181622BA1812881F494A401A8006E01623FB181622BA1812885208E9
:402500001A80FB68013BFB60FB68002BDCD13B6901333B61BB1C1B889A1E3B699A42C4DC1623FB181B881A020A23FB181A800823FB181622BA181288120A1A800A23FB1849
:402540000A22B9180822BA18098812880A431A801623FB180A22BA1812881A801623FB181B881800BD4606B080BDC04601A0FFFF80B590B000AF00F0CDF803001A00554B9A
:402580001A70544B1A78544B1A7000F0F1F803001A00524B1A8000F03FF903001A00504B1A804F4B1B884F4A9A429B415B42DBB21A004D4B1A7004F045F904F055F9484B95
:4025C0001B88180001F0C6FC04F03CF9474B00229A70464B1522DA704549464B0A22180005F063F93023FB18434A03CA03C312781A70424BFB632423FB180C22002118007A
:4026000005F030F93E4A2423FB181100180001F0F7FC3B1D1E220021180005F023F93B1D384A03CA03C32423FB18180005F022F902002423F9183B1D180005F022F93B1D8A
:40264000180005F017F903001A003B1D9A182E4B1000190002231A0005F0FBF82B493B1D0622180005F00DF93B1D180003F0B4FC2423FB180C220021180005F0F3F8234926
:402680002423FB1802330622180005F00EF92423FB181A000821062004F052F8144B1A000A21042004F04CF8114B1A000A21052004F046F8154B1A000C21022004F040F861
:4026C000134B1A000421032004F03AF8C046BD4610B080BD3E2B0020482B0020402B0020CA2B0020CF070000322B00204C2B0020B48D0100C02B0020D08D01005634120001
:402700007E2B0020C08D0100C88D01008C2B0020CC8D010090B583B000AFFC1D0021502001F0B4FC03002370322002F055FDFB1D1B78FF2B02D1FB1D01221A70FB1D1B7845
:402740001800BD4603B090BD80B582B000AF0200FB1D1A70FB1D1B781A000021502001F0C9FC642002F038FDC046BD4602B080BD80B582B000AF0121502001F087FC0300B6
:402780009AB2BB1D12021A80322002F025FD0221502001F07BFC030099B2BB1DBA1D12888A181A80322002F017FDBB1D1B88084A934203D0BB1D1B88F92B02D8BB1DFA22D9
:4027C0001A80BB1D1B881800BD4602B080BDC046FFFF000080B582B000AF0200BB1D1A80BB1D1B881B0A9BB2DBB21A000121502001F080FC642002F0EFFCBB1D1B88DBB230
:402800001A000221502001F075FC642002F0E4FCC046BD4602B080BD80B582B000AF0321502001F033FC03009AB2BB1D12021A80322002F0D1FC0421502001F027FC0300DF
:4028400099B2BB1DBA1D12888A181A80322002F0C3FCBB1D1B88064A934202D1BB1D054A1A80BB1D1B881800BD4602B080BDC046FFFF0000204E000080B582B000AF020042
:40288000BB1D1A80BB1D1B881B0A9BB2DBB21A000321502001F02EFC642002F09DFCBB1D1B88DBB21A000421502001F023FC642002F092FCC046BD4602B080BD80B582B02A
:4028C00000AF612001F0CAFB03007B607B68002B03D0094B08225A7208E0074B00225A72064B1A006E21002001F06AFC7B681800BD4602B080BDC0464C2B0020502B00202B
:4029000080B582B000AF0200FB1D1A703B1D0A1C1A803B1D1A88FB1D1B781900612001F017FCC046BD4602B080BDC04690B585B000AFE44B1A78E44B1B789A4204D0E14BFC
:402940001B78FE2B00D09DE2DE4B9B799BB21B0299B2DC4BDB799AB20823FB188A181A80BC1DD84B08211800FFF786FD03002380BA1D0823FB1812881B889A4200D083E25A
:402980007B1DD04A52781A70CE4B1B78FE2B1CD17B1D1B78032B00D078E2CA4BDA78BB1C1A80C84B5A793B001A80C84B0022DA70C54B1A78C54B1A713B001A887B1D1B7875
:4029C0001900FE20FFF742FC60E27B1D1B78032B00D0BFE1BB4BDA78BB1C1A80B94B5A793B001A800D23FB1803221A700C23FB183A0012881A70BB1C1B88632B00D87CE11D
:402A0000BB1C1B88643B082B00D96CE19A00B04BD3181B689F460D23FB181B780D22BA18591C11701A00A94B002199540D23FB181B780D22BA18591C11701A00A24B1978EE
:402A4000A24B99540C23FB180C22BA181278013A1A700C23FB181B78002B00D124E10D23FB181B780D22BA18591C11701A00994B1B881B0A9BB2D9B2944B99540D23FB189B
:402A80001B780D22BA18591C11701A00914B1B88D9B28E4B99540C23FB180C22BA181278013A1A700C23FB181B78002B00D1FDE00D23FB181B780D22BA18591C11701A007C
:402AC000854B1B881B0A9BB2D9B2804B99540D23FB181B780D22BA18591C11701A007E4B1B88D9B2794B99540C23FB180C22BA181278013A1A700C23FB181B78002B00D1BD
:402B0000D6E00D23FB181B780D22BA18591C11701A00724B1B881B0A9BB2D9B26B4B99540D23FB181B780D22BA18591C11701A006A4B1B88D9B2654B99540C23FB180C2221
:402B4000BA181278013A1A700C23FB181B78002B00D1AFE00D23FB181B780D22BA18591C11701A005E4B1978584B99540D23FB181B780D22BA18591C11701A00584B5978C8
:402B8000524B99540C23FB180C22BA181278013A1A700C23FB181B78002B00D18CE00D23FB181B780D22BA18591C11701A004C4B9978464B99540D23FB181B780D22BA18D9
:402BC000591C11701A00464BD978404B99540C23FB180C22BA181278013A1A700C23FB181B78002B6AD00D23FB181B780D22BA18591C11701A003A4B1979344B99540D2306
:402C0000FB181B780D22BA18591C11701A00344B59792E4B99540C23FB180C22BA181278013A1A700C23FB181B78002B48D00D23FB181B780D22BA18591C11701A00284B23
:402C40009979224B99540D23FB181B780D22BA18591C11701A00224BD9791C4B99540C23FB180C22BA181278013A1A700C23FB181B78002B36D00D23FB181B780D22BA1880
:402C8000591C11701A00164B197A104B99540D23FB181B780D22BA18591C11701A00104B597A0A4B99541EE0C0461CE0C0461AE0C04618E0C04616E0C04614E0C04612E085
:402CC000C04610E0F82800203E2B0020C0290020DC8D0100402B0020CA2B0020462B0020C02B0020C0466C4B18783B001A887B1D1B781900FFF7AAFA2CE00A23FB180022F0
:402D00001A8016E00A23FB181B880333BA1C1288013251000A22BA1812888A185F49895C5F4AD1540A23FB181A880A23FB1801321A800A23FB181A883B001B885B009A427B
:402D4000E0DB554B18783B001A887B1D1B781900FFF77CFA7B1D1B78062B00D098E0514B9A78BB1C1A80BB1C1B881B0299B24D4BDB789AB2BB1C8A181A804A4B1A790E2393
:402D8000FB181A800E23FB181B881B0299B2454B5B799AB20E23FB188A181A80BB1C1B88642B0DD10E23FB181B88DAB23A4B1A700E23FB181B88DBB21800FFF7C5FC53E008
:402DC000BB1C1B88652B14D10E23FB181B88F92B03D80E23FB18FA221A80334B0E22BA1812881A800E23FB181B881800FFF7F2FC3AE0BB1C1B88662B25D10E23FB181B886B
:402E00002A4A934203D80E23FB1800221A80284B0E22BA1812881A80254B1B88234A9A429B415B42DBB21A00224B1A700E23FB181B881800FFF720FD0E23FB181B88180041
:402E400001F088F810E0BB1C1B88022B0CD9BB1C1B88013BDBB2DB18DAB20E23FB181B8819001000FFF74CFD0B4B18780E23FB181C88BB1C1A887B1D19782300FFF73CFA95
:402E8000C04605E0C04604E0C04602E0C04600E0C046BD4605B090BD3E2B00204C2B0020C0290020F8280020402B0020CF070000CA2B0020322B002080B500AF034B1800BE
:402EC00002F082FEC046BD4680BDC0468137000080B58CB000AF2723FB1800221A702E23FB1800221A800023BB62F54B1A791423FB181A70F24B5A791423FB185A70F04BCD
:402F00009A791423FB189A70ED4BDA791423FB18DA70EC4B1B78022B01D000F026FC1823FB1812221A811823FB18E74A1A601823FB1801229A80E54A1823F81800230021D2
:402F400011F04AFBE24B5B79002B19D0E04B1A78DF4B5B789A4213D01823F918DB4B1A785B781B021A4300231204120C1B0C1B041343180010F0BEF8D54B1A78D44B5A70D0
:402F80001823FB1816221A811823FB181422BA181A601823FB1804229A80CC4A1823F8180023002111F018FBC94B9B78002B14D01823F918C54B1A785B781B021A43002345
:402FC0001204120C1B0C1B041343180010F092F8C04B10229A5EBF4B5A821823FB181A221A811823FB18BC4A1A601823FB1802229A80B64A1823F8180023002111F0ECFA4F
:40300000B34BDB78002B13D01823F918AF4B1A785B781B021A4300231204120C1B0C1B041343180010F066F8A94B5A8BA84B9A831823FB181E221A811823FB18A74A1A60D8
:403040001823FB1801229A80A04A1823F8180023002111F0C1FA1823FB1821221A811823FB189F4A1A601823FB1801229A80974A1823F8180023002111F0AEFA1823FB18C1
:4030800024221A811823FB18964A1A601823FB1802229A808D4A1823F8180023002111F09BFA1823FB1827221A811823FB188E4A1A601823FB1802229A80844A1823F81888
:4030C0000023002111F088FA814B9B7C002B19D07F4BDA8A7E4B1B8B9A4213D01823F9187A4B1A785B781B021A4300231204120C1B0C1B04134318000FF0FCFF744BDA8A9E
:40310000734B1A831823FB182B221A811823FB182722BA181A601823FB1802229A806B4A1823F8180023002111F056FA1823FB182E221A811823FB182722BA181A601823A3
:40314000FB1802229A80614A1823F8180023002111F042FA1823FB184E221A811823FB18624A1A601823FB1804229A80574A1823F8180023002111F02FFA1823FB18512211
:403180001A811823FB182722BA181A601823FB1801229A804D4A1823F8180023002111F01BFA474B31229A5C1023FB181A70444B30229A5C1023FB185A701823FB18542274
:4031C0001A811823FB181022BA181A601823FB1802229A803D4A1823F8180023002111F0FBF91823FB1857221A81414A3B1D1100180000F005FF3B1D180004F03BFB0300D2
:403200001A003B1D9A183B4B1000190002231A0004F01FFB38493B1D0422180004F031FB1823FB183A1D1A601823FB180A229A80264A1823F8180023002111F0CDF9182383
:40324000FB185A221A811823FB182C4A1A601823FB1814229A801D4A1823F8180023002111F0BAF91823FB185D221A811823FB18234A1A601823FB1801229A80134A1823DE
:40328000F8180023002111F0A7F91823FB1861221A811823FB182722BA181A601823FB1802229A80094A1823F8180023002111F093F91823FB1865221A811823FB1821E010
:4032C0004C2B00208A2C0020642B0020902C002028270020E8270020542B0020A12700203E2B0020A42700203E270020D22700207E2B0020C88D0100882B0020A6270020C0
:40330000572B0020E84A1A601823FB1802229A80E64A1823F8180023002111F05DF91823FB186C221A811823FB18E14A1A601823FB1801229A80DD4A1823F81800230021F2
:4033400011F04AF9DB4BDB7A002B1DD0D94B9A229A5CD84B9B215B5C9A4215D01823F918D24B1A785B781B021A4300231204120C1B0C1B04134318000FF0BCFECD4B9A2269
:40338000995CCC4B9B2299541823FB1870221A811823FB18C84A1A601823FB1801229A80C24A1823F8180023002111F015F9C14B1B7B002B1DD0BF4B9C229A5CBD4B9D218F
:4033C0005B5C9A4215D01823F918B84B1A785B781B021A4300231204120C1B0C1B04134318000FF087FEB34B9C22995CB14B9D2299541823FB1874221A811823FB18AF4A79
:403400001A601823FB1802229A80A84A1823F8180023002111F0E0F8A64B5B7B002B1DD0A44B9E229A5AA34BA0215B5A9A4215D01823F9189D4B1A785B781B021A4300234F
:403440001204120C1B0C1B04134318000FF052FE984B9E22995A974BA02299521823FB1878221A811823FB18954A1A601823FB1801229A808D4A1823F8180023002111F0D4
:40348000ABF88C4B5B7A002B1DD08A4B92229A56884B93215B569A4215D01823F918834B1A785B781B021A4300231204120C1B0C1B04134318000FF01DFE7E4B92229956A9
:4034C0007C4B932299541823FB187C221A811823FB187C4A1A601823FB1801229A80734A1823F8180023002111F076F8714B9B7A002B1DD06F4B94229A566E4B95215B569F
:403500009A4215D01823F918684B1A785B781B021A4300231204120C1B0C1B04134318000FF0E8FD634B94229956624B952299541823FB1880221A811823FB18624A1A605A
:403540001823FB1802229A80584A1823F8180023002111F041F81823FB1883221A811823FB182722BA181A601823FB1801229A804E4A1823F8180023002111F02DF81823D0
:40358000FB1887221A811823FB18504A1A601823FB1802229A80454A1823F8180023002111F01AF8434B9B7B002B1DD0414BA4229A5A404BA6215B5A9A4215D01823F9187F
:4035C0003A4B1A785B781B021A4300231204120C1B0C1B04134318000FF08CFD354BA422995A344BA62299521823FB188B221A811823FB18364A1A601823FB1801229A8000
:403600002A4A1823F8180023002110F0E5FF294BDB7B002B1DD0274BA8229A5C254BA9215B5C9A4215D01823F918204B1A785B781B021A4300231204120C1B0C1B04134354
:4036400018000FF057FD1B4BA822995C194BA92299541823FB188F221A811823FB181D4A1A601823FB1802229A80104A1823F8180023002110F0B0FF0E4B5B7C002B2ED058
:403680001823F918094B1A785B781B021A4300231204120C1B0C1B04134318000FF02AFD044B9622995C17E0C0270020902C0020C227002028270020C4270020C6270020F4
:4036C000BA270020BC270020CA270020CC270020D0270020662B0020264B972299541823FB1893221A811823FB182722BA181A601823FB1804229A801F4A1823F8180023DD
:40370000002110F069FF1823FB1897221A811823FB181A4A1A601823FB1801229A80164A1823F8180023002110F056FF114B1B79002B1BD00F4B9A7F0E4BDB7F9A4215D076
:403740001823F9180C4B1A785B781B021A4300231204120C1B0C1B04134318000FF0CAFC044B9A7F034BDA7700E0C046BD460CB080BDC04628270020902C00204627002030
:4037800080B584B000AF786039607B68282B16D003D8012B07D000F0CEFB412B22D04C2B40D000F0C8FB012002F0D0F8012002F01DF9154B154A1A60154B164A1A6000209E
:4037C00002F09AFA144B00221A7003F03BF8134BDB7C012B01D000F0A6FB104B00221A7000F0A1FBFFF774FB0D4A3B681000190002231A0004F02DF8074B01221A7000F06D
:403800009FFB00F098FBC04660F02E40310300000800034002030080F528002028270020442B00203B68FB60FB689B89122B22D1FB68181DDA4A4023002110F0CDFE031E87
:4038400012D1FB685B681A78D64B1A70D44B1A785B781B021A4300231204120C1B0C1B04134318000FF092FCCE4B1B789BB219001420FFF745F8FB689B89212B1CD1FB68D0
:40388000181DC74A4023002110F0A6FE031E13D1FB685B681978C34B78229954C04B1A785B781B021A4300231204120C1B0C1B04134318000FF06AFCFB689B891E2B1CD132
:4038C000FB68181DB64A4023002110F085FE031E13D1FB685B681978B24B79229954B04B1A785B781B021A4300231204120C1B0C1B04134318000FF049FCFB689B892B2BE2
:4039000016D1FB68181DA64A4023002110F064FE031E0DD1A24B1A785B781B021A4300231204120C1B0C1B04134318000FF02EFCFB689B892E2B16D1FB68181D984A40238F
:40394000002110F049FE031E0DD1954B1A785B781B021A4300231204120C1B0C1B04134318000FF013FCFB689B894E2B16D1FB68181D8B4A4023002110F02EFE031E0DD105
:40398000874B1A785B781B021A4300231204120C1B0C1B04134318000FF0F8FBFB689B895A2B16D1FB68181D7D4A4023002110F013FE031E0DD17A4B1A785B781B021A43CF
:4039C00000231204120C1B0C1B04134318000FF0DDFBFB689B89612B16D1FB68181D704A4023002110F0F8FD031E0DD16C4B1A785B781B021A4300231204120C1B0C1B04EE
:403A0000134318000FF0C2FBFB689B89242B32D1FB68181D624A4023002110F0DDFD031E29D1FB685B6801331B7899B25D4B7C2299525C4B7C229B5A1B0299B2594B7C2279
:403A40009952584B7C229A5AFB685B681B789BB2134399B2534B7C229952514B1A785B781B021A4300231204120C1B0C1B04134318000FF08BFBFB689B898F2B1CD1FB68BC
:403A8000181D474A4023002110F0A6FD031E13D1FB685B681978434B96229954404B1A785B781B021A4300231204120C1B0C1B04134318000FF06AFBFB689B89142B1CD19E
:403AC000FB68181D364A4023002110F085FDFB685B681B7801221340DAB2324B5A71304B1A785B781B021A4300231204120C1B0C1B04134318000FF049FBFB689B89182B33
:403B00001CD1FB68181D264A4023002110F064FDFB685B681B7801221340DAB2214B9A701F4B1A785B781B021A4300231204120C1B0C1B04134318000FF028FBFB689B897D
:403B40001C2B1CD1FB68181D154A4023002110F043FDFB685B681B7801221340DAB2114BDA700F4B1A785B781B021A4300231204120C1B0C1B04134318000FF007FBFB684D
:403B80009B89292B21D1FB68181D054A4023002110F022FDFB685B681B780122134003E0902C002028270020DAB2E04B9A74E04B1A785B781B021A4300231204120C1B0C67
:403BC0001B04134318000FF0E1FAFB689B895F2B1CD1FB68181DD64A4023002110F0FCFCFB685B681B7801221340DAB2CF4B9A71CF4B1A785B781B021A4300231204120CFC
:403C00001B0C1B04134318000FF0C0FAFB689B89632B1CD1FB68181DC54A4023002110F0DBFCFB685B681B7801221340DAB2BF4B1A72BF4B1A785B781B021A4300231204A0
:403C4000120C1B0C1B04134318000FF09FFAFB689B896E2B1CD1FB68181DB54A4023002110F0BAFCFB685B681B7801221340DAB2AE4BDA72AE4B1A785B781B021A43002301
:403C80001204120C1B0C1B04134318000FF07EFAFB689B89722B1CD1FB68181DA44A4023002110F099FCFB685B681B7801221340DAB29E4B1A739E4B1A785B781B021A43FC
:403CC00000231204120C1B0C1B04134318000FF05DFAFB689B89762B1CD1FB68181D944A4023002110F078FCFB685B681B7801221340DAB28D4B5A738D4B1A785B781B0226
:403D00001A4300231204120C1B0C1B04134318000FF03CFAFB689B897A2B1CD1FB68181D834A4023002110F057FCFB685B681B7801221340DAB27D4B5A727D4B1A785B7815
:403D40001B021A4300231204120C1B0C1B04134318000FF01BFAFB689B897E2B1CD1FB68181D734A4023002110F036FCFB685B681B7801221340DAB26C4B9A726C4B1A78BB
:403D80005B781B021A4300231204120C1B0C1B04134318000FF0FAF9FB689B89852B1CD1FB68181D624A4023002110F015FCFB685B681B7801221340DAB25C4BDA715C4B68
:403DC0001A785B781B021A4300231204120C1B0C1B04134318000FF0D9F9FB689B89892B1CD1FB68181D524A4023002110F0F4FBFB685B681B7801221340DAB24B4B9A73DB
:403E00004B4B1A785B781B021A4300231204120C1B0C1B04134318000FF0B8F9FB689B898D2B1CD1FB68181D414A4023002110F0D3FBFB685B681B7801221340DAB23B4B70
:403E4000DA733B4B1A785B781B021A4300231204120C1B0C1B04134318000FF097F9FB689B89912B1CD1FB68181D314A4023002110F0B2FBFB685B681B7801221340DAB2C7
:403E80002A4B5A742A4B1A785B781B021A4300231204120C1B0C1B04134318000FF076F9FB689B89952B1CD1FB68181D204A4023002110F091FBFB685B681B78012213407D
:403EC000DAB21A4B1A741A4B1A785B781B021A4300231204120C1B0C1B04134318000FF055F9FB689B89992B24D1FB68181D104A4023002110F070FBFB685B681B780122AA
:403F00001340DAB2094B1A71094B1A785B781B021A4300231204120C1B0C1B04134318000FF034F906E0C04605E0C04628270020902C0020C046C046BD4604B080BDC04631
:403F400080B500AF02F090FC002002F0A7FCC046BD4680BD80B582B000AF0200BB1D1A8002F082FCBB1D1B88180002F0A7FC002002F094FCC046BD4602B080BD80B500AF44
:403F800062B60121002001F03BFB144B1900002001F02CFC0121002001F060FB082001F0F9FB0A21012001F021FC0221012001F027FB0121012001F051FB0223FF33180094
:403FC00001F082FB01F0B0FA80235B00180001F0ABFB01F0D3FAC046BD4680BDFF7F000080B500AF082001F049FC80231B01180001F044FCC82001F015F9C046BD4680BD12
:4040000080B584B000AF786039600023FB603B68180003F02FFC0300BB6016E0FB683A68D3181B78202B05D1FB687A68D31800221A7007E0FB687A68D318FA6839688A1850
:4040400012781A70FB680133FB60FA68BB689A42E4DBC046BD4604B080BDC04680B584B000AF0200FB1D1A70FB1D1B7801220021180000F001FC0300FB60012000F0C6FC39
:40408000FB681800BD4604B080BDC04680B584B000AF0200FB1D1A70BB1D0A1C1A70FB1D1B7801220021180000F0E6FBBB1D1B780121180000F0ECFCFB1D1B780122012102
:4040C000180000F053FC0A4B01221900012000F019FD02000F23FB181A70012000F096FC00F08CFD024B1B781800BD4604B080BD9F15002090B583B000AF040008001100C0
:40410000FB1D221C1A70BB1D021C1A707B1D0A1C1A70FB1D1B7801220021180000F0ACFBBB1D1B780121180000F0B2FC7B1D1B780121180000F0ACFC012000F067FC00F095
:404140005DFD0A2001F048F8C046BD4603B090BD90B585B000AF040008001100FB1D221C1A70BB1D021C1A703B1D0A1C1A803B1D1B881B0A9AB20F23FB181A700F23FB1843
:404180001A78BB1D1978FB1D1B781800FFF7B2FF0F23FB183A1D12881A70BB1D1B780133D9B20F23FB181A78FB1D1B781800FFF7A1FF0A2001F010F8C046BD4605B090BD52
:4041C00080B584B000AF3A60FB1D021C1A703B1D0A1C1A800823FB18FA1D12781A70C04600F0EAFC0300042BFAD00823F91802230122612000F010FA0300FB6000F0DCFCCF
:404200000300202B01D12023FB60C04600F0D4FC020002231340F9D03B1D1A8839680123612000F08DFAC04600F0C6FC020001231340F9D0FB681800BD4604B080BDC04691
:4042400080B582B000AF786039603A687B680021180003F007FBC046BD4602B080BDC04680B584B000AFF860B9607A607A68B968FB68180003F0EDFAC046BD4604B080BD51
:4042800080B586B000AF7860396000233B6100237B612FE07B699B007A68D3181B68BB600F23FB18BA681A70BB68FF229343BB6018E03B695B003A68D3181B781A00BB6842
:4042C000D31819003B695B003A68D3185B780B703B6901333B610F23FB181A780F23FB18013A1A700F23FB181B78002BE1D17B6901337B617B69062BCCD9C046BD4606B069
:4043000080BDC04680B500AF054B03221A60054B03221A60044B00221A60C046BD4680BD3000304030003140000E3F4080B500AF03F054FA03001B680C2B00D1FEE7FEE7FC
:4043400080B586B000AF224B7B61224B3B61204B7B6135E03B691B68FB603B695B68BB603B699B683B6000237B600CE0FB681A68BB681A60BB680433BB60FB680433FB6059
:404380007B6804337B607A683B689A42EED13B69DB683B6000237B6008E0BB6800221A60BB680433BB607B6804337B607A683B689A42F2D13B6910333B617B69013B7B61B4
:4043C0007B69002BC6D103F00FFAFDF735FEFEE701000000609D010080B582B000AF194B184A126801218A431A6000237B600FE07B68032B04D8144B7A689200D35800E099
:40440000124B134A796889008B507B6801337B607B682F2BECD9FDF7ABFC0E4B00221A600D4B1B68002B02D10B4B00221A60054B044A126801210A431A60C046BD4602B072
:4044400080BDC04600001040001C00002D43000000000020C8000020C000002080B500AF00F036F8C046BD4680BDC04680B500AF064B064A1268802109060A431A6000F081
:4044800019F800F01FF8C046BD4680BD0000244080B500AF064B1B78002B04D1FFF7DEFF034B01221A70FFF7E1FFC046BD4680BDA015002080B500AF092000F055FEC0465D
:4044C000BD4680BD80B500AFC046BD4680BDC04680B500AF204B00221A60204B204A1A60204B214A1A60214B00221A60204B00221A60204B1C4A1A601F4B00221A60092039
:4045000000F048FE0321092000F0DAFD1B4B1900092000F0AFFD1A4B00221A60194B00221A60194B00221A60184B00221A60184B00221A60174B00221A60174B10221A70D2
:40454000164B00221A80164B00221A60154B00221A60C046BD4680BD000024406000244077080080000324400701008004032440100324400002244004022440716C00003A
:40458000C80E2440880E2440480F2440080F2440C80F2440880F2440312C0020402C0020502C0020382C002080B500AF124B124A1268520052081A60104B00221A60104BA3
:4045C00000221A600F4B0F4A12680F490A401A600E4B00221A600E4B00221A600D4B10221A70054B044A1268802109060A431A60C046BD4680BDC0460000244068002440CD
:404600006C00244060002440FF5CFFFF880F2440C80F2440312C002080B586B000AFF860B9607A603B6004237B61BB68002B20D0344B1B78DBB2102B0CD1092000F0AAFD22
:40464000314B1B680122134001D0082300E000237B610EE02B4B1B78DBB2602B09D12B4B1B889BB2082293439AB2284B1A8000237B617B69002B3CD1224B28221A70244B77
:4046800000221A60234B00221A60234B7A681A60224BBA681A603B68DAB2214B1A70FB685B00FF221340FB60184B1B889BB2022293439AB2154B1A801A4B40221A601A4B96
:4046C0001A4A1A601A4B1422FF321A60194B40221A603B680122134005D000F0A7FA164BFA681A6005E0144BFA681A60134B02221A60092000F038FD7B691800BD4606B07B
:4047000080BDC046312C002064002440402C0020342C0020382C00203C2C0020542C0020482C0020800F2440000F244017030000080F2440880F244040022440680024403D
:4047400080B586B000AFF860B9607A603B6004237B61BB68002B20D0394B1B78DBB2102B0CD1092000F016FD364B1B680122134001D0082300E000237B610EE0304B1B78BF
:40478000DBB2602B09D1304B1B889BB2082293439AB22D4B1A8000237B617B69002B47D1274B29221A70294B00221A60284B7A681A60284BBA681A603B68DAB2264B1A70B9
:4047C000FB685B00FF22134001221343FB601E4B1B889BB2012293439AB21B4B1A801F4B1F4A1A601F4B1422FF321A60184B1B68072B03D81C4B04221A6009E01B4B1B4ACF
:404800001268802149000A431A60174B08221A603B680122134005D000F008FA144BFA681A6005E0124BFA681A60124B02221A60092000F099FC7B691800BD4606B080BD73
:40484000312C002064002440402C0020502C00204C2C0020442C0020482C0020000F244017030000080F2440C80F244060002440400224406800244080B588B000AFF86022
:40488000B9607A600423FB612E4B1B78DBB2102B53D1092000F07EFC2B4B1B680122134002D00823FB6145E07B68FA22920053437B61264B00221A60254B264A1A60264B2F
:4048C000264A1A60FB685B00FF221340FB60BB68002B03D11B4B24221A7006E0194B25221A70FB6801221343FB601D4BFA681A601C4B02221A60164B1A680823FF331340BB
:40490000BB61194B1B68C0221340BA691343BB611423FB18180000F027FA0200BB691343BB61BB69002BE6D0BB69180000F09AF90300FB61092000F017FCFB691800BD46D1
:4049400008B080BD312C002064002440080F2440000F244017030000C00F2440ED0F00004002244068002440400F244080B588B000AFF860B9607A600423FB61204B1B78B9
:40498000DBB220221340DBB2002B34D07B68FA22920053437B61FB685B00FF221340FB60BB68002B03D1164B24221A7006E0144B25221A70FB6801221343FB6000F036F9CA
:4049C000104BFA681A60104B1A680823FF331340BB611423FB18180000F0C6F90200BB691343BB61BB69002BEDD0BB69180000F039F90300FB61FB691800BD4608B080BDF1
:404A0000312C002040022440000F244080B586B000AF786004237B61194B1B78DBB220221340DBB2002B26D07B68FA2292005343FB60144B144A126820210A4001D01822D5
:404A400000E010221A60114B1A681223FF3313403B610C23FB18180000F086F902003B6913433B613B69002BEDD03B69180000F0F9F803007B617B691800BD4606B080BD1B
:404A8000312C00206800244064002440000F244080B586B000AF7860396004237B61164B1B78DBB220221340DBB2002B1FD03B68FA2292005343FB60104B7A681A60104BD3
:404AC0001A680823FF3313403B610C23FB18180000F04AF902003B6913433B613B69002BEDD03B69180000F0BDF803007B617B691800BD4606B080BD312C002040022440E2
:404B0000000F244080B588B000AFF860B9607A600423FB61224B1B78DBB220221340DBB2002B38D07B68FA22920053433B611D4B1A680223FF331340BB611B4B1B680422B4
:404B400013407B611023FB18180000F00DF90200BB691343BB61BB69002B02D17B69002BE5D07B69002B07D0104B1B68DAB2BB681A700D4B0E4A1A60BB69180000F072F877
:404B80000300FB61FB69002B05D1FB68002B02D1084B04221A60FB691800BD4608B080BD312C0020000F2440C00F244040032440ED0F00006800244080B582B000AF092098
:404BC00000F0E8FA0B4B1B889BB27B600A4B1B78DBB220221340DBB2002B03D07B68042213437B60092000F0BFFA7B681800BD4602B080BD402C0020312C002080B582B0C4
:404C000000AF092000F0C6FA074B1B889BB27B60054B00221A80092000F0A6FA7B681800BD4602B080BDC046402C002080B582B000AF01237B60094B1B682022134001D039
:404C4000082300E000237A6813437B60044B7A681A60C046BD4602B080BDC046640024406800244080B584B000AF78600023BB607B68002B05DA80231B06FB600123BB603D
:404C80005AE07B68C022134008D01023FB60314B00221A60304B10221A704DE07B680122134018D00123FB602B4B1B78DBB208221340DBB2002B0BD0284B1A688023DB05E2
:404CC000134001D10123BB60234B10221A7033E00123BB6030E07A6880235B00134005D080235B00FB600123BB6025E07B680222134002D00223FB601EE00023FB607B6814
:404D00001022134003D0144B10221A7014E0124B1B78DBB208221340DBB2002B0CD00E4B1B78DBB201221340DBB2002B01D0252200E02422084B1A70BB68012B02D1FFF7A4
:404D400033FC02E0064B074A1A60FB681800BD4604B080BD68002440312C002060002440000F24401703000080B584B000AF78600A23FB1801221A800023FB607B681B682C
:404D8000002B11D00A23FB181B88180000F04AFA7B681B685A1E7B681A607B681B68002B02D180231B06FB60FB681800BD4604B080BDC04690B585B000AF78600C23FC1841
:404DC00001F04FFF030023707B68022B00D8AFE07B68302B00D9ABE05C4B1B78DBB21A007B689A420AD35A4A0F23FB1812781A70584A0E23FB1812781A703FE0564B1B78FE
:404E0000DBB21A007B689A420AD3544A0F23FB1812781A70524A0E23FB1812781A702DE0504B1B78DBB21A007B689A420AD34E4A0F23FB1812781A704C4A0E23FB18127871
:404E40001A701BE04A4B1B78DBB21A007B689A420AD3484A0F23FB1812781A70464A0E23FB1812781A7009E0444A0F23FB1812781A70434A0E23FB1812781A707B68DA1EDF
:404E80000B23FB183F498A5C1A700B23FB181B782F2B0DD97B682A2B0AD93B4B19221A60052001F0D5FE0D23FB1819221A7007E0354B1B68DAB20D23FB183F210A401A7071
:404EC0000B23FA180D23FB1812781B789A4208D22D4B7A68033A2B498A5C1A60052001F0B7FE2A4B7A6826498C4662441278D2B21A60274B0F22BA1812781A60254B0E2247
:404F0000BA1812781A60052000F08CF90B23FA180D23FB1812781B789A420CD91A4B7A68033A18498A5C1A60052001F091FE02E0002000F045F90C23FB181B78180001F0A8
:404F400094FEC046BD4605B090BDC04640F3FF0F41F3FF0F42F3FF0F43F3FF0F44F3FF0F45F3FF0F46F3FF0F47F3FF0F48F3FF0F49F3FF0F4AF3FF0F4BF3FF0F4CF3FF0FF3
:404F80004DF3FF0FD89001002CFF0B4028FF0B401CFF0B4020FF0B4080B584B000AF78600023FB60154B154A126801210A431A60134B144A1A60144B134A126880210902DA
:404FC0000A431A607B68002B12D01023FB600CE0012000F027F900F019F8031E02D00023FB6005E07B68013B7B607B68002BEFD1FB681800BD4604B080BDC04660F02E40FD
:4050000078002E400220000010002E4080B582B000AF054B1B68012213407B607B681800BD4602B080BDC0460C002E4080B584B000AF02003960FB1D1A7080239B05FB6050
:40504000FB1D1B780F2B02D9002000F0B9F8FB1D1B789B00FA68D3181B68BB60FB1D1B789B00FA68D3183A681A60BB681800BD4604B080BD80B584B000AF02003960FB1DD5
:405080001A7080239B05FB60FB1D1B781F2B02D9002000F095F8FB1D1B7810339B00FA68D3181B68BB60FB1D1B7810339B00FA68D3183A681A60BB681800BD4604B080BDC6
:4050C00090B587B000AF0200FB1D1A70BB1D0A1C1A70BB1D1B78032B02D9002000F070F8FB1D1B781F2B02D9002000F069F8FB1D1B7803221340DB0006337B611323FC18CF
:4051000001F0AFFD03002370FB1D1B789B08DBB29B00144A944663441B68FB6003227B699A401300DA43FB681340FB60BB1D1A787B699A401300FA681343FB60FB1D1B78EC
:405140009B08DBB29B00074A94466344FA681A601323FB181B78180001F087FDC046BD4607B090BD00E400E080B582B000AF0200FB1D1A70064BFA1D12781F210A40012124
:4051800091400A001A60C046BD4602B080BDC04600E100E080B582B000AF0200FB1D1A70064BFA1D12781F210A40012191400A001A60C046BD4602B080BDC04680E100E0EF
:4051C00080B582B000AF0200FB1D1A7001BEC046BD4602B080BDC04680B582B000AF786009E00D4B1B68180001F032FD7B680B4A944663447B607A6880231B029A42F0D874
:40520000074B1B687A685343180001F021FDC046BD4602B080BDC046F80B00200080FFFFF00B002080B582B000AF0200BB1D1A80BB1D1B88044A12785343180001F008FDBF
:40524000C046BD4602B080BDF40B002080B500AF064B1B68002B04D100F00AF8034B01221A6000F035F8C046BD4680BDBC15002080B582B000AF00237B6007E0114B7A68F5
:4052800092000021D1507B6801337B607B68042BF4D90D4B19000F20FFF7C8FE012000F045F80A4B1A68FA239900100002F020F90300180000F02AF800F05EF8C046BD467B
:4052C00002B080BDA8150020B9530000EC0B002080B500AF00F00CF8044B044A126801210A431A60C046BD4680BDC04610E000E080B500AF044B044A126802210A431A60E6
:40530000C046BD4680BDC04610E000E080B582B000AF7860044B7A681202120A1A60C046BD4602B080BDC04614E000E080B582B000AF78607B68012B06D1084B074A1268C4
:4053400004210A431A6005E0044B044A126804218A431A60C046BD4602B080BD10E000E080B500AF034B1B681B0C012213401800BD4680BD10E000E080B500AF024B002244
:405380001A60C046BD4680BD18E000E080B584B000AF78603960074B7A689200D358FB60044B7A6892003968D150FB681800BD4604B080BDA815002080B582B000AFFFF7A3
:4053C000CFFF0300012B13D100237B600DE00A4B7A689200D358002B04D0074B7A689200D35898477B6801337B607B68042BEED9C046BD4602B080BDA815002090B583B006
:4054000000AFFC1D01F02DFC03002370074B074A126804218A431A6030BFFB1D1B78180001F023FCC046BD4603B090BD10ED00E080B500AF0F4B0F4A126801218A431A6049
:405440000C4B0C4A126802218A431A600A4B0A4A126830218A4310210A431A60064B064A126807218A4301210A431A60C046BD4680BDC04600F02E4000FF2E4080B500AF6E
:405480000F4B0F4A126802218A431A600D4B0D4A126807218A4302210A431A60094B094A126830218A4320210A431A60044B044A126801210A431A60C046BD4680BDC046BA
:4054C00000F02E4000FF2E4080B500AFFFF7B0FF044B044A1268802109060A431A60C046BD4680BD00F02E4080B584B000AF78600C4B1B6801221340FB607B68002B02D0AB
:40550000012B03D005E0FFF793FF06E0FFF7B6FF03E00020FFF754FEC046FB681800BD4604B080BD00F02E4090B583B000AFFC1D01F097FB03002370074B074A1268C021F9
:4055400009020A431A60FB1D1B78180001F08DFBC046BD4603B090BD00010B4080B500AF054B1A68C0231B02134001D0012300E000231800BD4680BD00010B4090B583B0AB
:4055800000AFFC1D01F06DFB030023700D4B0D4A12680D490A408021C9010A431A60094B084A126808490A40802109020A431A60FB1D1B78180001F058FBC046BD4603B048
:4055C00090BDC04600010B40FF3FFFFF80B582B000AF78607B68022B02D90020FFF7F0FD064B1A687B68DB000133DA401300012213401800BD4602B080BDC04610020B401F
:4056000080B584B000AF786039607B68022B02D90020FFF7D5FD7B681800FFF7D7FF031E16D10D4B1B687A68D200032191400A00D2431340FB603B6803221A407B68DB000E
:405640009A401300FA681343FB60034BFA681A60C046BD4604B080BD0C020B4080B584B000AF786039607B68002B02D07B68012B01D1012300E00023002B02D10020FFF728
:405680009FFD7B681800FFF7A1FF031E16D10D4B1B687A68D2000232012191400A00D2431340FB607B68DB0002333A689A401300FA681343FB60034BFA681A60C046BD466A
:4056C00004B080BD0C020B4080B582B000AF7860144B144A11687A680A431A607B680122134005D0C0460020FFF770FF031EFAD07A6880235B00134005D0C0460120FFF7CA
:4057000065FF031EFAD07A6880235B02134005D0C0460220FFF75AFF031EFAD0C046BD4602B080BD10020B4080B582B000AF7860FFF714FF031E26D1154B154A1268796830
:40574000C9430A401A607B680122134005D0C0460020FFF73BFF031EFAD17A6880235B00134005D0C0460120FFF730FF031EFAD17A6880235B02134005D0C0460220FFF781
:4057800025FF031EFAD1C046BD4602B080BDC04610020B4090B585B000AF78600020FFF715FF04000120FFF711FF03001C430220FFF70CFF03002343FB60FB68002B0DD173
:4057C000084B1B68BB60BB68074A1340BB60BA687B681343BB60034BBA681A60C046BD4605B090BD0C020B40F7F7FFFF80B584B000AF786039607B68002B02D07B68012BAE
:4058000001D1012300E00023002B02D10020FFF7D7FC174B1B689B0F9B0701D1C92300E05D231800FFF7FEFC124B1B68FB607B681B01114A9A401300DA43FB681340FB6081
:405840000C4B7A68120139689140FA680A431A60074B1B689B0F9B0701D1432300E01F231800FFF7DFFCC046BD4604B080BDC0460C020B4008020B40FFFF000080B582B0CA
:4058800000AF7860084B084A11687A68074802400A431A60C046044B1B68044A1340FAD1C046BD4602B080BD10020B400808080080B584B000AF0200FB1D1A700F4B1B68BF
:4058C000DAB20F23FB1820218A431A70FB1D1B785B01DBB220221340D9B20F23FB180F22BA1812780A431A70044B0F22BA1812781A60C046BD4604B080BDC0460001044047
:4059000080B500AF044B1B68042213409B08DBB21800BD4680BDC0460400044080B582B000AF094B1B68DAB2FB1D04210A401A70054BFA1D12781A60FB1D1B789B08DBB292
:405940001800BD4602B080BD1000044080B584B000AF0200FB1D1A700F4B1B68DAB20F23FB1808218A431A70FB1D1B78DB00DBB208221340D9B20F23FB180F22BA181278F2
:405980000A431A70044B0F22BA1812781A60C046BD4604B080BDC0460002044080B584B000AF0200FB1D1A700F4B1B68DAB20F23FB1804218A431A70FB1D1B789B00DBB2BB
:4059C00004221340D9B20F23FB180F22BA1812780A431A70044B0F22BA1812781A60C046BD4604B080BDC0460001044080B584B000AF0200FB1D1A700F4B1B68DAB20F2308
:405A0000FB1808218A431A70FB1D1B78DB00DBB208221340D9B20F23FB180F22BA1812780A431A70044B0F22BA1812781A60C046BD4604B080BDC0460000044080B582B00E
:405A400000AF7860C046064B1B681F221340082BF9D0044B7A681A60C046BD4602B080BD080225404002254080B582B000AF054B1B681F2213407B607B681800BD4602B074
:405A800080BDC0460802254080B500AF00F068F8054B180000F024F8032000F02FF800F055F8C046BD4680BDD55A000080B582B000AF786000F054F87B68180000F010F883
:405AC000032000F01BF800F041F8C046BD4602B080BDC04680B500AFC046BD4680BDC04680B582B000AF7860034B7A681A64C046BD4602B080BDC0460000002090B585B0F5
:405B000000AF0200FB1D1A700623FB600B23FC1801F0A7F8030023700B4B0B4A1268C0218A431100FA1D1078FA68904002000A431A600B23FB181B78180001F096F8C04637
:405B4000BD4605B090BDC04600E400E080B500AF024B01221A60C046BD4680BD00E100E080B500AF024B01221A60C046BD4680BD80E100E080B500AF094B00221A70094BF4
:405B800000221A70084B00221A7000F013F8074B00221A70064B00221A70C046BD4680BD932C00208C2C0020922C0020582C0020602C002080B500AF00F004FE00F0BAFD9C
:405BC000C046BD4680BDC046B0B594B004AF78603E23FB1800221A802823FA183D4B1000190014231A0001F034FE3B4B1B78002B04D1FFF7BFFF384B01221A707B68002B68
:405C00005CD0364B7A681A603E23FB181B88002B29D11023FB181C22BA185A601023FB182022BA181A601023FB1800221A812023FB181B221A802023FB181B225A8020235B
:405C4000FB1804221A711C23FB1808221A703E23FC180E23FA181023FB181100180001F047FF030023803E23FB181B88002B29D13E23FC182823FD18AE231A011849194897
:405C8000194B0293194B0193052300932B0001F085FE030023803E23FB181B88002B11D1134B01221A703E23FC18124B1522992118000EF079FC0300238003E03E23FB1879
:405CC00001221A803E23FB181B881800BD4610B0B0BDC04608910100C01500205C2C0020D0000020C96200007902000000FB03008A2C00202491010090B585B000AF020000
:405D0000FB1D1A70FB1D1B78022B04D90E23FB1801221A804AE0294B1B78042B41D1284B1B78DBB21A00042313403AD1FB1D1B78002B0BD1234B00221A82224B5B68202217
:405D40001A80204B5B6830225A8010E0FB1D1B78012B0CD11B4B96221A821A4B5B68C822D2001A80174B5B688022D2015A80164BFA1D12781A700E23FC18124B18000CF09D
:405D800011F8030023800E23FB181B88002B0DD10B4B1B78DBB204221343DAB2084B1A7004E00E23FB180422FF321A800E23FB181B881800BD4605B090BDC0468A2C0020F0
:405DC000932C0020300C0020922C002080B584B000AF78600A00FB1C1A700023BB60BB68002B20D07B689A79BB681A700F23FB1800221A7012E00F23FB181B780133BA68BF
:405E0000D3180F22BA18127879688A5C1A700F23FB181A780F23FB1801321A700F23FB181B78052BE7D9C046BD4604B080BDC04680B586B000AF78600A00FB1C1A70162322
:405E4000FB1800221A701523FB1800221A701423FB1800221A70FB1C1B78002B07D15C4B3B610F23FB185A4AD27F1A703BE0594B3B610F23FB18574AD27F1A7033E014235C
:405E8000FB181B783A69D2181523FB1812781A701523FB181B78002B33D01423FB181A781423FB1801321A701423FB181B783A69D3181B78082B07D01423FB181B783A69D9
:405EC000D3181B78092B04D11623FB1801221A7009E01423FB181422B9181522BA18097812788A181A701423FA180F23FB1812781B789A4206D21623FB181B78002BBED0B1
:405F000000E0C0461623FB181B78002B5BD01523FB181522B9181422BA18097812788A181A701423FB181A781423FB1801321A701723FB181422BA1812781A7017E0172337
:405F4000FB181B783A69D3181722BA1811781422BA1812788A1A11007A68521812781A701723FB181A781723FB1801321A701723FA181523FB1812781B789A421BD2172312
:405F8000FB181A781423FB181B78D31A1A007B689B181B78002BD2D10DE01723FB181B783A69D31800221A701723FB181A781723FB1801321A701523FA181723FB18127850
:405FC0001B789A42E9D8C046BD4606B080BDC046100C0020C415002080B586B000AF78601623FB1800221A807B68002B5CD0344B5B885A1E334913009B009B189B00CB18D1
:4060000010331B685B683B612D4B5B885A1E2D4913009B009B189B00CB180C331A880F23FB181A701523FB1800221A7012E01523FB181B783A69D3181522BA18127879689A
:406040008A1812781A701523FB181A781523FB1801321A701523FA180F23FB1812781B789A4207D21523FB181B787A68D3181B78002BDCD11523FA180F23FB1812781B7862
:406080009A4206D21523FB181B783A69D31800221A707B6800211800FFF7CAFE7B6801211800FFF7C5FE03E01623FB1801221A801623FB181B881800BD4606B080BDC04675
:4060C000189D01002491010080B582B000AF78607B681B789AB27B6801331B789BB21B029BB213439BB21800BD4602B080BDC04690B585B000AF78600F23FB1800221A707E
:406100007B689B890F22934232D17B68181D7A680F23FC18402300210EF05EFA030023700F23FB181B78002B1AD17B685B681800FFF7CAFF03001A00022313409BB2002B27
:4061400007D00F4B1B687968822252001000984706E00B4B1B6879680622FF3210009847084B1B78DBB201229343DAB2054B1A700F23FB181B781800BD4605B090BDC046F0
:406180005C2C0020932C002090B585B000AF78600F23FC187B681800FFF7AAFF03002370154B1B78DBB21A00012313401FD10F23FB181B78002B16D00823FB1812229A707B
:4061C0007B689A890823FB181A800823FB180F22BA181278DA700823FA187B68110018680CF04AFF03E07B6818680CF0CFFFC046BD4605B090BDC046932C002080B582B04F
:4062000000AF7860C046BD4602B080BD80B500AF044B00225A70034B00221A70C046BD4680BDC046902C002080B582B000AF7860C046BD4602B080BD80B500AFC046BD46CB
:4062400080BDC04680B584B000AF78600E23FB1800221A707B689B79002B1CD10F23FB1800221A7012E00F23FB181B787A68D35C002B04D00E23FB1801221A700BE00F2313
:40628000FB181A780F23FB1801321A700F23FB181B78052BE7D90E23FB181B781800BD4604B080BD80B582B000AF0200BB1D1A80C046BD4602B080BD80B582B000AF78601C
:4062C000C046BD4602B080BD80B588B000AF02003960FB1D1A70C44B1B78DBB201221343DAB2C14B1A70FB1D1B78412B00D199E123DC212B00D1EFE00DDC022B00D1C1E0AE
:4063000002DC012B3BD0ECE1052B00D1BFE0062B00D1C1E0E5E1272B00D117E106DC242B00D109E1262B00D11CE1DAE1282B00D114E12A2B00D104E1D3E14F2B00D1C3E1CA
:406340000BDC432B00D190E100DA8BE14C2B00D1A8E14E2B00D1B9E1C3E1572B00D1B7E106DC502B00D1B5E1542B00D19FE1B8E1712B00D132E1FA2B00D19DE1B1E1102316
:40638000FB1807221A701023FB1800225A701023FB18180003F0B6FA1023FB1807221A701023FB1801225A701023FB18180003F0A9FA0B23002B01D001F0B6FA8B4B1B68A0
:4063C0001800FFF73FFF031E11D0884B1B68180001F0B6FA854B1B6800211800FFF7F6FC824B1B6801211800FFF7F0FC36E0804B1B781A003F231A407E4B1B789901FC2301
:406400001B010B401A437C4B1B781903F8235B020B401A43794B1B785904FE231B040B401343BB61BB69DAB2754B1A70BB691B0ADAB2734B5A70BB691B0CDAB2704B9A705E
:406440006F4B180001F07CFA6D4B00211800FFF7BDFC6B4B01211800FFF7B8FC00200BF033FB0C23FB183F221A700C23FB1800225A700C23FB1818000BF044FB614B04229F
:406480001A702EE13B681800FFF7CEFE29E13B681A785D4B1A7024E13B687B617B691B78002B00D018E17B695B78002B0BD1574B0222DA80554B18229A80544B544A1A60DD
:4064C0007B69524A5A60484B1B78DBB201229343DAB2454B1A70FFE0434B1B78DBB21A002023134000D0F9E04A4B1B78102B02D1484B0522DA70484B1B78464A1100180011
:406500000BF00EFC03001A000A23FB181A800A23FB181B88002B06D0404B1B680A22BA18110036209847304B1B78DBB201221343DAB22D4B1A70D1E03B685A78384B1A7054
:40654000CFE03B681800FFF7B7FECAE03B681800FFF7B2FE2B4B02221A70C2E0294B04221A70BEE0274B1B78022B00D1B8E01E4B1B78DBB21A000123134000D1B0E01A4BF8
:406580001B78DBB21A00042313400BD01D4B03221A70154B1B78DBB204229343DAB2124B1A709DE0104B1B78DBB21A00082313400BD0144B04221A700B4B1B78DBB208222C
:4065C0009343DAB2084B1A708AE00E4B1B78032B00D085E00B4B04221A7081E03B681B881800FFF75FFE7CE0932C00204C0C00207CF2FF0F7DF2FF0F7BF2FF0F78F2FF0FEC
:40660000440C00208A2C00208C2C0020E8150020B00B0020B4110020902C00205C2C0020602C00203C4A3B681000190002231A0001F00FF9394B00221A70374B1B781A0046
:40664000262353439E2292009A18354BD3180133344A1000190026231A0001F0FAF8FFF7EBFD3EE0FFF7D2FD3BE03B685B88162B05D81E23FB183A6852881A8003E01E239D
:40668000FB1817221A801E23FB1819883B681A8800231204120C1B0C1B04134318000CF0F5FC1EE03B681800FFF76EFD19E03B681800FFF7A3FD14E01B4B1B7801221343F8
:4066C000DAB2194B1A700CE0C0460AE0C04608E0C04606E0C04604E0C04602E0C04600E0C046124B1B78DBB21A00112313400ED00E4B1B78DBB201229343DAB20B4B1A70D2
:406700000B4B1B68FA1D1278396810009847C046BD4608B080BDC046902C00208C2C002000FB0300642C0020582C0020932C00205C2C002080B500AFC046BD4680BDC0468E
:4067400080B586B000AF3A60FB1D021C1A70BB1D0A1C1A701623FB1800221A80FB1D1B78082B04D91623FB1801221A8020E0FB1D1B78134A5B00D31802331A880823FB18EE
:406780001A81BB1D1B789AB20823FB189A800823FB183A681A600823F8180023002200210DF01AFF031E03D01623FB1801221A801623FB181B881800BD4606B080BDC0461E
:4067C000249D010080B500AFC046BD4680BDC04680B500AF094B812292041A60084B0C221A60012000F098F8064B180000F066F8002000F053F8C046BD4680BD0001204067
:4068000024012040204E000090B583B000AFFC1D00F027FA03002370094B094A126801210A431A60FB1D1B78180000F01EFA1821012000F053F8C046BD4603B090BDC04605
:406840000000204080B500AF064B1B78002B04D1FFF7BEFF034B01221A70FFF7D5FFC046BD4680BDF015002090B583B000AFFC1D00F0F7F903002370074B074A1268012118
:406880008A431A60FB1D1B78180000F0EEF9C046BD4603B090BDC0460000204080B582B000AF7860044B7A681204120C1A60C046BD4602B080BDC0460801204080B582B0ED
:4068C00000AF7860044B7A681204120C1A60C046BD4602B080BDC0461401204090B585B000AF786039600F23FC1800F0BAF903002370084B79683A6891400A001A600F2349
:40690000FB181B78180000F0B0F9C046BD4605B090BDC0460800204080B582B000AF7860034B7A681A60C046BD4602B080BDC0463801204080B500AF00F06AF8054B1800BA
:4069400000F024F8032000F02FF800F055F8C046BD4680BD8169000080B582B000AF786000F056F87B68180000F010F8032000F01BF800F041F8C046BD4602B080BDC046F8
:4069800080B500AFC046BD4680BDC04680B582B000AF7860034B84217A685A50C046BD4602B080BD0000002090B585B000AF0200FB1D1A700E23FB600B23FC1800F051F94D
:4069C000030023700A4B0A4A12680A491140FA1D1078FA68904002000A431A600B23FB181B78180000F041F9C046BD4605B090BD10E400E0FF3FFFFF80B500AF034B80229B
:406A000092021A60C046BD4680BDC04600E100E080B500AF034B802292021A60C046BD4680BDC04680E100E080B500AF0A4B812292041A60094B0C221A60012000F07EF85D
:406A4000FA235B00180000F04BF8002000F038F8C046BD4680BDC046400120406401204090B583B000AFFC1D00F0FBF803002370094B094A126802210A431A60FB1D1B78F2
:406A8000180000F0F2F81821022000F039F8C046BD4603B090BDC0460000204080B500AF064B1B78002B04D1FFF7BEFF034B01221A70FFF7D5FFC046BD4680BDF11500204D
:406AC00080B582B000AF7860044B7A681204120C1A60C046BD4602B080BDC0464801204080B582B000AF7860044B7A681204120C1A60C046BD4602B080BDC04654012040A2
:406B000090B585B000AF786039600F23FC1800F0A8F803002370084B79683A6891400A001A600F23FB181B78180000F09EF8C046BD4605B090BDC0460800204080B582B0CE
:406B400000AF7860034B7A681A60C046BD4602B080BDC0467801204080B500AF024B1B681800BD4680BDC0467001204080B582B000AF7860034B7A681A60C046BD4602B0D7
:406B800080BDC0467001204080B582B000AF786000F050F87B68180000F00AF8032000F015F800F03BF8C046BD4602B080BDC04680B582B000AF7860034B88217A685A50FC
:406BC000C046BD4602B080BD0000002090B585B000AF0200FB1D1A701623FB600B23FC1800F03FF8030023700A4B0A4A12680A491140FA1D1078FA68904002000A431A60BC
:406C00000B23FB181B78180000F02FF8C046BD4605B090BD10E400E0FFFF3FFF80B500AF034B8022D2021A60C046BD4680BDC04600E100E080B500AF034B8022D2021A60E5
:406C4000C046BD4680BDC04680E100E0000000000230800803D00138FDD1C046C046C0467047EFF3108072B6704780F31088704780B582B000AF00233B60C04B1B68002B8A
:406C800002D0BE4B1B689847BD4B1B680122134002D0BC4B00221A60BB4B1B78DBB220221340DBB2002B38D0B84B1A6880235B0013400AD0B64B1B889BB2C022920013433B
:406CC0009AB2B34B1A8001233B60B04B1B68012213400AD0AE4B1B889BB29022920013439AB2AB4B1A8001233B603B68002B14D0A54B1B78DBB201221340DBB2002B01D044
:406D0000012300E00223A24A128892B213439AB29F4B1A809C4B00221A709B4B1B78DBB220221340DBB2002B00D1A4E1974B1B681022134018D0974B10221A60924B1B782E
:406D4000DBB201221340DBB2002B01D0012300E002238F4A128892B213439AB28C4B1A80894B10221A7090E1874B1B78DBB208221340DBB2002B29D0844B1B6802221340AA
:406D80000ED0844B02221A60814B1B889BB28822920013439AB27E4B1A8001233B6015E0794B1B78DBB201221340DBB2002B03D0754B25221A7009E0734B24221A70764B29
:406DC0001B68002B02D0754B10221A606E4B1B78DBB204221340DBB2002B00D113E16A4B1B78DBB201221340DBB2002B5BD06C4B1B680822134033D06A4B1A686A4B1B6881
:406E00001F211940694B1B68CB18D31A7B607B68082B02D908237B601EE07B68002B1BD1634B634A126863490A401A6008237B6001233B6010E0604B1A685C4B1B68D218AD
:406E40005E4B1B68DBB21370584B1B685A1C574B1A607B68013B7B607B68002BEBD11EE04F4B1B680422134019D0534B1A684F4B1B68D218514B1B68DBB213704B4B1B686E
:406E80005A1C4A4B1A60494B1A68464B1B689A4203D24B4B04221A6001E001233B60494B494A1A60AFE0394B1B680222134032D0384B02221A60454B1B681F221A40434B8F
:406EC000196880231B020B4001D0012300E00023D2183F4B1B689A1A3D4B1A603C4B1A683C4B1A602A4B1B889BB28422920013439AB2274B1A80384B374A126880214902A2
:406F00000A431A60344B344A126834490A401A6001233B6077E0324B1B681022134067D020E02B4B1A681C4B1B689A4221D21A4B1B685A1E264B1B689A4205D1294B402273
:406F40001A60164B40221A60274A284B1968204B1B68CB181B78DBB213601D4B1B685A1C1B4B1A60194B1B681F221340082BD8D100E0C0461B4B10221A6044E0A415002004
:406F80008C0E2440880E2440312C00200C0F2440402C0020000F24403C2C0020880F2440CC0F24404C2C002008032440502C002060002440FFFEFFFF442C00204003244083
:406FC00068002440C00F2440ED0F000008022440342C0020382C002004022440FFFFFEFF8C0F2440800F244040022440542C0020284B1B684022134005D0274B1A68274BA1
:407000001A6001233B603B68002B3ED0244B244A126824490A401A60234B00221A60234B00221A60224B1B78DBB202221340DBB2002B15D01F4B1B78DBB201221340DBB271
:40704000002B01D0092300E00A231B4A128892B213439AB2184B1A80164B60221A7014E0164B174A126820210A4001D0182200E010221A6009E00F4B1B78DBB21022134052
:40708000DBB2002B01D1FDF78FFAC046BD4602B080BDC0468C0F2440342C0020382C002060002440FFFEFFFFC80F2440880F2440482C0020312C0020402C0020680024406A
:4070C0006400244080B582B000AF78600A00BB1C1A80BB1C1A887B681A60C046BD4602B080BDC04680B582B000AF78600A00BB1C1A80BB1C1A887B681A60C046BD4602B091
:4071000080BDC04680B584B000AF494B1B78DBB21B02484A1278D2B21343FB60464B1B78DBB21B02454A1278D2B21343BB60BB68434A934207D1FB68072B04D1414BBB6088
:407140000423FB6009E0BA68D4231B019A4204D1FB68042B01D13B4BBB603B4BBA681A603A4BFA681A603A4B1B78DBB21B02394A1278D2B21343FB60FA6880239B019A42B5
:4071800002D0FB68002B01D1334BFB60334BFA681A60334B1B78DBB21B02324A1278D2B21343FB60FB68304A934206D0FB682F4A934202D0FB68052B01D12D4BFB602D4BB9
:4071C000FA681A602C4B1B681B097B602B4B1B68AA2B29D17B68012B26D9214B1B78DBB20E2B21D1264B1B78DBB29BB21B0299B2244B1B78DBB29AB2BB1C0A431A80224BE1
:40720000BA1C12881A60214B1B78DBB29BB21B0299B21F4B1B78DBB29AB23B000A431A801C4B3A0012881A60C046BD4604B080BD59F1FF0F58F1FF0F5FF1FF0F5EF1FF0F12
